{
  "transactions": [
    {
      "hash": "0xa95c2a777abe884c4eb1426c6675e84ad9ce523e1524a7b6082faa228ce62392",
      "transactionType": "CALL",
      "contractName": null,
      "contractAddress": "0xe605c920c942ea4e807a688c554bf83c59d4db41",
      "function": "addOperator(address)",
      "arguments": [
        "0x9e0625366F7d85A174a59b1a5D2e44F1492a9cBB"
      ],
      "transaction": {
        "from": "0xc3ca11bd8e131471904dced927b3fb7edb453179",
        "to": "0xe605c920c942ea4e807a688c554bf83c59d4db41",
        "gas": "0x1c7c4",
        "value": "0x0",
        "input": "0x9870d7fe0000000000000000000000009e0625366f7d85a174a59b1a5d2e44f1492a9cbb",
        "nonce": "0x64",
        "chainId": "0x79a"
      },
      "additionalContracts": [],
      "isFixedGasLimit": false
    }
  ],
  "receipts": [
    {
      "status": "0x1",
      "cumulativeGasUsed": "0x1ebef",
      "logs": [
        {
          "address": "0xe605c920c942ea4e807a688c554bf83c59d4db41",
          "topics": [
            "0x4c141abccf173677929dea054f218ed87362117834a8869ec9f68d8bdaaea1dc",
            "0x0000000000000000000000009e0625366f7d85a174a59b1a5d2e44f1492a9cbb"
          ],
          "data": "0x",
          "blockHash": "0x04788da17f9008f4d716184e05e28fb841654ace17ae0b98d9a7e0e229d4fe64",
          "blockNumber": "0xf83761",
          "transactionHash": "0xa95c2a777abe884c4eb1426c6675e84ad9ce523e1524a7b6082faa228ce62392",
          "transactionIndex": "0x1",
          "logIndex": "0x0",
          "removed": false
        }
      ],
      "logsBloom": "0x00000000000000000000004000000000000000000000000000000000000000000000000000000000000000000000100000000000000800000000000000000000000000800000000000000000000000000000000000001000000000000000000000000000000000000000000000000000000000010000000000000000000000000000000000000000000000000000000000000000010000000000000000000000000000000000000100000000000000000000000000000000000000000000000000000000000000000000000000000000000000000000000000000000000000000000000000000000000000000000000000000000000000000000040000000000",
      "type": "0x2",
      "transactionHash": "0xa95c2a777abe884c4eb1426c6675e84ad9ce523e1524a7b6082faa228ce62392",
      "transactionIndex": "0x1",
      "blockHash": "0x04788da17f9008f4d716184e05e28fb841654ace17ae0b98d9a7e0e229d4fe64",
      "blockNumber": "0xf83761",
      "gasUsed": "0x137a3",
      "effectiveGasPrice": "0xf433c",
      "from": "0xc3ca11bd8e131471904dced927b3fb7edb453179",
      "to": "0xe605c920c942ea4e807a688c554bf83c59d4db41",
      "contractAddress": null,
      "l1BaseFeeScalar": "0x2608",
      "l1BlobBaseFee": "0xa5966",
      "l1BlobBaseFeeScalar": "0x177fef",
      "l1Fee": "0x7e73a06",
      "l1GasPrice": "0x1b9024",
      "l1GasUsed": "0x640"
    }
  ],
  "libraries": [],
  "pending": [],
  "returns": {},
  "timestamp": 1755728547,
  "chain": 1946,
  "commit": "0a08181"
}