{
  "transactions": [
    {
      "hash": "0x72f98f14c88ed950a91ae4b3935f500e620f3a4ba0bea68ffb161a78408ab271",
      "transactionType": "CALL",
      "contractName": null,
      "contractAddress": "0xd384b9908baf9fd39cf75a51a45102b4c19d953c",
      "function": "removeFeeConfig(address)",
      "arguments": [
        "0x375E2A148102bF179AE7743A28A34cF959bE9499"
      ],
      "transaction": {
        "from": "0xa55e7e6dcebd02ea56d2f268fa22a50c807d759f",
        "to": "0xd384b9908baf9fd39cf75a51a45102b4c19d953c",
        "gas": "0xff5c",
        "value": "0x0",
        "input": "0xfd1e33d5000000000000000000000000375e2a148102bf179ae7743a28a34cf959be9499",
        "nonce": "0x60",
        "chainId": "0x79a"
      },
      "additionalContracts": [],
      "isFixedGasLimit": false
    },
    {
      "hash": "0xda6488cac70fdc8280969e95e1660ee81ec8d0dbcd87bf4e59adb93ed99c6d58",
      "transactionType": "CALL",
      "contractName": null,
      "contractAddress": "0xd384b9908baf9fd39cf75a51a45102b4c19d953c",
      "function": "setFeeConfig(address,uint256,uint256)",
      "arguments": [
        "0x70b52c6cDDA7C6b881DE77196EdFDF5a704b55f2",
        "1000",
        "4000000000000000000000"
      ],
      "transaction": {
        "from": "0xa55e7e6dcebd02ea56d2f268fa22a50c807d759f",
        "to": "0xd384b9908baf9fd39cf75a51a45102b4c19d953c",
        "gas": "0x30140",
        "value": "0x0",
        "input": "0x236fcdac00000000000000000000000070b52c6cdda7c6b881de77196edfdf5a704b55f200000000000000000000000000000000000000000000000000000000000003e80000000000000000000000000000000000000000000000d8d726b7177a800000",
        "nonce": "0x61",
        "chainId": "0x79a"
      },
      "additionalContracts": [],
      "isFixedGasLimit": false
    },
    {
      "hash": "0x4978b48e91fe2b678d2598e90de32ceb1f0d67c800cdfa36de48ccc624fde3b8",
      "transactionType": "CALL",
      "contractName": null,
      "contractAddress": "0xd384b9908baf9fd39cf75a51a45102b4c19d953c",
      "function": "setFeeMinimumDeposit(address,uint256)",
      "arguments": [
        "0x70b52c6cDDA7C6b881DE77196EdFDF5a704b55f2",
        "100000000"
      ],
      "transaction": {
        "from": "0xa55e7e6dcebd02ea56d2f268fa22a50c807d759f",
        "to": "0xd384b9908baf9fd39cf75a51a45102b4c19d953c",
        "gas": "0x19fee",
        "value": "0x0",
        "input": "0x2edcab0200000000000000000000000070b52c6cdda7c6b881de77196edfdf5a704b55f20000000000000000000000000000000000000000000000000000000005f5e100",
        "nonce": "0x62",
        "chainId": "0x79a"
      },
      "additionalContracts": [],
      "isFixedGasLimit": false
    },
    {
      "hash": "0xd262524fe1f3a3a862bd5bc0e5dd9ac9be14a08409863171c06987638d5689ac",
      "transactionType": "CALL",
      "contractName": null,
      "contractAddress": "0xd384b9908baf9fd39cf75a51a45102b4c19d953c",
      "function": "updateDAppConfig(uint256,address,address,string)",
      "arguments": [
        "113720754091436548845938865822419147096105237861509221546363423289715574416457",
        "0xa55E7E6dCEBD02eA56d2f268fA22A50C807D759f",
        "0x70b52c6cDDA7C6b881DE77196EdFDF5a704b55f2",
        "{\\\"version\\\":1,\\\"name\\\":\\\"CTM\\\",\\\"description\\\":\\\"CTM\\\",\\\"email\\\":\\\"continuumdao@proton.me\\\",\\\"url\\\":\\\"continuumdao.org\\\"}"
      ],
      "transaction": {
        "from": "0xa55e7e6dcebd02ea56d2f268fa22a50c807d759f",
        "to": "0xd384b9908baf9fd39cf75a51a45102b4c19d953c",
        "gas": "0x21df8",
        "value": "0x0",
        "input": "0x825d065ffb6baa755e2066441b7ccc1927affcad67f35bc74df43ca450ef556c9eefa449000000000000000000000000a55e7e6dcebd02ea56d2f268fa22a50c807d759f00000000000000000000000070b52c6cdda7c6b881de77196edfdf5a704b55f2000000000000000000000000000000000000000000000000000000000000008000000000000000000000000000000000000000000000000000000000000000687b2276657273696f6e223a312c226e616d65223a2243544d222c226465736372697074696f6e223a2243544d222c22656d61696c223a22636f6e74696e75756d64616f4070726f746f6e2e6d65222c2275726c223a22636f6e74696e75756d64616f2e6f7267227d000000000000000000000000000000000000000000000000",
        "nonce": "0x63",
        "chainId": "0x79a"
      },
      "additionalContracts": [],
      "isFixedGasLimit": false
    },
    {
      "hash": "0x4d9b9e7d71633f60f916469326fff28ee5ff23871a2489d26f806ac2b9d37fff",
      "transactionType": "CALL",
      "contractName": null,
      "contractAddress": "0x70b52c6cdda7c6b881de77196edfdf5a704b55f2",
      "function": "approve(address,uint256)",
      "arguments": [
        "0xD384b9908baF9fD39Cf75A51A45102b4C19d953c",
        "1000000000"
      ],
      "transaction": {
        "from": "0xa55e7e6dcebd02ea56d2f268fa22a50c807d759f",
        "to": "0x70b52c6cdda7c6b881de77196edfdf5a704b55f2",
        "gas": "0x1939a",
        "value": "0x0",
        "input": "0x095ea7b3000000000000000000000000d384b9908baf9fd39cf75a51a45102b4c19d953c000000000000000000000000000000000000000000000000000000003b9aca00",
        "nonce": "0x64",
        "chainId": "0x79a"
      },
      "additionalContracts": [],
      "isFixedGasLimit": false
    },
    {
      "hash": "0xe012edb81927828095524323163bc8323c553b4a06a61d088657c2d33b996e60",
      "transactionType": "CALL",
      "contractName": null,
      "contractAddress": "0xd384b9908baf9fd39cf75a51a45102b4c19d953c",
      "function": "deposit(uint256,address,uint256)",
      "arguments": [
        "113720754091436548845938865822419147096105237861509221546363423289715574416457",
        "0x70b52c6cDDA7C6b881DE77196EdFDF5a704b55f2",
        "1000000000"
      ],
      "transaction": {
        "from": "0xa55e7e6dcebd02ea56d2f268fa22a50c807d759f",
        "to": "0xd384b9908baf9fd39cf75a51a45102b4c19d953c",
        "gas": "0x34f26",
        "value": "0x0",
        "input": "0xbc157ac1fb6baa755e2066441b7ccc1927affcad67f35bc74df43ca450ef556c9eefa44900000000000000000000000070b52c6cdda7c6b881de77196edfdf5a704b55f2000000000000000000000000000000000000000000000000000000003b9aca00",
        "nonce": "0x65",
        "chainId": "0x79a"
      },
      "additionalContracts": [],
      "isFixedGasLimit": false
    }
  ],
  "receipts": [
    {
      "status": "0x1",
      "cumulativeGasUsed": "0x15882",
      "logs": [
        {
          "address": "0xd384b9908baf9fd39cf75a51a45102b4c19d953c",
          "topics": [
            "0x635597d427bb89928f8f4c67299e0a29167b75e80dc42c9b63072f9ed8de3373",
            "0x000000000000000000000000375e2a148102bf179ae7743a28a34cf959be9499"
          ],
          "data": "0x",
          "blockHash": "0x9463717c72740fce81d59ae99ac267793e5617de49261e7b82c66edccf263e39",
          "blockNumber": "0x16de194",
          "blockTimestamp": "0x69919f08",
          "transactionHash": "0x72f98f14c88ed950a91ae4b3935f500e620f3a4ba0bea68ffb161a78408ab271",
          "transactionIndex": "0x1",
          "logIndex": "0x0",
          "removed": false
        }
      ],
      "logsBloom": "0x00000000000000000000000000000000000000000000000000000000000000000000008000000000000000000000000000000000000000000000000000800000000000000000000000000000000000000000000000000000000000000000000000000000000000000000000000000000000000000000000004000000000000000000000000000000000000000000000000040000000000000000000000000000040000000000000000000000000000000080000000000000000000000000000000000000000000000000000000004000000000000000000000000000000000000000000000010000000001000000000000000000000000000000000000000000",
      "type": "0x2",
      "transactionHash": "0x72f98f14c88ed950a91ae4b3935f500e620f3a4ba0bea68ffb161a78408ab271",
      "transactionIndex": "0x1",
      "blockHash": "0x9463717c72740fce81d59ae99ac267793e5617de49261e7b82c66edccf263e39",
      "blockNumber": "0x16de194",
      "gasUsed": "0x782c",
      "effectiveGasPrice": "0xfd",
      "blobGasUsed": "0x9c40",
      "from": "0xa55e7e6dcebd02ea56d2f268fa22a50c807d759f",
      "to": "0xd384b9908baf9fd39cf75a51a45102b4c19d953c",
      "contractAddress": null,
      "daFootprintGasScalar": "0x190",
      "l1BaseFeeScalar": "0x2608",
      "l1BlobBaseFee": "0xd7d49f2",
      "l1BlobBaseFeeScalar": "0x177fef",
      "l1Fee": "0x18b2058b64",
      "l1GasPrice": "0x1107a3f9b",
      "l1GasUsed": "0x640"
    },
    {
      "status": "0x1",
      "cumulativeGasUsed": "0x21ea2",
      "logs": [
        {
          "address": "0xd384b9908baf9fd39cf75a51a45102b4c19d953c",
          "topics": [
            "0xf7b44c590ebdaf47d8d8765552f0c28b1d998703ab4d9e29aefbc1980d8ab8a4",
            "0x00000000000000000000000070b52c6cdda7c6b881de77196edfdf5a704b55f2"
          ],
          "data": "0x00000000000000000000000000000000000000000000000000000000000003e80000000000000000000000000000000000000000000000d8d726b7177a800000",
          "blockHash": "0xfc94cf7a66593c4e060f7596233cc000017bded629126add1b1fd924a84f0fa7",
          "blockNumber": "0x16de196",
          "blockTimestamp": "0x69919f0c",
          "transactionHash": "0xda6488cac70fdc8280969e95e1660ee81ec8d0dbcd87bf4e59adb93ed99c6d58",
          "transactionIndex": "0x1",
          "logIndex": "0x0",
          "removed": false
        }
      ],
      "logsBloom": "0x00000000000000000000000000000000000000000000000000000000000000000000000000000000080000000000000000000000000000000000000000800000000000000000000000000000000000000000000000000000000000000000000000000000000000000000000000000000010000000000000000000000000000000000000000000000000000000000000000040000000001000000000000000000040000000000000000000000000001000000000000000000000000004000000000000000000000000000000000000000000000000000000000000000000000000000000000000000000000000000000000000000000000040000000000000000",
      "type": "0x2",
      "transactionHash": "0xda6488cac70fdc8280969e95e1660ee81ec8d0dbcd87bf4e59adb93ed99c6d58",
      "transactionIndex": "0x1",
      "blockHash": "0xfc94cf7a66593c4e060f7596233cc000017bded629126add1b1fd924a84f0fa7",
      "blockNumber": "0x16de196",
      "gasUsed": "0x16a00",
      "effectiveGasPrice": "0xfd",
      "blobGasUsed": "0x9c40",
      "from": "0xa55e7e6dcebd02ea56d2f268fa22a50c807d759f",
      "to": "0xd384b9908baf9fd39cf75a51a45102b4c19d953c",
      "contractAddress": null,
      "daFootprintGasScalar": "0x190",
      "l1BaseFeeScalar": "0x2608",
      "l1BlobBaseFee": "0xd7d49f2",
      "l1BlobBaseFeeScalar": "0x177fef",
      "l1Fee": "0x18b2058b64",
      "l1GasPrice": "0x1107a3f9b",
      "l1GasUsed": "0x640"
    },
    {
      "status": "0x1",
      "cumulativeGasUsed": "0x30f69",
      "logs": [
        {
          "address": "0xd384b9908baf9fd39cf75a51a45102b4c19d953c",
          "topics": [
            "0x329bcb4e5cb7d1fa89c2b4f4d1b07d8d25cd7f6f93f5f27047755895b0dad462",
            "0x00000000000000000000000070b52c6cdda7c6b881de77196edfdf5a704b55f2"
          ],
          "data": "0x0000000000000000000000000000000000000000000000000000000005f5e100",
          "blockHash": "0x3a8e422b8f72d283b4b1215a760a5b794e7c5c686a922044a75918171cfab593",
          "blockNumber": "0x16de198",
          "blockTimestamp": "0x69919f10",
          "transactionHash": "0x4978b48e91fe2b678d2598e90de32ceb1f0d67c800cdfa36de48ccc624fde3b8",
          "transactionIndex": "0x2",
          "logIndex": "0x2",
          "removed": false
        }
      ],
      "logsBloom": "0x00000000000000200000000000000000000000000000000000000000000000000000000000000000080000000000000000000000000000000000000000800000000000000000000000000000000000000000000000080000000000000000000080000000000000000000000000000000010000000000000000000000000000000000000000000000000000000000000000040000000000000000000000000000040000000000000000000000000000000000000000000000000000004000000000000000000000000000000000000000000000000000000000000000000000000000000000000000000000000000000000000000000000000000000000000000",
      "type": "0x2",
      "transactionHash": "0x4978b48e91fe2b678d2598e90de32ceb1f0d67c800cdfa36de48ccc624fde3b8",
      "transactionIndex": "0x2",
      "blockHash": "0x3a8e422b8f72d283b4b1215a760a5b794e7c5c686a922044a75918171cfab593",
      "blockNumber": "0x16de198",
      "gasUsed": "0xc3bc",
      "effectiveGasPrice": "0xfd",
      "blobGasUsed": "0x9c40",
      "from": "0xa55e7e6dcebd02ea56d2f268fa22a50c807d759f",
      "to": "0xd384b9908baf9fd39cf75a51a45102b4c19d953c",
      "contractAddress": null,
      "daFootprintGasScalar": "0x190",
      "l1BaseFeeScalar": "0x2608",
      "l1BlobBaseFee": "0xd7d49f2",
      "l1BlobBaseFeeScalar": "0x177fef",
      "l1Fee": "0x18b2058b64",
      "l1GasPrice": "0x1107a3f9b",
      "l1GasUsed": "0x640"
    },
    {
      "status": "0x1",
      "cumulativeGasUsed": "0x26f59",
      "logs": [
        {
          "address": "0xd384b9908baf9fd39cf75a51a45102b4c19d953c",
          "topics": [
            "0x8c1ec1ba18731ac19ff6089bc9470a71fb6b885ee0c64e8415e2599a41e55019",
            "0xfb6baa755e2066441b7ccc1927affcad67f35bc74df43ca450ef556c9eefa449",
            "0x000000000000000000000000a55e7e6dcebd02ea56d2f268fa22a50c807d759f",
            "0x00000000000000000000000070b52c6cdda7c6b881de77196edfdf5a704b55f2"
          ],
          "data": "0x000000000000000000000000000000000000000000000000000000000000002000000000000000000000000000000000000000000000000000000000000000687b2276657273696f6e223a312c226e616d65223a2243544d222c226465736372697074696f6e223a2243544d222c22656d61696c223a22636f6e74696e75756d64616f4070726f746f6e2e6d65222c2275726c223a22636f6e74696e75756d64616f2e6f7267227d000000000000000000000000000000000000000000000000",
          "blockHash": "0x6552588cb967c40003cd771d6ab3e70976e0f213c7aaf5f4d50038674f632ba3",
          "blockNumber": "0x16de19a",
          "blockTimestamp": "0x69919f14",
          "transactionHash": "0xd262524fe1f3a3a862bd5bc0e5dd9ac9be14a08409863171c06987638d5689ac",
          "transactionIndex": "0x2",
          "logIndex": "0x1",
          "removed": false
        }
      ],
      "logsBloom": "0x00000000000000000000800000000000000000000000004000000001000000000000000002000000080000000000000000000000000000000000000000800000000000000000000000000000000000000000000000000000000000000000000000100000000000000000000002000400010000000000000000000000000000000000000000000000000000000000000000040000000000000000000000000001040000000000000000000000000000000000000000000000000000004000000000000000000000000000000000000000000000000000000000000000000000000000040000000000000000000000000000000000000000000000000000000000",
      "type": "0x2",
      "transactionHash": "0xd262524fe1f3a3a862bd5bc0e5dd9ac9be14a08409863171c06987638d5689ac",
      "transactionIndex": "0x2",
      "blockHash": "0x6552588cb967c40003cd771d6ab3e70976e0f213c7aaf5f4d50038674f632ba3",
      "blockNumber": "0x16de19a",
      "gasUsed": "0xff0c",
      "effectiveGasPrice": "0xfd",
      "blobGasUsed": "0x14cd0",
      "from": "0xa55e7e6dcebd02ea56d2f268fa22a50c807d759f",
      "to": "0xd384b9908baf9fd39cf75a51a45102b4c19d953c",
      "contractAddress": null,
      "daFootprintGasScalar": "0x190",
      "l1BaseFeeScalar": "0x2608",
      "l1BlobBaseFee": "0xdb15382",
      "l1BlobBaseFeeScalar": "0x177fef",
      "l1Fee": "0x3960945958",
      "l1GasPrice": "0x13285999b",
      "l1GasUsed": "0xd56"
    },
    {
      "status": "0x1",
      "cumulativeGasUsed": "0x167f7",
      "logs": [
        {
          "address": "0x70b52c6cdda7c6b881de77196edfdf5a704b55f2",
          "topics": [
            "0x8c5be1e5ebec7d5bd14f71427d1e84f3dd0314c0f7b2291e5b200ac8c7c3b925",
            "0x000000000000000000000000a55e7e6dcebd02ea56d2f268fa22a50c807d759f",
            "0x000000000000000000000000d384b9908baf9fd39cf75a51a45102b4c19d953c"
          ],
          "data": "0x000000000000000000000000000000000000000000000000000000003b9aca00",
          "blockHash": "0x516b1607bbcc5f479d1bedb3086f374f5abac2a7eafe0efe1e0807e67059bd65",
          "blockNumber": "0x16de19c",
          "blockTimestamp": "0x69919f18",
          "transactionHash": "0x4d9b9e7d71633f60f916469326fff28ee5ff23871a2489d26f806ac2b9d37fff",
          "transactionIndex": "0x1",
          "logIndex": "0x0",
          "removed": false
        }
      ],
      "logsBloom": "0x00000000000000000000000000000000000000000000004000000001000000000000000000000000000000000000000000000000000020000000010000200000000000000000000000000000000000000000000000000000000000000000000000000000000000000000000002000000000000000000000000000000000000000000000000000000000000000000000000000000000400000000000000000040020000000000000000000000000000000000000000000000000000000000000000000000000000000000000000000000000000000000000000000000000000000010000000000000000000000000000000004000000000000000000000400000",
      "type": "0x2",
      "transactionHash": "0x4d9b9e7d71633f60f916469326fff28ee5ff23871a2489d26f806ac2b9d37fff",
      "transactionIndex": "0x1",
      "blockHash": "0x516b1607bbcc5f479d1bedb3086f374f5abac2a7eafe0efe1e0807e67059bd65",
      "blockNumber": "0x16de19c",
      "gasUsed": "0xb361",
      "effectiveGasPrice": "0xfd",
      "blobGasUsed": "0x9c40",
      "from": "0xa55e7e6dcebd02ea56d2f268fa22a50c807d759f",
      "to": "0x70b52c6cdda7c6b881de77196edfdf5a704b55f2",
      "contractAddress": null,
      "daFootprintGasScalar": "0x190",
      "l1BaseFeeScalar": "0x2608",
      "l1BlobBaseFee": "0xdb15382",
      "l1BlobBaseFeeScalar": "0x177fef",
      "l1Fee": "0x1ae3a7f7f2",
      "l1GasPrice": "0x13285999b",
      "l1GasUsed": "0x640"
    },
    {
      "status": "0x1",
      "cumulativeGasUsed": "0x3c424",
      "logs": [
        {
          "address": "0x70b52c6cdda7c6b881de77196edfdf5a704b55f2",
          "topics": [
            "0xddf252ad1be2c89b69c2b068fc378daa952ba7f163c4a11628f55a4df523b3ef",
            "0x000000000000000000000000a55e7e6dcebd02ea56d2f268fa22a50c807d759f",
            "0x000000000000000000000000d384b9908baf9fd39cf75a51a45102b4c19d953c"
          ],
          "data": "0x000000000000000000000000000000000000000000000000000000003b9aca00",
          "blockHash": "0x7ee77d08f36dc096a80882778f68e1eb240a8648ac25321349a45289276b0034",
          "blockNumber": "0x16de19e",
          "blockTimestamp": "0x69919f1c",
          "transactionHash": "0xe012edb81927828095524323163bc8323c553b4a06a61d088657c2d33b996e60",
          "transactionIndex": "0x2",
          "logIndex": "0x2",
          "removed": false
        },
        {
          "address": "0xd384b9908baf9fd39cf75a51a45102b4c19d953c",
          "topics": [
            "0xd36a2f67d06d285786f61a32b052b9ace6b0b7abef5177b54358abdc83a0b69b",
            "0xfb6baa755e2066441b7ccc1927affcad67f35bc74df43ca450ef556c9eefa449",
            "0x00000000000000000000000070b52c6cdda7c6b881de77196edfdf5a704b55f2"
          ],
          "data": "0x000000000000000000000000000000000000000000000000000000003b9aca00000000000000000000000000000000000000000000000000000000003b9aca00",
          "blockHash": "0x7ee77d08f36dc096a80882778f68e1eb240a8648ac25321349a45289276b0034",
          "blockNumber": "0x16de19e",
          "blockTimestamp": "0x69919f1c",
          "transactionHash": "0xe012edb81927828095524323163bc8323c553b4a06a61d088657c2d33b996e60",
          "transactionIndex": "0x2",
          "logIndex": "0x3",
          "removed": false
        }
      ],
      "logsBloom": "0x00000000000000000000800000000000000000000000004000000001000000000000000000000000080000000000000000000000000020000000010000800000000000000000000000000008000000000000000000000000000000000000000000100000000000000000000002000400010000000000000000000010000000000000000000000000000000000000000000040000000400000000000000000040040000000000000000000000000000000000000000000000000000004000000000000002000000000000000000000000000008000000000100000000000000000000000000000000000000000000000000004000000000000000800000400000",
      "type": "0x2",
      "transactionHash": "0xe012edb81927828095524323163bc8323c553b4a06a61d088657c2d33b996e60",
      "transactionIndex": "0x2",
      "blockHash": "0x7ee77d08f36dc096a80882778f68e1eb240a8648ac25321349a45289276b0034",
      "blockNumber": "0x16de19e",
      "gasUsed": "0x17883",
      "effectiveGasPrice": "0xfd",
      "blobGasUsed": "0xad70",
      "from": "0xa55e7e6dcebd02ea56d2f268fa22a50c807d759f",
      "to": "0xd384b9908baf9fd39cf75a51a45102b4c19d953c",
      "contractAddress": null,
      "daFootprintGasScalar": "0x190",
      "l1BaseFeeScalar": "0x2608",
      "l1BlobBaseFee": "0xdb15382",
      "l1BlobBaseFeeScalar": "0x177fef",
      "l1Fee": "0x1def9a162d",
      "l1GasPrice": "0x13285999b",
      "l1GasUsed": "0x6f5"
    }
  ],
  "libraries": [],
  "pending": [],
  "returns": {},
  "timestamp": 1771151132277,
  "chain": 1946,
  "commit": "d786b9f"
}