{
  "transactions": [
    {
      "hash": "0xdb3a198f7db3e5ac6a66d53ac27236f4f60d0288964c2114a054a6eb78d3f61f",
      "transactionType": "CALL",
      "contractName": null,
      "contractAddress": "0x9e0625366f7d85a174a59b1a5d2e44f1492a9cbb",
      "function": "addOperator(address)",
      "arguments": [
        "0xa0CDAc76fA51aa65402137e3FA5357432Af02e02"
      ],
      "transaction": {
        "from": "0xc3ca11bd8e131471904dced927b3fb7edb453179",
        "to": "0x9e0625366f7d85a174a59b1a5d2e44f1492a9cbb",
        "gas": "0x1c7e6",
        "value": "0x0",
        "input": "0x9870d7fe000000000000000000000000a0cdac76fa51aa65402137e3fa5357432af02e02",
        "nonce": "0xac",
        "chainId": "0x79a"
      },
      "additionalContracts": [],
      "isFixedGasLimit": false
    }
  ],
  "receipts": [
    {
      "status": "0x1",
      "cumulativeGasUsed": "0x21796",
      "logs": [
        {
          "address": "0x9e0625366f7d85a174a59b1a5d2e44f1492a9cbb",
          "topics": [
            "0x4c141abccf173677929dea054f218ed87362117834a8869ec9f68d8bdaaea1dc",
            "0x000000000000000000000000a0cdac76fa51aa65402137e3fa5357432af02e02"
          ],
          "data": "0x",
          "blockHash": "0xf6f0a6d9d54439430521970447a1c9964c536aa41a6b2bbbecaaa14e885824eb",
          "blockNumber": "0x10efd41",
          "transactionHash": "0xdb3a198f7db3e5ac6a66d53ac27236f4f60d0288964c2114a054a6eb78d3f61f",
          "transactionIndex": "0x1",
          "logIndex": "0x0",
          "removed": false
        }
      ],
      "logsBloom": "0x00000000000000000000000000800000000000000000000000000000000000000000000000000000000000000000000000000000000800000000000000000000000000000000000000000000000000000000000000000000000000000000000000000000000000000000000000000000020000010000000000000000000000000000000000000000000000004000000000000000000000000000000000000000000000000000000100000000000000000000000000000000000000000000000000000000000000000000000000000000000000000000000000000000000000000000000000010000000000000100000000000000000000000000000000000020",
      "type": "0x2",
      "transactionHash": "0xdb3a198f7db3e5ac6a66d53ac27236f4f60d0288964c2114a054a6eb78d3f61f",
      "transactionIndex": "0x1",
      "blockHash": "0xf6f0a6d9d54439430521970447a1c9964c536aa41a6b2bbbecaaa14e885824eb",
      "blockNumber": "0x10efd41",
      "gasUsed": "0x137ba",
      "effectiveGasPrice": "0x7a21c",
      "from": "0xc3ca11bd8e131471904dced927b3fb7edb453179",
      "to": "0x9e0625366f7d85a174a59b1a5d2e44f1492a9cbb",
      "contractAddress": null,
      "l1BaseFeeScalar": "0x2608",
      "l1BlobBaseFee": "0xa4f",
      "l1BlobBaseFeeScalar": "0x177fef",
      "l1Fee": "0x63888",
      "l1GasPrice": "0x51",
      "l1GasUsed": "0x640"
    }
  ],
  "libraries": [],
  "pending": [],
  "returns": {},
  "timestamp": 1758713444494,
  "chain": 1946,
  "commit": "b3453d5"
}