{
  "transactions": [
    {
      "hash": "0x26eb0ba1f65d13d6d33b2ebecee436c40398d2cdfb55a086cd55c033f00a0332",
      "transactionType": "CALL",
      "contractName": null,
      "contractAddress": "0x9e0625366f7d85a174a59b1a5d2e44f1492a9cbb",
      "function": "addOperator(address)",
      "arguments": [
        "0xB841Ace6d760CaA37452821Ec9348b7cB31FE909"
      ],
      "transaction": {
        "from": "0xc3ca11bd8e131471904dced927b3fb7edb453179",
        "to": "0x9e0625366f7d85a174a59b1a5d2e44f1492a9cbb",
        "gas": "0x1c7e6",
        "value": "0x0",
        "input": "0x9870d7fe000000000000000000000000b841ace6d760caa37452821ec9348b7cb31fe909",
        "nonce": "0xa1",
        "chainId": "0x79a"
      },
      "additionalContracts": [],
      "isFixedGasLimit": false
    }
  ],
  "receipts": [
    {
      "status": "0x1",
      "cumulativeGasUsed": "0x1ec12",
      "logs": [
        {
          "address": "0x9e0625366f7d85a174a59b1a5d2e44f1492a9cbb",
          "topics": [
            "0x4c141abccf173677929dea054f218ed87362117834a8869ec9f68d8bdaaea1dc",
            "0x000000000000000000000000b841ace6d760caa37452821ec9348b7cb31fe909"
          ],
          "data": "0x",
          "blockHash": "0xd2874c1506e07b71be2856824271e3ebe323432fb8209b813d984ee301d90873",
          "blockNumber": "0x1034f63",
          "transactionHash": "0x26eb0ba1f65d13d6d33b2ebecee436c40398d2cdfb55a086cd55c033f00a0332",
          "transactionIndex": "0x1",
          "logIndex": "0x0",
          "removed": false
        }
      ],
      "logsBloom": "0x00000000000000000000000000000000000000000000000000000010000000000000000000000000000000000000000000002000000800000000000000000000000000000000000000000000000000000000000000000000000000000000000000000000000000000000000000000000000000010000000000000004000000000000000000000000000000004000000000000000000000000000000000000000000000000000000100000000000000000000000000000000000000000000000000000000000000000000000000000000000000000000000000000000000000000000000000000000000000000100000000000000000000000000000000000020",
      "type": "0x2",
      "transactionHash": "0x26eb0ba1f65d13d6d33b2ebecee436c40398d2cdfb55a086cd55c033f00a0332",
      "transactionIndex": "0x1",
      "blockHash": "0xd2874c1506e07b71be2856824271e3ebe323432fb8209b813d984ee301d90873",
      "blockNumber": "0x1034f63",
      "gasUsed": "0x137ba",
      "effectiveGasPrice": "0xf433c",
      "from": "0xc3ca11bd8e131471904dced927b3fb7edb453179",
      "to": "0x9e0625366f7d85a174a59b1a5d2e44f1492a9cbb",
      "contractAddress": null,
      "l1BaseFeeScalar": "0x2608",
      "l1BlobBaseFee": "0x2562cb0",
      "l1BlobBaseFeeScalar": "0x177fef",
      "l1Fee": "0x16a834055",
      "l1GasPrice": "0x2ba129",
      "l1GasUsed": "0x640"
    }
  ],
  "libraries": [],
  "pending": [],
  "returns": {},
  "timestamp": 1757182631620,
  "chain": 1946,
  "commit": "b3453d5"
}