{
  "transactions": [
    {
      "hash": "0x94de7f563c931b79abca4f8c786bb5473f659cb937c989b19fcce84288030b3b",
      "transactionType": "CALL",
      "contractName": null,
      "contractAddress": "0xd384b9908baf9fd39cf75a51a45102b4c19d953c",
      "function": "removeFeeConfig(address)",
      "arguments": [
        "0x375E2A148102bF179AE7743A28A34cF959bE9499"
      ],
      "transaction": {
        "from": "0xa55e7e6dcebd02ea56d2f268fa22a50c807d759f",
        "to": "0xd384b9908baf9fd39cf75a51a45102b4c19d953c",
        "gas": "0x87e46",
        "value": "0x0",
        "input": "0xfd1e33d5000000000000000000000000375e2a148102bf179ae7743a28a34cf959be9499",
        "nonce": "0x60",
        "chainId": "0x2b74"
      },
      "additionalContracts": [],
      "isFixedGasLimit": false
    },
    {
      "hash": "0xefb916cea4d1b65d5756033043b5459810a9e30e122605de5531bb208281a3f6",
      "transactionType": "CALL",
      "contractName": null,
      "contractAddress": "0xd384b9908baf9fd39cf75a51a45102b4c19d953c",
      "function": "setFeeConfig(address,uint256,uint256)",
      "arguments": [
        "0x70b52c6cDDA7C6b881DE77196EdFDF5a704b55f2",
        "1000",
        "4000000000000000000000"
      ],
      "transaction": {
        "from": "0xa55e7e6dcebd02ea56d2f268fa22a50c807d759f",
        "to": "0xd384b9908baf9fd39cf75a51a45102b4c19d953c",
        "gas": "0x138d3c",
        "value": "0x0",
        "input": "0x236fcdac00000000000000000000000070b52c6cdda7c6b881de77196edfdf5a704b55f200000000000000000000000000000000000000000000000000000000000003e80000000000000000000000000000000000000000000000d8d726b7177a800000",
        "nonce": "0x61",
        "chainId": "0x2b74"
      },
      "additionalContracts": [],
      "isFixedGasLimit": false
    },
    {
      "hash": "0x32673002b2ca165196398bbeaffd3cea0824ae69fcb82110c15971c0141f755f",
      "transactionType": "CALL",
      "contractName": null,
      "contractAddress": "0xd384b9908baf9fd39cf75a51a45102b4c19d953c",
      "function": "setFeeMinimumDeposit(address,uint256)",
      "arguments": [
        "0x70b52c6cDDA7C6b881DE77196EdFDF5a704b55f2",
        "100000000"
      ],
      "transaction": {
        "from": "0xa55e7e6dcebd02ea56d2f268fa22a50c807d759f",
        "to": "0xd384b9908baf9fd39cf75a51a45102b4c19d953c",
        "gas": "0x19fee",
        "value": "0x0",
        "input": "0x2edcab0200000000000000000000000070b52c6cdda7c6b881de77196edfdf5a704b55f20000000000000000000000000000000000000000000000000000000005f5e100",
        "nonce": "0x62",
        "chainId": "0x2b74"
      },
      "additionalContracts": [],
      "isFixedGasLimit": false
    },
    {
      "hash": "0x390be92ef1b074db181376e8430e4cdb4f3bbe32825dfaa81f66e3d111d7011b",
      "transactionType": "CALL",
      "contractName": null,
      "contractAddress": "0xd384b9908baf9fd39cf75a51a45102b4c19d953c",
      "function": "updateDAppConfig(uint256,address,address,string)",
      "arguments": [
        "113720754091436548845938865822419147096105237861509221546363423289715574416457",
        "0xa55E7E6dCEBD02eA56d2f268fA22A50C807D759f",
        "0x70b52c6cDDA7C6b881DE77196EdFDF5a704b55f2",
        "{\\\"version\\\":1,\\\"name\\\":\\\"CTM\\\",\\\"description\\\":\\\"CTM\\\",\\\"email\\\":\\\"continuumdao@proton.me\\\",\\\"url\\\":\\\"continuumdao.org\\\"}"
      ],
      "transaction": {
        "from": "0xa55e7e6dcebd02ea56d2f268fa22a50c807d759f",
        "to": "0xd384b9908baf9fd39cf75a51a45102b4c19d953c",
        "gas": "0x21df8",
        "value": "0x0",
        "input": "0x825d065ffb6baa755e2066441b7ccc1927affcad67f35bc74df43ca450ef556c9eefa449000000000000000000000000a55e7e6dcebd02ea56d2f268fa22a50c807d759f00000000000000000000000070b52c6cdda7c6b881de77196edfdf5a704b55f2000000000000000000000000000000000000000000000000000000000000008000000000000000000000000000000000000000000000000000000000000000687b2276657273696f6e223a312c226e616d65223a2243544d222c226465736372697074696f6e223a2243544d222c22656d61696c223a22636f6e74696e75756d64616f4070726f746f6e2e6d65222c2275726c223a22636f6e74696e75756d64616f2e6f7267227d000000000000000000000000000000000000000000000000",
        "nonce": "0x63",
        "chainId": "0x2b74"
      },
      "additionalContracts": [],
      "isFixedGasLimit": false
    },
    {
      "hash": "0x221ecad41add567eeb7d96434ef6a784aff408b4620c9426e4da0f1ce7b5fec5",
      "transactionType": "CALL",
      "contractName": null,
      "contractAddress": "0x70b52c6cdda7c6b881de77196edfdf5a704b55f2",
      "function": "approve(address,uint256)",
      "arguments": [
        "0xD384b9908baF9fD39Cf75A51A45102b4C19d953c",
        "1000000000"
      ],
      "transaction": {
        "from": "0xa55e7e6dcebd02ea56d2f268fa22a50c807d759f",
        "to": "0x70b52c6cdda7c6b881de77196edfdf5a704b55f2",
        "gas": "0xa03bc",
        "value": "0x0",
        "input": "0x095ea7b3000000000000000000000000d384b9908baf9fd39cf75a51a45102b4c19d953c000000000000000000000000000000000000000000000000000000003b9aca00",
        "nonce": "0x64",
        "chainId": "0x2b74"
      },
      "additionalContracts": [],
      "isFixedGasLimit": false
    },
    {
      "hash": "0x4369f8c635c27c0473c23870a4195406f502d20482e080602fe40b1ccdea59cf",
      "transactionType": "CALL",
      "contractName": null,
      "contractAddress": "0xd384b9908baf9fd39cf75a51a45102b4c19d953c",
      "function": "deposit(uint256,address,uint256)",
      "arguments": [
        "113720754091436548845938865822419147096105237861509221546363423289715574416457",
        "0x70b52c6cDDA7C6b881DE77196EdFDF5a704b55f2",
        "1000000000"
      ],
      "transaction": {
        "from": "0xa55e7e6dcebd02ea56d2f268fa22a50c807d759f",
        "to": "0xd384b9908baf9fd39cf75a51a45102b4c19d953c",
        "gas": "0x34f26",
        "value": "0x0",
        "input": "0xbc157ac1fb6baa755e2066441b7ccc1927affcad67f35bc74df43ca450ef556c9eefa44900000000000000000000000070b52c6cdda7c6b881de77196edfdf5a704b55f2000000000000000000000000000000000000000000000000000000003b9aca00",
        "nonce": "0x65",
        "chainId": "0x2b74"
      },
      "additionalContracts": [],
      "isFixedGasLimit": false
    }
  ],
  "receipts": [
    {
      "status": "0x1",
      "cumulativeGasUsed": "0x0",
      "logs": [
        {
          "address": "0x000000000000000000000000000000000000800a",
          "topics": [
            "0xddf252ad1be2c89b69c2b068fc378daa952ba7f163c4a11628f55a4df523b3ef",
            "0x000000000000000000000000a55e7e6dcebd02ea56d2f268fa22a50c807d759f",
            "0x0000000000000000000000000000000000000000000000000000000000008001"
          ],
          "data": "0x00000000000000000000000000000000000000000000000000000ca7eb7e6180",
          "blockHash": "0xb7067373790877a93ae332be1eb343d23c72bc08cff13ad00cae13524c4836f7",
          "blockNumber": "0xfd1215",
          "blockTimestamp": "0x6991ab87",
          "transactionHash": "0x94de7f563c931b79abca4f8c786bb5473f659cb937c989b19fcce84288030b3b",
          "transactionIndex": "0x0",
          "logIndex": "0x0",
          "removed": false
        },
        {
          "address": "0xd384b9908baf9fd39cf75a51a45102b4c19d953c",
          "topics": [
            "0x635597d427bb89928f8f4c67299e0a29167b75e80dc42c9b63072f9ed8de3373",
            "0x000000000000000000000000375e2a148102bf179ae7743a28a34cf959be9499"
          ],
          "data": "0x",
          "blockHash": "0xb7067373790877a93ae332be1eb343d23c72bc08cff13ad00cae13524c4836f7",
          "blockNumber": "0xfd1215",
          "blockTimestamp": "0x6991ab87",
          "transactionHash": "0x94de7f563c931b79abca4f8c786bb5473f659cb937c989b19fcce84288030b3b",
          "transactionIndex": "0x0",
          "logIndex": "0x1",
          "removed": false
        },
        {
          "address": "0x000000000000000000000000000000000000800a",
          "topics": [
            "0xddf252ad1be2c89b69c2b068fc378daa952ba7f163c4a11628f55a4df523b3ef",
            "0x0000000000000000000000000000000000000000000000000000000000008001",
            "0x000000000000000000000000a55e7e6dcebd02ea56d2f268fa22a50c807d759f"
          ],
          "data": "0x000000000000000000000000000000000000000000000000000008ca20b2ba40",
          "blockHash": "0xb7067373790877a93ae332be1eb343d23c72bc08cff13ad00cae13524c4836f7",
          "blockNumber": "0xfd1215",
          "blockTimestamp": "0x6991ab87",
          "transactionHash": "0x94de7f563c931b79abca4f8c786bb5473f659cb937c989b19fcce84288030b3b",
          "transactionIndex": "0x0",
          "logIndex": "0x2",
          "removed": false
        }
      ],
      "logsBloom": "0x00000000000400000000000000000000000000000000004000000001000000000000008000000000000000000000000000000000000000000000000000800000000000000000040000000008000000000000000000000000000000000000080000000000000000000000000002000000000000000000000004000010000000000000000000000000000004000000000000040000000000000000000000000000040000000000100000000000000000000080000000000000000000000000000000000002008000000000000000004000000000000000000000000000000000000000000000010000000001000000000000000000000000000000000000000000",
      "type": "0x0",
      "transactionHash": "0x94de7f563c931b79abca4f8c786bb5473f659cb937c989b19fcce84288030b3b",
      "transactionIndex": "0x0",
      "blockHash": "0xb7067373790877a93ae332be1eb343d23c72bc08cff13ad00cae13524c4836f7",
      "blockNumber": "0xfd1215",
      "gasUsed": "0x2983d",
      "effectiveGasPrice": "0x17d7840",
      "from": "0xa55e7e6dcebd02ea56d2f268fa22a50c807d759f",
      "to": "0xd384b9908baf9fd39cf75a51a45102b4c19d953c",
      "contractAddress": null,
      "l1BatchNumber": null,
      "l1BatchTxIndex": null,
      "l2ToL1Logs": []
    },
    {
      "status": "0x1",
      "cumulativeGasUsed": "0x0",
      "logs": [
        {
          "address": "0x000000000000000000000000000000000000800a",
          "topics": [
            "0xddf252ad1be2c89b69c2b068fc378daa952ba7f163c4a11628f55a4df523b3ef",
            "0x000000000000000000000000a55e7e6dcebd02ea56d2f268fa22a50c807d759f",
            "0x0000000000000000000000000000000000000000000000000000000000008001"
          ],
          "data": "0x00000000000000000000000000000000000000000000000000001d2261636f00",
          "blockHash": "0xcbbfc8a504157d4fa5f7327e28db2c85241cc8e14cd6d9d2632ff501daaa8f94",
          "blockNumber": "0xfd1216",
          "blockTimestamp": "0x6991ab89",
          "transactionHash": "0xefb916cea4d1b65d5756033043b5459810a9e30e122605de5531bb208281a3f6",
          "transactionIndex": "0x0",
          "logIndex": "0x0",
          "removed": false
        },
        {
          "address": "0xd384b9908baf9fd39cf75a51a45102b4c19d953c",
          "topics": [
            "0xf7b44c590ebdaf47d8d8765552f0c28b1d998703ab4d9e29aefbc1980d8ab8a4",
            "0x00000000000000000000000070b52c6cdda7c6b881de77196edfdf5a704b55f2"
          ],
          "data": "0x00000000000000000000000000000000000000000000000000000000000003e80000000000000000000000000000000000000000000000d8d726b7177a800000",
          "blockHash": "0xcbbfc8a504157d4fa5f7327e28db2c85241cc8e14cd6d9d2632ff501daaa8f94",
          "blockNumber": "0xfd1216",
          "blockTimestamp": "0x6991ab89",
          "transactionHash": "0xefb916cea4d1b65d5756033043b5459810a9e30e122605de5531bb208281a3f6",
          "transactionIndex": "0x0",
          "logIndex": "0x1",
          "removed": false
        },
        {
          "address": "0x000000000000000000000000000000000000800a",
          "topics": [
            "0xddf252ad1be2c89b69c2b068fc378daa952ba7f163c4a11628f55a4df523b3ef",
            "0x0000000000000000000000000000000000000000000000000000000000008001",
            "0x000000000000000000000000a55e7e6dcebd02ea56d2f268fa22a50c807d759f"
          ],
          "data": "0x000000000000000000000000000000000000000000000000000019292da2d680",
          "blockHash": "0xcbbfc8a504157d4fa5f7327e28db2c85241cc8e14cd6d9d2632ff501daaa8f94",
          "blockNumber": "0xfd1216",
          "blockTimestamp": "0x6991ab89",
          "transactionHash": "0xefb916cea4d1b65d5756033043b5459810a9e30e122605de5531bb208281a3f6",
          "transactionIndex": "0x0",
          "logIndex": "0x2",
          "removed": false
        }
      ],
      "logsBloom": "0x00000000000400000000000000000000000000000000004000000001000000000000000000000000080000000000000000000000000000000000000000800000000000000000040000000008000000000000000000000000000000000000080000000000000000000000000002000000010000000000000000000010000000000000000000000000000004000000000000040000000001000000000000000000040000000000100000000000000001000000000000000000000000004000000000000002008000000000000000000000000000000000000000000000000000000000000000000000000000000000000000000000000000040000000000000000",
      "type": "0x0",
      "transactionHash": "0xefb916cea4d1b65d5756033043b5459810a9e30e122605de5531bb208281a3f6",
      "transactionIndex": "0x0",
      "blockHash": "0xcbbfc8a504157d4fa5f7327e28db2c85241cc8e14cd6d9d2632ff501daaa8f94",
      "blockNumber": "0xfd1216",
      "gasUsed": "0x2aaa2",
      "effectiveGasPrice": "0x17d7840",
      "from": "0xa55e7e6dcebd02ea56d2f268fa22a50c807d759f",
      "to": "0xd384b9908baf9fd39cf75a51a45102b4c19d953c",
      "contractAddress": null,
      "l1BatchNumber": null,
      "l1BatchTxIndex": null,
      "l2ToL1Logs": []
    },
    {
      "status": "0x1",
      "cumulativeGasUsed": "0x0",
      "logs": [
        {
          "address": "0x000000000000000000000000000000000000800a",
          "topics": [
            "0xddf252ad1be2c89b69c2b068fc378daa952ba7f163c4a11628f55a4df523b3ef",
            "0x000000000000000000000000a55e7e6dcebd02ea56d2f268fa22a50c807d759f",
            "0x0000000000000000000000000000000000000000000000000000000000008001"
          ],
          "data": "0x0000000000000000000000000000000000000000000000000000102f8c19ac00",
          "blockHash": "0x6c5e718473a4aef6acf4f794f78116f9c2d65330c09387bd6e15484da695e268",
          "blockNumber": "0xfd1217",
          "blockTimestamp": "0x6991ab8a",
          "transactionHash": "0x32673002b2ca165196398bbeaffd3cea0824ae69fcb82110c15971c0141f755f",
          "transactionIndex": "0x0",
          "logIndex": "0x0",
          "removed": false
        },
        {
          "address": "0xd384b9908baf9fd39cf75a51a45102b4c19d953c",
          "topics": [
            "0x329bcb4e5cb7d1fa89c2b4f4d1b07d8d25cd7f6f93f5f27047755895b0dad462",
            "0x00000000000000000000000070b52c6cdda7c6b881de77196edfdf5a704b55f2"
          ],
          "data": "0x0000000000000000000000000000000000000000000000000000000005f5e100",
          "blockHash": "0x6c5e718473a4aef6acf4f794f78116f9c2d65330c09387bd6e15484da695e268",
          "blockNumber": "0xfd1217",
          "blockTimestamp": "0x6991ab8a",
          "transactionHash": "0x32673002b2ca165196398bbeaffd3cea0824ae69fcb82110c15971c0141f755f",
          "transactionIndex": "0x0",
          "logIndex": "0x1",
          "removed": false
        },
        {
          "address": "0x000000000000000000000000000000000000800a",
          "topics": [
            "0xddf252ad1be2c89b69c2b068fc378daa952ba7f163c4a11628f55a4df523b3ef",
            "0x0000000000000000000000000000000000000000000000000000000000008001",
            "0x000000000000000000000000a55e7e6dcebd02ea56d2f268fa22a50c807d759f"
          ],
          "data": "0x00000000000000000000000000000000000000000000000000000d39c3d7d980",
          "blockHash": "0x6c5e718473a4aef6acf4f794f78116f9c2d65330c09387bd6e15484da695e268",
          "blockNumber": "0xfd1217",
          "blockTimestamp": "0x6991ab8a",
          "transactionHash": "0x32673002b2ca165196398bbeaffd3cea0824ae69fcb82110c15971c0141f755f",
          "transactionIndex": "0x0",
          "logIndex": "0x2",
          "removed": false
        }
      ],
      "logsBloom": "0x00000000000400200000000000000000000000000000004000000001000000000000000000000000080000000000000000000000000000000000000000800000000000000000040000000008000000000000000000080000000000000000080080000000000000000000000002000000010000000000000000000010000000000000000000000000000004000000000000040000000000000000000000000000040000000000100000000000000000000000000000000000000000004000000000000002008000000000000000000000000000000000000000000000000000000000000000000000000000000000000000000000000000000000000000000000",
      "type": "0x0",
      "transactionHash": "0x32673002b2ca165196398bbeaffd3cea0824ae69fcb82110c15971c0141f755f",
      "transactionIndex": "0x0",
      "blockHash": "0x6c5e718473a4aef6acf4f794f78116f9c2d65330c09387bd6e15484da695e268",
      "blockNumber": "0xfd1217",
      "gasUsed": "0x1fc8a",
      "effectiveGasPrice": "0x17d7840",
      "from": "0xa55e7e6dcebd02ea56d2f268fa22a50c807d759f",
      "to": "0xd384b9908baf9fd39cf75a51a45102b4c19d953c",
      "contractAddress": null,
      "l1BatchNumber": null,
      "l1BatchTxIndex": null,
      "l2ToL1Logs": []
    },
    {
      "status": "0x1",
      "cumulativeGasUsed": "0x0",
      "logs": [
        {
          "address": "0x000000000000000000000000000000000000800a",
          "topics": [
            "0xddf252ad1be2c89b69c2b068fc378daa952ba7f163c4a11628f55a4df523b3ef",
            "0x000000000000000000000000a55e7e6dcebd02ea56d2f268fa22a50c807d759f",
            "0x0000000000000000000000000000000000000000000000000000000000008001"
          ],
          "data": "0x00000000000000000000000000000000000000000000000000001403614e9f80",
          "blockHash": "0x5457e98e811bb95eec509632543b109953e105c120b0cb029b76731db7178cb9",
          "blockNumber": "0xfd1218",
          "blockTimestamp": "0x6991ab8c",
          "transactionHash": "0x390be92ef1b074db181376e8430e4cdb4f3bbe32825dfaa81f66e3d111d7011b",
          "transactionIndex": "0x0",
          "logIndex": "0x0",
          "removed": false
        },
        {
          "address": "0xd384b9908baf9fd39cf75a51a45102b4c19d953c",
          "topics": [
            "0x8c1ec1ba18731ac19ff6089bc9470a71fb6b885ee0c64e8415e2599a41e55019",
            "0xfb6baa755e2066441b7ccc1927affcad67f35bc74df43ca450ef556c9eefa449",
            "0x000000000000000000000000a55e7e6dcebd02ea56d2f268fa22a50c807d759f",
            "0x00000000000000000000000070b52c6cdda7c6b881de77196edfdf5a704b55f2"
          ],
          "data": "0x000000000000000000000000000000000000000000000000000000000000002000000000000000000000000000000000000000000000000000000000000000687b2276657273696f6e223a312c226e616d65223a2243544d222c226465736372697074696f6e223a2243544d222c22656d61696c223a22636f6e74696e75756d64616f4070726f746f6e2e6d65222c2275726c223a22636f6e74696e75756d64616f2e6f7267227d000000000000000000000000000000000000000000000000",
          "blockHash": "0x5457e98e811bb95eec509632543b109953e105c120b0cb029b76731db7178cb9",
          "blockNumber": "0xfd1218",
          "blockTimestamp": "0x6991ab8c",
          "transactionHash": "0x390be92ef1b074db181376e8430e4cdb4f3bbe32825dfaa81f66e3d111d7011b",
          "transactionIndex": "0x0",
          "logIndex": "0x1",
          "removed": false
        },
        {
          "address": "0x000000000000000000000000000000000000800a",
          "topics": [
            "0xddf252ad1be2c89b69c2b068fc378daa952ba7f163c4a11628f55a4df523b3ef",
            "0x0000000000000000000000000000000000000000000000000000000000008001",
            "0x000000000000000000000000a55e7e6dcebd02ea56d2f268fa22a50c807d759f"
          ],
          "data": "0x00000000000000000000000000000000000000000000000000000e1cbbf0e5c0",
          "blockHash": "0x5457e98e811bb95eec509632543b109953e105c120b0cb029b76731db7178cb9",
          "blockNumber": "0xfd1218",
          "blockTimestamp": "0x6991ab8c",
          "transactionHash": "0x390be92ef1b074db181376e8430e4cdb4f3bbe32825dfaa81f66e3d111d7011b",
          "transactionIndex": "0x0",
          "logIndex": "0x2",
          "removed": false
        }
      ],
      "logsBloom": "0x00000000000400000000800000000000000000000000004000000001000000000000000002000000080000000000000000000000000000000000000000800000000000000000040000000008000000000000000000000000000000000000080000100000000000000000000002000400010000000000000000000010000000000000000000000000000004000000000000040000000000000000000000000001040000000000100000000000000000000000000000000000000000004000000000000002008000000000000000000000000000000000000000000000000000000000040000000000000000000000000000000000000000000000000000000000",
      "type": "0x0",
      "transactionHash": "0x390be92ef1b074db181376e8430e4cdb4f3bbe32825dfaa81f66e3d111d7011b",
      "transactionIndex": "0x0",
      "blockHash": "0x5457e98e811bb95eec509632543b109953e105c120b0cb029b76731db7178cb9",
      "blockNumber": "0xfd1218",
      "gasUsed": "0x3f5c7",
      "effectiveGasPrice": "0x17d7840",
      "from": "0xa55e7e6dcebd02ea56d2f268fa22a50c807d759f",
      "to": "0xd384b9908baf9fd39cf75a51a45102b4c19d953c",
      "contractAddress": null,
      "l1BatchNumber": null,
      "l1BatchTxIndex": null,
      "l2ToL1Logs": []
    },
    {
      "status": "0x1",
      "cumulativeGasUsed": "0x0",
      "logs": [
        {
          "address": "0x000000000000000000000000000000000000800a",
          "topics": [
            "0xddf252ad1be2c89b69c2b068fc378daa952ba7f163c4a11628f55a4df523b3ef",
            "0x000000000000000000000000a55e7e6dcebd02ea56d2f268fa22a50c807d759f",
            "0x0000000000000000000000000000000000000000000000000000000000008001"
          ],
          "data": "0x00000000000000000000000000000000000000000000000000000eec430d0f00",
          "blockHash": "0x93dc15eb8c9acad911775194d6e0bdb22c0f4e19327d799df6a81f995fc43d7c",
          "blockNumber": "0xfd1219",
          "blockTimestamp": "0x6991ab8e",
          "transactionHash": "0x221ecad41add567eeb7d96434ef6a784aff408b4620c9426e4da0f1ce7b5fec5",
          "transactionIndex": "0x0",
          "logIndex": "0x0",
          "removed": false
        },
        {
          "address": "0x70b52c6cdda7c6b881de77196edfdf5a704b55f2",
          "topics": [
            "0x8c5be1e5ebec7d5bd14f71427d1e84f3dd0314c0f7b2291e5b200ac8c7c3b925",
            "0x000000000000000000000000a55e7e6dcebd02ea56d2f268fa22a50c807d759f",
            "0x000000000000000000000000d384b9908baf9fd39cf75a51a45102b4c19d953c"
          ],
          "data": "0x000000000000000000000000000000000000000000000000000000003b9aca00",
          "blockHash": "0x93dc15eb8c9acad911775194d6e0bdb22c0f4e19327d799df6a81f995fc43d7c",
          "blockNumber": "0xfd1219",
          "blockTimestamp": "0x6991ab8e",
          "transactionHash": "0x221ecad41add567eeb7d96434ef6a784aff408b4620c9426e4da0f1ce7b5fec5",
          "transactionIndex": "0x0",
          "logIndex": "0x1",
          "removed": false
        },
        {
          "address": "0x000000000000000000000000000000000000800a",
          "topics": [
            "0xddf252ad1be2c89b69c2b068fc378daa952ba7f163c4a11628f55a4df523b3ef",
            "0x0000000000000000000000000000000000000000000000000000000000008001",
            "0x000000000000000000000000a55e7e6dcebd02ea56d2f268fa22a50c807d759f"
          ],
          "data": "0x00000000000000000000000000000000000000000000000000000c2a77055d40",
          "blockHash": "0x93dc15eb8c9acad911775194d6e0bdb22c0f4e19327d799df6a81f995fc43d7c",
          "blockNumber": "0xfd1219",
          "blockTimestamp": "0x6991ab8e",
          "transactionHash": "0x221ecad41add567eeb7d96434ef6a784aff408b4620c9426e4da0f1ce7b5fec5",
          "transactionIndex": "0x0",
          "logIndex": "0x2",
          "removed": false
        }
      ],
      "logsBloom": "0x00000000000400000000000000000000000000000000004000000001000000000000000000000000000000000000000000000000000020000000010000200000000000000000040000000008000000000000000000000000000000000000080000000000000000000000000002000000000000000000000000000010000000000000000000000000000004000000000000000000000400000000000000000040020000000000100000000000000000000000000000000000000000000000000000000002008000000000000000000000000000000000000000000000000000000010000000000000000000000000000000004000000000000000000000400000",
      "type": "0x0",
      "transactionHash": "0x221ecad41add567eeb7d96434ef6a784aff408b4620c9426e4da0f1ce7b5fec5",
      "transactionIndex": "0x0",
      "blockHash": "0x93dc15eb8c9acad911775194d6e0bdb22c0f4e19327d799df6a81f995fc43d7c",
      "blockNumber": "0xfd1219",
      "gasUsed": "0x1d9a7",
      "effectiveGasPrice": "0x17d7840",
      "from": "0xa55e7e6dcebd02ea56d2f268fa22a50c807d759f",
      "to": "0x70b52c6cdda7c6b881de77196edfdf5a704b55f2",
      "contractAddress": null,
      "l1BatchNumber": null,
      "l1BatchTxIndex": null,
      "l2ToL1Logs": []
    },
    {
      "status": "0x1",
      "cumulativeGasUsed": "0x0",
      "logs": [
        {
          "address": "0x000000000000000000000000000000000000800a",
          "topics": [
            "0xddf252ad1be2c89b69c2b068fc378daa952ba7f163c4a11628f55a4df523b3ef",
            "0x000000000000000000000000a55e7e6dcebd02ea56d2f268fa22a50c807d759f",
            "0x0000000000000000000000000000000000000000000000000000000000008001"
          ],
          "data": "0x00000000000000000000000000000000000000000000000000001fa280703400",
          "blockHash": "0xecb45f5d4037837ab9274cc8d39d8441d438d1ba7d51a1216e12f065f94f6b01",
          "blockNumber": "0xfd121a",
          "blockTimestamp": "0x6991ab90",
          "transactionHash": "0x4369f8c635c27c0473c23870a4195406f502d20482e080602fe40b1ccdea59cf",
          "transactionIndex": "0x0",
          "logIndex": "0x0",
          "removed": false
        },
        {
          "address": "0x70b52c6cdda7c6b881de77196edfdf5a704b55f2",
          "topics": [
            "0xddf252ad1be2c89b69c2b068fc378daa952ba7f163c4a11628f55a4df523b3ef",
            "0x000000000000000000000000a55e7e6dcebd02ea56d2f268fa22a50c807d759f",
            "0x000000000000000000000000d384b9908baf9fd39cf75a51a45102b4c19d953c"
          ],
          "data": "0x000000000000000000000000000000000000000000000000000000003b9aca00",
          "blockHash": "0xecb45f5d4037837ab9274cc8d39d8441d438d1ba7d51a1216e12f065f94f6b01",
          "blockNumber": "0xfd121a",
          "blockTimestamp": "0x6991ab90",
          "transactionHash": "0x4369f8c635c27c0473c23870a4195406f502d20482e080602fe40b1ccdea59cf",
          "transactionIndex": "0x0",
          "logIndex": "0x1",
          "removed": false
        },
        {
          "address": "0xd384b9908baf9fd39cf75a51a45102b4c19d953c",
          "topics": [
            "0xd36a2f67d06d285786f61a32b052b9ace6b0b7abef5177b54358abdc83a0b69b",
            "0xfb6baa755e2066441b7ccc1927affcad67f35bc74df43ca450ef556c9eefa449",
            "0x00000000000000000000000070b52c6cdda7c6b881de77196edfdf5a704b55f2"
          ],
          "data": "0x000000000000000000000000000000000000000000000000000000003b9aca00000000000000000000000000000000000000000000000000000000003b9aca00",
          "blockHash": "0xecb45f5d4037837ab9274cc8d39d8441d438d1ba7d51a1216e12f065f94f6b01",
          "blockNumber": "0xfd121a",
          "blockTimestamp": "0x6991ab90",
          "transactionHash": "0x4369f8c635c27c0473c23870a4195406f502d20482e080602fe40b1ccdea59cf",
          "transactionIndex": "0x0",
          "logIndex": "0x2",
          "removed": false
        },
        {
          "address": "0x000000000000000000000000000000000000800a",
          "topics": [
            "0xddf252ad1be2c89b69c2b068fc378daa952ba7f163c4a11628f55a4df523b3ef",
            "0x0000000000000000000000000000000000000000000000000000000000008001",
            "0x000000000000000000000000a55e7e6dcebd02ea56d2f268fa22a50c807d759f"
          ],
          "data": "0x000000000000000000000000000000000000000000000000000018d3face7340",
          "blockHash": "0xecb45f5d4037837ab9274cc8d39d8441d438d1ba7d51a1216e12f065f94f6b01",
          "blockNumber": "0xfd121a",
          "blockTimestamp": "0x6991ab90",
          "transactionHash": "0x4369f8c635c27c0473c23870a4195406f502d20482e080602fe40b1ccdea59cf",
          "transactionIndex": "0x0",
          "logIndex": "0x3",
          "removed": false
        }
      ],
      "logsBloom": "0x00000000000400000000800000000000000000000000004000000001000000000000000000000000080000000000000000000000000020000000010000800000000000000000040000000008000000000000000000000000000000000000080000100000000000000000000002000400010000000000000000000010000000000000000000000000000004000000000000040000000400000000000000000040040000000000100000000000000000000000000000000000000000004000000000000002008000000000000000000000000008000000000100000000000000000000000000000000000000000000000000004000000000000000800000400000",
      "type": "0x0",
      "transactionHash": "0x4369f8c635c27c0473c23870a4195406f502d20482e080602fe40b1ccdea59cf",
      "transactionIndex": "0x0",
      "blockHash": "0xecb45f5d4037837ab9274cc8d39d8441d438d1ba7d51a1216e12f065f94f6b01",
      "blockNumber": "0xfd121a",
      "gasUsed": "0x49163",
      "effectiveGasPrice": "0x17d7840",
      "from": "0xa55e7e6dcebd02ea56d2f268fa22a50c807d759f",
      "to": "0xd384b9908baf9fd39cf75a51a45102b4c19d953c",
      "contractAddress": null,
      "l1BatchNumber": null,
      "l1BatchTxIndex": null,
      "l2ToL1Logs": []
    }
  ],
  "libraries": [],
  "pending": [],
  "returns": {},
  "timestamp": 1771154322820,
  "chain": 11124,
  "commit": "d786b9f"
}