{
  "transactions": [
    {
      "hash": "0xb3261c33b0a9133617ae630e9ab86261867483f98506fa48436e29aa4e2f0cad",
      "transactionType": "CALL",
      "contractName": null,
      "contractAddress": "0xd384b9908baf9fd39cf75a51a45102b4c19d953c",
      "function": "setFeeConfig(address,uint256,uint256)",
      "arguments": [
        "0x375E2A148102bF179AE7743A28A34cF959bE9499",
        "1000",
        "1000000000000000000"
      ],
      "transaction": {
        "from": "0xa55e7e6dcebd02ea56d2f268fa22a50c807d759f",
        "to": "0xd384b9908baf9fd39cf75a51a45102b4c19d953c",
        "gas": "0x1cd7d",
        "value": "0x0",
        "input": "0x236fcdac000000000000000000000000375e2a148102bf179ae7743a28a34cf959be949900000000000000000000000000000000000000000000000000000000000003e80000000000000000000000000000000000000000000000000de0b6b3a7640000",
        "nonce": "0x6",
        "chainId": "0x13882"
      },
      "additionalContracts": [],
      "isFixedGasLimit": false
    },
    {
      "hash": "0x72be7ddee80c5068f82c43d1c7031d7fc3959e36eeaafe6d4c252d74ed8fc11d",
      "transactionType": "CALL",
      "contractName": null,
      "contractAddress": "0xd384b9908baf9fd39cf75a51a45102b4c19d953c",
      "function": "initDAppConfig(string,address,string)",
      "arguments": [
        "v1.ctm.continuumdao",
        "0x375E2A148102bF179AE7743A28A34cF959bE9499",
        "{\\\"version\\\":1,\\\"name\\\":\\\"CTM\\\",\\\"description\\\":\\\"CTM\\\",\\\"email\\\":\\\"continuumdao@proton.me\\\",\\\"url\\\":\\\"continuumdao.org\\\"}"
      ],
      "transaction": {
        "from": "0xa55e7e6dcebd02ea56d2f268fa22a50c807d759f",
        "to": "0xd384b9908baf9fd39cf75a51a45102b4c19d953c",
        "gas": "0x601cc",
        "value": "0x0",
        "input": "0x4152ded30000000000000000000000000000000000000000000000000000000000000060000000000000000000000000375e2a148102bf179ae7743a28a34cf959be949900000000000000000000000000000000000000000000000000000000000000a0000000000000000000000000000000000000000000000000000000000000001376312e63746d2e636f6e74696e75756d64616f0000000000000000000000000000000000000000000000000000000000000000000000000000000000000000687b2276657273696f6e223a312c226e616d65223a2243544d222c226465736372697074696f6e223a2243544d222c22656d61696c223a22636f6e74696e75756d64616f4070726f746f6e2e6d65222c2275726c223a22636f6e74696e75756d64616f2e6f7267227d000000000000000000000000000000000000000000000000",
        "nonce": "0x7",
        "chainId": "0x13882"
      },
      "additionalContracts": [],
      "isFixedGasLimit": false
    }
  ],
  "receipts": [
    {
      "status": "0x1",
      "cumulativeGasUsed": "0x169f4",
      "logs": [
        {
          "address": "0xd384b9908baf9fd39cf75a51a45102b4c19d953c",
          "topics": [
            "0xf7b44c590ebdaf47d8d8765552f0c28b1d998703ab4d9e29aefbc1980d8ab8a4",
            "0x000000000000000000000000375e2a148102bf179ae7743a28a34cf959be9499"
          ],
          "data": "0x00000000000000000000000000000000000000000000000000000000000003e80000000000000000000000000000000000000000000000000de0b6b3a7640000",
          "blockHash": "0xb8033886de017cbc7c2d325edfa9bbdef4ee4300627a55685373c8d140bb0f89",
          "blockNumber": "0x1fe38d7",
          "blockTimestamp": "0x6987db77",
          "transactionHash": "0xb3261c33b0a9133617ae630e9ab86261867483f98506fa48436e29aa4e2f0cad",
          "transactionIndex": "0x0",
          "logIndex": "0x0",
          "removed": false
        },
        {
          "address": "0x0000000000000000000000000000000000001010",
          "topics": [
            "0x4dfe1bbbcf077ddc3e01291eea2d5c70c2b422b415d95645b9adcfd678cb1d63",
            "0x0000000000000000000000000000000000000000000000000000000000001010",
            "0x000000000000000000000000a55e7e6dcebd02ea56d2f268fa22a50c807d759f",
            "0x0000000000000000000000007ee41d8a25641000661b1ef5e6ae8a00400466b0"
          ],
          "data": "0x0000000000000000000000000000000000000000000000000019ad5ad2057000000000000000000000000000000000000000000000000002b300fa10a59cb567000000000000000000000000000000000000000000001dc933dc262516497547000000000000000000000000000000000000000000000002b2e74cb5d3974567000000000000000000000000000000000000000000001dc933f5d37fe84ee547",
          "blockHash": "0xb8033886de017cbc7c2d325edfa9bbdef4ee4300627a55685373c8d140bb0f89",
          "blockNumber": "0x1fe38d7",
          "blockTimestamp": "0x6987db77",
          "transactionHash": "0xb3261c33b0a9133617ae630e9ab86261867483f98506fa48436e29aa4e2f0cad",
          "transactionIndex": "0x0",
          "logIndex": "0x1",
          "removed": false
        }
      ],
      "logsBloom": "0x00000000000000000000000000000000000000000000004000000001000000000000000000000000000000000000000000008000000000000000000000800000000000000000000000000000000000800000000000000000000100000000000000000000000000000000000002000000000000000000000084000000000000000000000000000000020000000400000000040000000001000000000000000000240000000000000000000000000001000080000000000000000000000000004000000000000000000001000000004000000000400000000000100000000000000000000000000000000000000000000000000000000000040000000000100000",
      "type": "0x2",
      "transactionHash": "0xb3261c33b0a9133617ae630e9ab86261867483f98506fa48436e29aa4e2f0cad",
      "transactionIndex": "0x0",
      "blockHash": "0xb8033886de017cbc7c2d325edfa9bbdef4ee4300627a55685373c8d140bb0f89",
      "blockNumber": "0x1fe38d7",
      "gasUsed": "0x169f4",
      "effectiveGasPrice": "0x1229298c3f",
      "from": "0xa55e7e6dcebd02ea56d2f268fa22a50c807d759f",
      "to": "0xd384b9908baf9fd39cf75a51a45102b4c19d953c",
      "contractAddress": null
    },
    {
      "status": "0x1",
      "cumulativeGasUsed": "0x4b61f",
      "logs": [
        {
          "address": "0x375e2a148102bf179ae7743a28a34cf959be9499",
          "topics": [
            "0xddf252ad1be2c89b69c2b068fc378daa952ba7f163c4a11628f55a4df523b3ef",
            "0x000000000000000000000000a55e7e6dcebd02ea56d2f268fa22a50c807d759f",
            "0x000000000000000000000000d384b9908baf9fd39cf75a51a45102b4c19d953c"
          ],
          "data": "0x0000000000000000000000000000000000000000000000000000000000000000",
          "blockHash": "0x77ce96c366340a5687aa2088a080b788f2c4fc7fed14752bd53feee5a67d660f",
          "blockNumber": "0x1fe38d9",
          "blockTimestamp": "0x6987db7b",
          "transactionHash": "0x72be7ddee80c5068f82c43d1c7031d7fc3959e36eeaafe6d4c252d74ed8fc11d",
          "transactionIndex": "0x0",
          "logIndex": "0x0",
          "removed": false
        },
        {
          "address": "0xd384b9908baf9fd39cf75a51a45102b4c19d953c",
          "topics": [
            "0xd36a2f67d06d285786f61a32b052b9ace6b0b7abef5177b54358abdc83a0b69b",
            "0xfb6baa755e2066441b7ccc1927affcad67f35bc74df43ca450ef556c9eefa449",
            "0x000000000000000000000000375e2a148102bf179ae7743a28a34cf959be9499"
          ],
          "data": "0x00000000000000000000000000000000000000000000000000000000000000000000000000000000000000000000000000000000000000000000000000000000",
          "blockHash": "0x77ce96c366340a5687aa2088a080b788f2c4fc7fed14752bd53feee5a67d660f",
          "blockNumber": "0x1fe38d9",
          "blockTimestamp": "0x6987db7b",
          "transactionHash": "0x72be7ddee80c5068f82c43d1c7031d7fc3959e36eeaafe6d4c252d74ed8fc11d",
          "transactionIndex": "0x0",
          "logIndex": "0x1",
          "removed": false
        },
        {
          "address": "0xd384b9908baf9fd39cf75a51a45102b4c19d953c",
          "topics": [
            "0x4564145733c9ac3a0429b20c860daa8d883061806177bd8b13930c6899968f38",
            "0xfb6baa755e2066441b7ccc1927affcad67f35bc74df43ca450ef556c9eefa449",
            "0x000000000000000000000000a55e7e6dcebd02ea56d2f268fa22a50c807d759f",
            "0x000000000000000000000000375e2a148102bf179ae7743a28a34cf959be9499"
          ],
          "data": "0x00000000000000000000000000000000000000000000000000000000000000400000000000000000000000000000000000000000000000000000000000000080000000000000000000000000000000000000000000000000000000000000001376312e63746d2e636f6e74696e75756d64616f0000000000000000000000000000000000000000000000000000000000000000000000000000000000000000687b2276657273696f6e223a312c226e616d65223a2243544d222c226465736372697074696f6e223a2243544d222c22656d61696c223a22636f6e74696e75756d64616f4070726f746f6e2e6d65222c2275726c223a22636f6e74696e75756d64616f2e6f7267227d000000000000000000000000000000000000000000000000",
          "blockHash": "0x77ce96c366340a5687aa2088a080b788f2c4fc7fed14752bd53feee5a67d660f",
          "blockNumber": "0x1fe38d9",
          "blockTimestamp": "0x6987db7b",
          "transactionHash": "0x72be7ddee80c5068f82c43d1c7031d7fc3959e36eeaafe6d4c252d74ed8fc11d",
          "transactionIndex": "0x0",
          "logIndex": "0x2",
          "removed": false
        },
        {
          "address": "0x0000000000000000000000000000000000001010",
          "topics": [
            "0x4dfe1bbbcf077ddc3e01291eea2d5c70c2b422b415d95645b9adcfd678cb1d63",
            "0x0000000000000000000000000000000000000000000000000000000000001010",
            "0x000000000000000000000000a55e7e6dcebd02ea56d2f268fa22a50c807d759f",
            "0x0000000000000000000000007ee41d8a25641000661b1ef5e6ae8a00400466b0"
          ],
          "data": "0x0000000000000000000000000000000000000000000000000055901cb58ff400000000000000000000000000000000000000000000000002b2e74cb5d33e325b000000000000000000000000000000000000000000001dc93410220da1785d05000000000000000000000000000000000000000000000002b291bc991dae3e5b000000000000000000000000000000000000000000001dc93465b22a57085105",
          "blockHash": "0x77ce96c366340a5687aa2088a080b788f2c4fc7fed14752bd53feee5a67d660f",
          "blockNumber": "0x1fe38d9",
          "blockTimestamp": "0x6987db7b",
          "transactionHash": "0x72be7ddee80c5068f82c43d1c7031d7fc3959e36eeaafe6d4c252d74ed8fc11d",
          "transactionIndex": "0x0",
          "logIndex": "0x3",
          "removed": false
        }
      ],
      "logsBloom": "0x0000000000000000000080000000100000000000080000400000000100000000000000000000000000000000000000000000a000000000000000000000800000000000002000000000000008000000800000000000000000000100000000040000100000000000000000000002000400000000010000000084000010000000000000000000000000020000000400000000040000000400000000000000000000240000000000000000000000000000000080000000000000000000000000004000000002000000000001000000004000000008400000000100100000000000000000000000000000000000000000000000004000000000000000800000500000",
      "type": "0x2",
      "transactionHash": "0x72be7ddee80c5068f82c43d1c7031d7fc3959e36eeaafe6d4c252d74ed8fc11d",
      "transactionIndex": "0x0",
      "blockHash": "0x77ce96c366340a5687aa2088a080b788f2c4fc7fed14752bd53feee5a67d660f",
      "blockNumber": "0x1fe38d9",
      "gasUsed": "0x4b61f",
      "effectiveGasPrice": "0x1229298c3f",
      "from": "0xa55e7e6dcebd02ea56d2f268fa22a50c807d759f",
      "to": "0xd384b9908baf9fd39cf75a51a45102b4c19d953c",
      "contractAddress": null
    }
  ],
  "libraries": [],
  "pending": [],
  "returns": {},
  "timestamp": 1770511227388,
  "chain": 80002,
  "commit": "d786b9f"
}