{
  "transactions": [
    {
      "hash": "0xd38826037f57c949b06aafb380f2a1402337f20b69a1f3abf2decbdb6421364d",
      "transactionType": "CALL",
      "contractName": null,
      "contractAddress": "0xd384b9908baf9fd39cf75a51a45102b4c19d953c",
      "function": "removeFeeConfig(address)",
      "arguments": [
        "0x375E2A148102bF179AE7743A28A34cF959bE9499"
      ],
      "transaction": {
        "from": "0xa55e7e6dcebd02ea56d2f268fa22a50c807d759f",
        "to": "0xd384b9908baf9fd39cf75a51a45102b4c19d953c",
        "gas": "0xff5c",
        "value": "0x0",
        "input": "0xfd1e33d5000000000000000000000000375e2a148102bf179ae7743a28a34cf959be9499",
        "nonce": "0x60",
        "chainId": "0xaa37dc"
      },
      "additionalContracts": [],
      "isFixedGasLimit": false
    },
    {
      "hash": "0xef372098a31f3cf7ec37193e44675a37e125e855d3a9fbf72c89959373223b3a",
      "transactionType": "CALL",
      "contractName": null,
      "contractAddress": "0xd384b9908baf9fd39cf75a51a45102b4c19d953c",
      "function": "setFeeConfig(address,uint256,uint256)",
      "arguments": [
        "0x70b52c6cDDA7C6b881DE77196EdFDF5a704b55f2",
        "1000",
        "4000000000000000000000"
      ],
      "transaction": {
        "from": "0xa55e7e6dcebd02ea56d2f268fa22a50c807d759f",
        "to": "0xd384b9908baf9fd39cf75a51a45102b4c19d953c",
        "gas": "0x30140",
        "value": "0x0",
        "input": "0x236fcdac00000000000000000000000070b52c6cdda7c6b881de77196edfdf5a704b55f200000000000000000000000000000000000000000000000000000000000003e80000000000000000000000000000000000000000000000d8d726b7177a800000",
        "nonce": "0x61",
        "chainId": "0xaa37dc"
      },
      "additionalContracts": [],
      "isFixedGasLimit": false
    },
    {
      "hash": "0xb8d28a517831057638ebe95d92f5a5d98f195b3d1fe24d3e6711e4a4e241c627",
      "transactionType": "CALL",
      "contractName": null,
      "contractAddress": "0xd384b9908baf9fd39cf75a51a45102b4c19d953c",
      "function": "setFeeMinimumDeposit(address,uint256)",
      "arguments": [
        "0x70b52c6cDDA7C6b881DE77196EdFDF5a704b55f2",
        "100000000"
      ],
      "transaction": {
        "from": "0xa55e7e6dcebd02ea56d2f268fa22a50c807d759f",
        "to": "0xd384b9908baf9fd39cf75a51a45102b4c19d953c",
        "gas": "0x19fee",
        "value": "0x0",
        "input": "0x2edcab0200000000000000000000000070b52c6cdda7c6b881de77196edfdf5a704b55f20000000000000000000000000000000000000000000000000000000005f5e100",
        "nonce": "0x62",
        "chainId": "0xaa37dc"
      },
      "additionalContracts": [],
      "isFixedGasLimit": false
    },
    {
      "hash": "0xd78b739e25f729aaaa4e7c1609e52f307e29d15bd482d49f8fac95b561b3a080",
      "transactionType": "CALL",
      "contractName": null,
      "contractAddress": "0xd384b9908baf9fd39cf75a51a45102b4c19d953c",
      "function": "updateDAppConfig(uint256,address,address,string)",
      "arguments": [
        "113720754091436548845938865822419147096105237861509221546363423289715574416457",
        "0xa55E7E6dCEBD02eA56d2f268fA22A50C807D759f",
        "0x70b52c6cDDA7C6b881DE77196EdFDF5a704b55f2",
        "{\\\"version\\\":1,\\\"name\\\":\\\"CTM\\\",\\\"description\\\":\\\"CTM\\\",\\\"email\\\":\\\"continuumdao@proton.me\\\",\\\"url\\\":\\\"continuumdao.org\\\"}"
      ],
      "transaction": {
        "from": "0xa55e7e6dcebd02ea56d2f268fa22a50c807d759f",
        "to": "0xd384b9908baf9fd39cf75a51a45102b4c19d953c",
        "gas": "0x21df8",
        "value": "0x0",
        "input": "0x825d065ffb6baa755e2066441b7ccc1927affcad67f35bc74df43ca450ef556c9eefa449000000000000000000000000a55e7e6dcebd02ea56d2f268fa22a50c807d759f00000000000000000000000070b52c6cdda7c6b881de77196edfdf5a704b55f2000000000000000000000000000000000000000000000000000000000000008000000000000000000000000000000000000000000000000000000000000000687b2276657273696f6e223a312c226e616d65223a2243544d222c226465736372697074696f6e223a2243544d222c22656d61696c223a22636f6e74696e75756d64616f4070726f746f6e2e6d65222c2275726c223a22636f6e74696e75756d64616f2e6f7267227d000000000000000000000000000000000000000000000000",
        "nonce": "0x63",
        "chainId": "0xaa37dc"
      },
      "additionalContracts": [],
      "isFixedGasLimit": false
    },
    {
      "hash": "0x14a6ee480d2ca5d4027b357821ca566fe36cd9a67e8634ed71fb929b27b60b09",
      "transactionType": "CALL",
      "contractName": null,
      "contractAddress": "0x70b52c6cdda7c6b881de77196edfdf5a704b55f2",
      "function": "approve(address,uint256)",
      "arguments": [
        "0xD384b9908baF9fD39Cf75A51A45102b4C19d953c",
        "1000000000"
      ],
      "transaction": {
        "from": "0xa55e7e6dcebd02ea56d2f268fa22a50c807d759f",
        "to": "0x70b52c6cdda7c6b881de77196edfdf5a704b55f2",
        "gas": "0x1939a",
        "value": "0x0",
        "input": "0x095ea7b3000000000000000000000000d384b9908baf9fd39cf75a51a45102b4c19d953c000000000000000000000000000000000000000000000000000000003b9aca00",
        "nonce": "0x64",
        "chainId": "0xaa37dc"
      },
      "additionalContracts": [],
      "isFixedGasLimit": false
    },
    {
      "hash": "0xe1938819f08db7fa360acaa9483c07c50f69513d7b31851b9424b6677699a4c0",
      "transactionType": "CALL",
      "contractName": null,
      "contractAddress": "0xd384b9908baf9fd39cf75a51a45102b4c19d953c",
      "function": "deposit(uint256,address,uint256)",
      "arguments": [
        "113720754091436548845938865822419147096105237861509221546363423289715574416457",
        "0x70b52c6cDDA7C6b881DE77196EdFDF5a704b55f2",
        "1000000000"
      ],
      "transaction": {
        "from": "0xa55e7e6dcebd02ea56d2f268fa22a50c807d759f",
        "to": "0xd384b9908baf9fd39cf75a51a45102b4c19d953c",
        "gas": "0x34f26",
        "value": "0x0",
        "input": "0xbc157ac1fb6baa755e2066441b7ccc1927affcad67f35bc74df43ca450ef556c9eefa44900000000000000000000000070b52c6cdda7c6b881de77196edfdf5a704b55f2000000000000000000000000000000000000000000000000000000003b9aca00",
        "nonce": "0x65",
        "chainId": "0xaa37dc"
      },
      "additionalContracts": [],
      "isFixedGasLimit": false
    }
  ],
  "receipts": [
    {
      "status": "0x1",
      "cumulativeGasUsed": "0x12cce",
      "logs": [
        {
          "address": "0xd384b9908baf9fd39cf75a51a45102b4c19d953c",
          "topics": [
            "0x635597d427bb89928f8f4c67299e0a29167b75e80dc42c9b63072f9ed8de3373",
            "0x000000000000000000000000375e2a148102bf179ae7743a28a34cf959be9499"
          ],
          "data": "0x",
          "blockHash": "0x3ca2091f8829ed882d03e88a5e2229f2af09ca35fbe2bb5289d73a0b0e8d8c3b",
          "blockNumber": "0x25d62b1",
          "blockTimestamp": "0x6991a10e",
          "transactionHash": "0xd38826037f57c949b06aafb380f2a1402337f20b69a1f3abf2decbdb6421364d",
          "transactionIndex": "0x1",
          "logIndex": "0x0",
          "removed": false
        }
      ],
      "logsBloom": "0x00000000000000000000000000000000000000000000000000000000000000000000008000000000000000000000000000000000000000000000000000800000000000000000000000000000000000000000000000000000000000000000000000000000000000000000000000000000000000000000000004000000000000000000000000000000000000000000000000040000000000000000000000000000040000000000000000000000000000000080000000000000000000000000000000000000000000000000000000004000000000000000000000000000000000000000000000010000000001000000000000000000000000000000000000000000",
      "type": "0x2",
      "transactionHash": "0xd38826037f57c949b06aafb380f2a1402337f20b69a1f3abf2decbdb6421364d",
      "transactionIndex": "0x1",
      "blockHash": "0x3ca2091f8829ed882d03e88a5e2229f2af09ca35fbe2bb5289d73a0b0e8d8c3b",
      "blockNumber": "0x25d62b1",
      "gasUsed": "0x782c",
      "effectiveGasPrice": "0xf433a",
      "blobGasUsed": "0x9c40",
      "from": "0xa55e7e6dcebd02ea56d2f268fa22a50c807d759f",
      "to": "0xd384b9908baf9fd39cf75a51a45102b4c19d953c",
      "contractAddress": null,
      "daFootprintGasScalar": "0x190",
      "l1BaseFeeScalar": "0x1db0",
      "l1BlobBaseFee": "0xe6db524",
      "l1BlobBaseFeeScalar": "0xd2730",
      "l1Fee": "0x122ea8601f",
      "l1GasPrice": "0x11880c80b",
      "l1GasUsed": "0x640"
    },
    {
      "status": "0x1",
      "cumulativeGasUsed": "0x4e27b",
      "logs": [
        {
          "address": "0xd384b9908baf9fd39cf75a51a45102b4c19d953c",
          "topics": [
            "0xf7b44c590ebdaf47d8d8765552f0c28b1d998703ab4d9e29aefbc1980d8ab8a4",
            "0x00000000000000000000000070b52c6cdda7c6b881de77196edfdf5a704b55f2"
          ],
          "data": "0x00000000000000000000000000000000000000000000000000000000000003e80000000000000000000000000000000000000000000000d8d726b7177a800000",
          "blockHash": "0xbeaa8a4f78334ca45d9f767b521a477ca70b47efe2a54b12c4d44296523e95cc",
          "blockNumber": "0x25d62b2",
          "blockTimestamp": "0x6991a110",
          "transactionHash": "0xef372098a31f3cf7ec37193e44675a37e125e855d3a9fbf72c89959373223b3a",
          "transactionIndex": "0x3",
          "logIndex": "0x5",
          "removed": false
        }
      ],
      "logsBloom": "0x00000000000000000000000000000000000000000000000000000000000000000000000000000000080000000000000000000000000000000000000000800000000000000000000000000000000000000000000000000000000000000000000000000000000000000000000000000000010000000000000000000000000000000000000000000000000000000000000000040000000001000000000000000000040000000000000000000000000001000000000000000000000000004000000000000000000000000000000000000000000000000000000000000000000000000000000000000000000000000000000000000000000000040000000000000000",
      "type": "0x2",
      "transactionHash": "0xef372098a31f3cf7ec37193e44675a37e125e855d3a9fbf72c89959373223b3a",
      "transactionIndex": "0x3",
      "blockHash": "0xbeaa8a4f78334ca45d9f767b521a477ca70b47efe2a54b12c4d44296523e95cc",
      "blockNumber": "0x25d62b2",
      "gasUsed": "0x16a00",
      "effectiveGasPrice": "0xf433a",
      "blobGasUsed": "0x9c40",
      "from": "0xa55e7e6dcebd02ea56d2f268fa22a50c807d759f",
      "to": "0xd384b9908baf9fd39cf75a51a45102b4c19d953c",
      "contractAddress": null,
      "daFootprintGasScalar": "0x190",
      "l1BaseFeeScalar": "0x1db0",
      "l1BlobBaseFee": "0xe6db524",
      "l1BlobBaseFeeScalar": "0xd2730",
      "l1Fee": "0x122ea8601f",
      "l1GasPrice": "0x11880c80b",
      "l1GasUsed": "0x640"
    },
    {
      "status": "0x1",
      "cumulativeGasUsed": "0x1785e",
      "logs": [
        {
          "address": "0xd384b9908baf9fd39cf75a51a45102b4c19d953c",
          "topics": [
            "0x329bcb4e5cb7d1fa89c2b4f4d1b07d8d25cd7f6f93f5f27047755895b0dad462",
            "0x00000000000000000000000070b52c6cdda7c6b881de77196edfdf5a704b55f2"
          ],
          "data": "0x0000000000000000000000000000000000000000000000000000000005f5e100",
          "blockHash": "0x410c709394fe0b02c1cb4244eebcaa59c47c7278a10aa63d2b49457791eaee22",
          "blockNumber": "0x25d62b4",
          "blockTimestamp": "0x6991a114",
          "transactionHash": "0xb8d28a517831057638ebe95d92f5a5d98f195b3d1fe24d3e6711e4a4e241c627",
          "transactionIndex": "0x1",
          "logIndex": "0x0",
          "removed": false
        }
      ],
      "logsBloom": "0x00000000000000200000000000000000000000000000000000000000000000000000000000000000080000000000000000000000000000000000000000800000000000000000000000000000000000000000000000080000000000000000000080000000000000000000000000000000010000000000000000000000000000000000000000000000000000000000000000040000000000000000000000000000040000000000000000000000000000000000000000000000000000004000000000000000000000000000000000000000000000000000000000000000000000000000000000000000000000000000000000000000000000000000000000000000",
      "type": "0x2",
      "transactionHash": "0xb8d28a517831057638ebe95d92f5a5d98f195b3d1fe24d3e6711e4a4e241c627",
      "transactionIndex": "0x1",
      "blockHash": "0x410c709394fe0b02c1cb4244eebcaa59c47c7278a10aa63d2b49457791eaee22",
      "blockNumber": "0x25d62b4",
      "gasUsed": "0xc3bc",
      "effectiveGasPrice": "0xf433a",
      "blobGasUsed": "0x9c40",
      "from": "0xa55e7e6dcebd02ea56d2f268fa22a50c807d759f",
      "to": "0xd384b9908baf9fd39cf75a51a45102b4c19d953c",
      "contractAddress": null,
      "daFootprintGasScalar": "0x190",
      "l1BaseFeeScalar": "0x1db0",
      "l1BlobBaseFee": "0xe6db524",
      "l1BlobBaseFeeScalar": "0xd2730",
      "l1Fee": "0x122ea8601f",
      "l1GasPrice": "0x11880c80b",
      "l1GasUsed": "0x640"
    },
    {
      "status": "0x1",
      "cumulativeGasUsed": "0x1b3ae",
      "logs": [
        {
          "address": "0xd384b9908baf9fd39cf75a51a45102b4c19d953c",
          "topics": [
            "0x8c1ec1ba18731ac19ff6089bc9470a71fb6b885ee0c64e8415e2599a41e55019",
            "0xfb6baa755e2066441b7ccc1927affcad67f35bc74df43ca450ef556c9eefa449",
            "0x000000000000000000000000a55e7e6dcebd02ea56d2f268fa22a50c807d759f",
            "0x00000000000000000000000070b52c6cdda7c6b881de77196edfdf5a704b55f2"
          ],
          "data": "0x000000000000000000000000000000000000000000000000000000000000002000000000000000000000000000000000000000000000000000000000000000687b2276657273696f6e223a312c226e616d65223a2243544d222c226465736372697074696f6e223a2243544d222c22656d61696c223a22636f6e74696e75756d64616f4070726f746f6e2e6d65222c2275726c223a22636f6e74696e75756d64616f2e6f7267227d000000000000000000000000000000000000000000000000",
          "blockHash": "0x89ef79b8b9d483e4883cfad9034b6f686e65c500fa62eb552d341f213cdfa473",
          "blockNumber": "0x25d62b5",
          "blockTimestamp": "0x6991a116",
          "transactionHash": "0xd78b739e25f729aaaa4e7c1609e52f307e29d15bd482d49f8fac95b561b3a080",
          "transactionIndex": "0x1",
          "logIndex": "0x0",
          "removed": false
        }
      ],
      "logsBloom": "0x00000000000000000000800000000000000000000000004000000001000000000000000002000000080000000000000000000000000000000000000000800000000000000000000000000000000000000000000000000000000000000000000000100000000000000000000002000400010000000000000000000000000000000000000000000000000000000000000000040000000000000000000000000001040000000000000000000000000000000000000000000000000000004000000000000000000000000000000000000000000000000000000000000000000000000000040000000000000000000000000000000000000000000000000000000000",
      "type": "0x2",
      "transactionHash": "0xd78b739e25f729aaaa4e7c1609e52f307e29d15bd482d49f8fac95b561b3a080",
      "transactionIndex": "0x1",
      "blockHash": "0x89ef79b8b9d483e4883cfad9034b6f686e65c500fa62eb552d341f213cdfa473",
      "blockNumber": "0x25d62b5",
      "gasUsed": "0xff0c",
      "effectiveGasPrice": "0xf433a",
      "blobGasUsed": "0x15310",
      "from": "0xa55e7e6dcebd02ea56d2f268fa22a50c807d759f",
      "to": "0xd384b9908baf9fd39cf75a51a45102b4c19d953c",
      "contractAddress": null,
      "daFootprintGasScalar": "0x190",
      "l1BaseFeeScalar": "0x1db0",
      "l1BlobBaseFee": "0xe6db524",
      "l1BlobBaseFeeScalar": "0xd2730",
      "l1Fee": "0x278ef2ad12",
      "l1GasPrice": "0x11880c80b",
      "l1GasUsed": "0xd99"
    },
    {
      "status": "0x1",
      "cumulativeGasUsed": "0x37713",
      "logs": [
        {
          "address": "0x70b52c6cdda7c6b881de77196edfdf5a704b55f2",
          "topics": [
            "0x8c5be1e5ebec7d5bd14f71427d1e84f3dd0314c0f7b2291e5b200ac8c7c3b925",
            "0x000000000000000000000000a55e7e6dcebd02ea56d2f268fa22a50c807d759f",
            "0x000000000000000000000000d384b9908baf9fd39cf75a51a45102b4c19d953c"
          ],
          "data": "0x000000000000000000000000000000000000000000000000000000003b9aca00",
          "blockHash": "0x7ffb64b1c6bc237ca9b50cefef6b08f648c27de3744e8cbb78e05a84d45516b5",
          "blockNumber": "0x25d62b6",
          "blockTimestamp": "0x6991a118",
          "transactionHash": "0x14a6ee480d2ca5d4027b357821ca566fe36cd9a67e8634ed71fb929b27b60b09",
          "transactionIndex": "0x2",
          "logIndex": "0x3",
          "removed": false
        }
      ],
      "logsBloom": "0x00000000000000000000000000000000000000000000004000000001000000000000000000000000000000000000000000000000000020000000010000200000000000000000000000000000000000000000000000000000000000000000000000000000000000000000000002000000000000000000000000000000000000000000000000000000000000000000000000000000000400000000000000000040020000000000000000000000000000000000000000000000000000000000000000000000000000000000000000000000000000000000000000000000000000000010000000000000000000000000000000004000000000000000000000400000",
      "type": "0x2",
      "transactionHash": "0x14a6ee480d2ca5d4027b357821ca566fe36cd9a67e8634ed71fb929b27b60b09",
      "transactionIndex": "0x2",
      "blockHash": "0x7ffb64b1c6bc237ca9b50cefef6b08f648c27de3744e8cbb78e05a84d45516b5",
      "blockNumber": "0x25d62b6",
      "gasUsed": "0xb361",
      "effectiveGasPrice": "0xf433a",
      "blobGasUsed": "0x9c40",
      "from": "0xa55e7e6dcebd02ea56d2f268fa22a50c807d759f",
      "to": "0x70b52c6cdda7c6b881de77196edfdf5a704b55f2",
      "contractAddress": null,
      "daFootprintGasScalar": "0x190",
      "l1BaseFeeScalar": "0x1db0",
      "l1BlobBaseFee": "0xeb369df",
      "l1BlobBaseFeeScalar": "0xd2730",
      "l1Fee": "0x12fab9de0d",
      "l1GasPrice": "0x1275ad2eb",
      "l1GasUsed": "0x640"
    },
    {
      "status": "0x1",
      "cumulativeGasUsed": "0x41105",
      "logs": [
        {
          "address": "0x70b52c6cdda7c6b881de77196edfdf5a704b55f2",
          "topics": [
            "0xddf252ad1be2c89b69c2b068fc378daa952ba7f163c4a11628f55a4df523b3ef",
            "0x000000000000000000000000a55e7e6dcebd02ea56d2f268fa22a50c807d759f",
            "0x000000000000000000000000d384b9908baf9fd39cf75a51a45102b4c19d953c"
          ],
          "data": "0x000000000000000000000000000000000000000000000000000000003b9aca00",
          "blockHash": "0xe792f54aa8551a729d31e092faab8a457a4e6f728b036f313f079b476de07303",
          "blockNumber": "0x25d62b7",
          "blockTimestamp": "0x6991a11a",
          "transactionHash": "0xe1938819f08db7fa360acaa9483c07c50f69513d7b31851b9424b6677699a4c0",
          "transactionIndex": "0x2",
          "logIndex": "0x3",
          "removed": false
        },
        {
          "address": "0xd384b9908baf9fd39cf75a51a45102b4c19d953c",
          "topics": [
            "0xd36a2f67d06d285786f61a32b052b9ace6b0b7abef5177b54358abdc83a0b69b",
            "0xfb6baa755e2066441b7ccc1927affcad67f35bc74df43ca450ef556c9eefa449",
            "0x00000000000000000000000070b52c6cdda7c6b881de77196edfdf5a704b55f2"
          ],
          "data": "0x000000000000000000000000000000000000000000000000000000003b9aca00000000000000000000000000000000000000000000000000000000003b9aca00",
          "blockHash": "0xe792f54aa8551a729d31e092faab8a457a4e6f728b036f313f079b476de07303",
          "blockNumber": "0x25d62b7",
          "blockTimestamp": "0x6991a11a",
          "transactionHash": "0xe1938819f08db7fa360acaa9483c07c50f69513d7b31851b9424b6677699a4c0",
          "transactionIndex": "0x2",
          "logIndex": "0x4",
          "removed": false
        }
      ],
      "logsBloom": "0x00000000000000000000800000000000000000000000004000000001000000000000000000000000080000000000000000000000000020000000010000800000000000000000000000000008000000000000000000000000000000000000000000100000000000000000000002000400010000000000000000000010000000000000000000000000000000000000000000040000000400000000000000000040040000000000000000000000000000000000000000000000000000004000000000000002000000000000000000000000000008000000000100000000000000000000000000000000000000000000000000004000000000000000800000400000",
      "type": "0x2",
      "transactionHash": "0xe1938819f08db7fa360acaa9483c07c50f69513d7b31851b9424b6677699a4c0",
      "transactionIndex": "0x2",
      "blockHash": "0xe792f54aa8551a729d31e092faab8a457a4e6f728b036f313f079b476de07303",
      "blockNumber": "0x25d62b7",
      "gasUsed": "0x17883",
      "effectiveGasPrice": "0xf433a",
      "blobGasUsed": "0xb3b0",
      "from": "0xa55e7e6dcebd02ea56d2f268fa22a50c807d759f",
      "to": "0xd384b9908baf9fd39cf75a51a45102b4c19d953c",
      "contractAddress": null,
      "daFootprintGasScalar": "0x190",
      "l1BaseFeeScalar": "0x1db0",
      "l1BlobBaseFee": "0xeb369df",
      "l1BlobBaseFeeScalar": "0xd2730",
      "l1Fee": "0x15ec749247",
      "l1GasPrice": "0x1275ad2eb",
      "l1GasUsed": "0x738"
    }
  ],
  "libraries": [],
  "pending": [],
  "returns": {},
  "timestamp": 1771151642822,
  "chain": 11155420,
  "commit": "d786b9f"
}