{
  "transactions": [
    {
      "hash": "0x994713bb24fb5d5b5b460ff56fe8fa6257a67dd2da22c76e94adc255ab4a7fc7",
      "transactionType": "CALL",
      "contractName": null,
      "contractAddress": "0xe605c920c942ea4e807a688c554bf83c59d4db41",
      "function": "addOperator(address)",
      "arguments": [
        "0xEef3d3678E1E739C6522EEC209Bede0197791339"
      ],
      "transaction": {
        "from": "0xc3ca11bd8e131471904dced927b3fb7edb453179",
        "to": "0xe605c920c942ea4e807a688c554bf83c59d4db41",
        "gas": "0x20ab4",
        "value": "0x0",
        "input": "0x9870d7fe000000000000000000000000eef3d3678e1e739c6522eec209bede0197791339",
        "nonce": "0x53",
        "chainId": "0x79a"
      },
      "additionalContracts": [],
      "isFixedGasLimit": false
    },
    {
      "hash": "0xb23dab230c5e8a1eaa16cbbdd13c602ae7cbfda8ea6648e0ae67311424659a0f",
      "transactionType": "CALL",
      "contractName": null,
      "contractAddress": "0xe605c920c942ea4e807a688c554bf83c59d4db41",
      "function": "addOperator(address)",
      "arguments": [
        "0x0c6235c04eF4Fa5013A58afb22967a068810C929"
      ],
      "transaction": {
        "from": "0xc3ca11bd8e131471904dced927b3fb7edb453179",
        "to": "0xe605c920c942ea4e807a688c554bf83c59d4db41",
        "gas": "0x1c7c4",
        "value": "0x0",
        "input": "0x9870d7fe0000000000000000000000000c6235c04ef4fa5013a58afb22967a068810c929",
        "nonce": "0x54",
        "chainId": "0x79a"
      },
      "additionalContracts": [],
      "isFixedGasLimit": false
    },
    {
      "hash": "0x41a6f3b4924514947c220d75265b26cbc8d0948dfc2ad26b676b9b836cafce9a",
      "transactionType": "CALL",
      "contractName": null,
      "contractAddress": "0x9e0625366f7d85a174a59b1a5d2e44f1492a9cbb",
      "function": "addOperator(address)",
      "arguments": [
        "0xEef3d3678E1E739C6522EEC209Bede0197791339"
      ],
      "transaction": {
        "from": "0xc3ca11bd8e131471904dced927b3fb7edb453179",
        "to": "0x9e0625366f7d85a174a59b1a5d2e44f1492a9cbb",
        "gas": "0x20ad5",
        "value": "0x0",
        "input": "0x9870d7fe000000000000000000000000eef3d3678e1e739c6522eec209bede0197791339",
        "nonce": "0x55",
        "chainId": "0x79a"
      },
      "additionalContracts": [],
      "isFixedGasLimit": false
    },
    {
      "hash": "0x11efb23cf21116f91d21742ff110c6a71f4d34346c011068c5c516fa79f46961",
      "transactionType": "CALL",
      "contractName": null,
      "contractAddress": "0x9e0625366f7d85a174a59b1a5d2e44f1492a9cbb",
      "function": "addOperator(address)",
      "arguments": [
        "0x0c6235c04eF4Fa5013A58afb22967a068810C929"
      ],
      "transaction": {
        "from": "0xc3ca11bd8e131471904dced927b3fb7edb453179",
        "to": "0x9e0625366f7d85a174a59b1a5d2e44f1492a9cbb",
        "gas": "0x1c7e6",
        "value": "0x0",
        "input": "0x9870d7fe0000000000000000000000000c6235c04ef4fa5013a58afb22967a068810c929",
        "nonce": "0x56",
        "chainId": "0x79a"
      },
      "additionalContracts": [],
      "isFixedGasLimit": false
    },
    {
      "hash": "0x35e30ace3b984398d791887d5e500862f3a0311adc840a9e0af1d3c64b91a3ba",
      "transactionType": "CALL",
      "contractName": null,
      "contractAddress": "0xdc994071739a301e1c12e2a2212498a4684340d1",
      "function": "addOperator(address)",
      "arguments": [
        "0xEef3d3678E1E739C6522EEC209Bede0197791339"
      ],
      "transaction": {
        "from": "0xc3ca11bd8e131471904dced927b3fb7edb453179",
        "to": "0xdc994071739a301e1c12e2a2212498a4684340d1",
        "gas": "0x22a29",
        "value": "0x0",
        "input": "0x9870d7fe000000000000000000000000eef3d3678e1e739c6522eec209bede0197791339",
        "nonce": "0x57",
        "chainId": "0x79a"
      },
      "additionalContracts": [],
      "isFixedGasLimit": false
    },
    {
      "hash": "0x8453af4776d39ba5a4e7c422b63b347a1fa0497421645c799576cd8a3fe19654",
      "transactionType": "CALL",
      "contractName": null,
      "contractAddress": "0xdc994071739a301e1c12e2a2212498a4684340d1",
      "function": "addOperator(address)",
      "arguments": [
        "0x0c6235c04eF4Fa5013A58afb22967a068810C929"
      ],
      "transaction": {
        "from": "0xc3ca11bd8e131471904dced927b3fb7edb453179",
        "to": "0xdc994071739a301e1c12e2a2212498a4684340d1",
        "gas": "0x1af1b",
        "value": "0x0",
        "input": "0x9870d7fe0000000000000000000000000c6235c04ef4fa5013a58afb22967a068810c929",
        "nonce": "0x58",
        "chainId": "0x79a"
      },
      "additionalContracts": [],
      "isFixedGasLimit": false
    }
  ],
  "receipts": [
    {
      "status": "0x1",
      "cumulativeGasUsed": "0x25a87",
      "logs": [
        {
          "address": "0xe605c920c942ea4e807a688c554bf83c59d4db41",
          "topics": [
            "0x4c141abccf173677929dea054f218ed87362117834a8869ec9f68d8bdaaea1dc",
            "0x000000000000000000000000eef3d3678e1e739c6522eec209bede0197791339"
          ],
          "data": "0x",
          "blockHash": "0xb79131691f8adb98075ce5f5ecbdd681383dbff533ec480f0811e9a29ca299c9",
          "blockNumber": "0xf4b938",
          "transactionHash": "0x994713bb24fb5d5b5b460ff56fe8fa6257a67dd2da22c76e94adc255ab4a7fc7",
          "transactionIndex": "0x1",
          "logIndex": "0x0",
          "removed": false
        }
      ],
      "logsBloom": "0x00000000000000000000004000000000000000000000000000000000000000000000000000000000000000000000000000000000000800000000000000000000000000800000000000000200000000000000001000001000000000000000000000000000000000000000000000000000000000010000000000000000000000000000000000000000000000000000000000000000000000000000000000000000000000000000000100000000000000000000000000000000000000000000000000000000000000000000000000000000000000000000000000000000000000000000000000000000000000000000000000000000000000000000000800000000",
      "type": "0x2",
      "transactionHash": "0x994713bb24fb5d5b5b460ff56fe8fa6257a67dd2da22c76e94adc255ab4a7fc7",
      "transactionIndex": "0x1",
      "blockHash": "0xb79131691f8adb98075ce5f5ecbdd681383dbff533ec480f0811e9a29ca299c9",
      "blockNumber": "0xf4b938",
      "gasUsed": "0x17a6f",
      "effectiveGasPrice": "0xf433c",
      "from": "0xc3ca11bd8e131471904dced927b3fb7edb453179",
      "to": "0xe605c920c942ea4e807a688c554bf83c59d4db41",
      "contractAddress": null,
      "l1BaseFeeScalar": "0x2608",
      "l1BlobBaseFee": "0x736d2372",
      "l1BlobBaseFeeScalar": "0x177fef",
      "l1Fee": "0x4d7f859608",
      "l1GasPrice": "0x846e52aa",
      "l1GasUsed": "0x640"
    },
    {
      "status": "0x1",
      "cumulativeGasUsed": "0x1ec07",
      "logs": [
        {
          "address": "0xe605c920c942ea4e807a688c554bf83c59d4db41",
          "topics": [
            "0x4c141abccf173677929dea054f218ed87362117834a8869ec9f68d8bdaaea1dc",
            "0x0000000000000000000000000c6235c04ef4fa5013a58afb22967a068810c929"
          ],
          "data": "0x",
          "blockHash": "0xafff3c3c9691771eee3b54e016db39f637f5dcf23d60b56b0021f69029e25aab",
          "blockNumber": "0xf4b93a",
          "transactionHash": "0xb23dab230c5e8a1eaa16cbbdd13c602ae7cbfda8ea6648e0ae67311424659a0f",
          "transactionIndex": "0x1",
          "logIndex": "0x0",
          "removed": false
        }
      ],
      "logsBloom": "0x00000000000000000000004000000000000000000000000000000000000000000000000000000080000000000000000020000000000800000000000000000000000000800000000000000000000000000000000000001000000000000000000000000000000000000000000000000000000000010000000000000000000000000000000000000000000000000000000000000000000000000000000000000000000000000000000100000000000000000000000000000000000000000000000000000000000000000000000000000000000000000000000000000000000000000000200000000000000000000000000000000000000000000000000000000000",
      "type": "0x2",
      "transactionHash": "0xb23dab230c5e8a1eaa16cbbdd13c602ae7cbfda8ea6648e0ae67311424659a0f",
      "transactionIndex": "0x1",
      "blockHash": "0xafff3c3c9691771eee3b54e016db39f637f5dcf23d60b56b0021f69029e25aab",
      "blockNumber": "0xf4b93a",
      "gasUsed": "0x137a3",
      "effectiveGasPrice": "0xf433c",
      "from": "0xc3ca11bd8e131471904dced927b3fb7edb453179",
      "to": "0xe605c920c942ea4e807a688c554bf83c59d4db41",
      "contractAddress": null,
      "l1BaseFeeScalar": "0x2608",
      "l1BlobBaseFee": "0x736d2372",
      "l1BlobBaseFeeScalar": "0x177fef",
      "l1Fee": "0x4d7f859608",
      "l1GasPrice": "0x846e52aa",
      "l1GasUsed": "0x640"
    },
    {
      "status": "0x1",
      "cumulativeGasUsed": "0x22eea",
      "logs": [
        {
          "address": "0x9e0625366f7d85a174a59b1a5d2e44f1492a9cbb",
          "topics": [
            "0x4c141abccf173677929dea054f218ed87362117834a8869ec9f68d8bdaaea1dc",
            "0x000000000000000000000000eef3d3678e1e739c6522eec209bede0197791339"
          ],
          "data": "0x",
          "blockHash": "0x61b43c24804351d15545b5223588fd1fa8512d132ecf890ee38040e21868af43",
          "blockNumber": "0xf4b93c",
          "transactionHash": "0x41a6f3b4924514947c220d75265b26cbc8d0948dfc2ad26b676b9b836cafce9a",
          "transactionIndex": "0x1",
          "logIndex": "0x0",
          "removed": false
        }
      ],
      "logsBloom": "0x00000000000000000000000000000000000000000000000000000000000000000000000000000000000000000000000000000000000800000000000000000000000000000000000000000200000000000000001000000000000000000000000000000000000000000000000000000000000000010000000000000000000000000000000000000000000000004000000000000000000000000000000000000000000000000000000100000000000000000000000000000000000000000000000000000000000000000000000000000000000000000000000000000000000000000000000000000000000000000100000000000000000000000000000800000020",
      "type": "0x2",
      "transactionHash": "0x41a6f3b4924514947c220d75265b26cbc8d0948dfc2ad26b676b9b836cafce9a",
      "transactionIndex": "0x1",
      "blockHash": "0x61b43c24804351d15545b5223588fd1fa8512d132ecf890ee38040e21868af43",
      "blockNumber": "0xf4b93c",
      "gasUsed": "0x17a86",
      "effectiveGasPrice": "0xf433c",
      "from": "0xc3ca11bd8e131471904dced927b3fb7edb453179",
      "to": "0x9e0625366f7d85a174a59b1a5d2e44f1492a9cbb",
      "contractAddress": null,
      "l1BaseFeeScalar": "0x2608",
      "l1BlobBaseFee": "0x736d2372",
      "l1BlobBaseFeeScalar": "0x177fef",
      "l1Fee": "0x4d7f859608",
      "l1GasPrice": "0x846e52aa",
      "l1GasUsed": "0x640"
    },
    {
      "status": "0x1",
      "cumulativeGasUsed": "0x217d2",
      "logs": [
        {
          "address": "0x9e0625366f7d85a174a59b1a5d2e44f1492a9cbb",
          "topics": [
            "0x4c141abccf173677929dea054f218ed87362117834a8869ec9f68d8bdaaea1dc",
            "0x0000000000000000000000000c6235c04ef4fa5013a58afb22967a068810c929"
          ],
          "data": "0x",
          "blockHash": "0xefd4c6a6da4469fc37a49b951c438234548a260cc7c808343a844e3f041cf2d6",
          "blockNumber": "0xf4b93e",
          "transactionHash": "0x11efb23cf21116f91d21742ff110c6a71f4d34346c011068c5c516fa79f46961",
          "transactionIndex": "0x1",
          "logIndex": "0x0",
          "removed": false
        }
      ],
      "logsBloom": "0x00000000000000000000000000000000000000000000000000000000000000000000000000000080000000000000000020000000000800000000000000000000000000000000000000000000000000000000000000000000000000000000000000000000000000000000000000000000000000010000000000000000000000000000000000000000000000004000000000000000000000000000000000000000000000000000000100000000000000000000000000000000000000000000000000000000000000000000000000000000000000000000000000000000000000000000200000000000000000000100000000000000000000000000000000000020",
      "type": "0x2",
      "transactionHash": "0x11efb23cf21116f91d21742ff110c6a71f4d34346c011068c5c516fa79f46961",
      "transactionIndex": "0x1",
      "blockHash": "0xefd4c6a6da4469fc37a49b951c438234548a260cc7c808343a844e3f041cf2d6",
      "blockNumber": "0xf4b93e",
      "gasUsed": "0x137ba",
      "effectiveGasPrice": "0xf433c",
      "from": "0xc3ca11bd8e131471904dced927b3fb7edb453179",
      "to": "0x9e0625366f7d85a174a59b1a5d2e44f1492a9cbb",
      "contractAddress": null,
      "l1BaseFeeScalar": "0x2608",
      "l1BlobBaseFee": "0x7071c0c9",
      "l1BlobBaseFeeScalar": "0x177fef",
      "l1Fee": "0x4b4aaf0a37",
      "l1GasPrice": "0x7da71073",
      "l1GasUsed": "0x640"
    },
    {
      "status": "0x1",
      "cumulativeGasUsed": "0x28156",
      "logs": [
        {
          "address": "0xdc994071739a301e1c12e2a2212498a4684340d1",
          "topics": [
            "0x4c141abccf173677929dea054f218ed87362117834a8869ec9f68d8bdaaea1dc",
            "0x000000000000000000000000eef3d3678e1e739c6522eec209bede0197791339"
          ],
          "data": "0x",
          "blockHash": "0x98243f3249224b7eca828fcb5dd9694b4338ebc3223656b472be05274bf64701",
          "blockNumber": "0xf4b940",
          "transactionHash": "0x35e30ace3b984398d791887d5e500862f3a0311adc840a9e0af1d3c64b91a3ba",
          "transactionIndex": "0x2",
          "logIndex": "0x0",
          "removed": false
        }
      ],
      "logsBloom": "0x00000000000000000000000000000001000000000000000000000000000000000000000000000000000000000000000000000000000800000000000000000000000000000000000000000200000000000000001000000000000000000000000000000000000000000000000000000000000000010000000000000000000000000000000000000000000000000000000000000000000000000000000000000000000000000000000100000000000000000000000000000000000000000000000000000000000000000000004000000000000000000000000000000000000000000000001000000000000000000000000000000000000000000000000800000000",
      "type": "0x2",
      "transactionHash": "0x35e30ace3b984398d791887d5e500862f3a0311adc840a9e0af1d3c64b91a3ba",
      "transactionIndex": "0x2",
      "blockHash": "0x98243f3249224b7eca828fcb5dd9694b4338ebc3223656b472be05274bf64701",
      "blockNumber": "0xf4b940",
      "gasUsed": "0x17aea",
      "effectiveGasPrice": "0xf433c",
      "from": "0xc3ca11bd8e131471904dced927b3fb7edb453179",
      "to": "0xdc994071739a301e1c12e2a2212498a4684340d1",
      "contractAddress": null,
      "l1BaseFeeScalar": "0x2608",
      "l1BlobBaseFee": "0x7071c0c9",
      "l1BlobBaseFeeScalar": "0x177fef",
      "l1Fee": "0x4b4aaf0a37",
      "l1GasPrice": "0x7da71073",
      "l1GasUsed": "0x640"
    },
    {
      "status": "0x1",
      "cumulativeGasUsed": "0x43332",
      "logs": [
        {
          "address": "0xdc994071739a301e1c12e2a2212498a4684340d1",
          "topics": [
            "0x4c141abccf173677929dea054f218ed87362117834a8869ec9f68d8bdaaea1dc",
            "0x0000000000000000000000000c6235c04ef4fa5013a58afb22967a068810c929"
          ],
          "data": "0x",
          "blockHash": "0x571cf0b693f2fe3cefe66c5f4948b73dc847b4adba1cb1126e4417ca73821fb4",
          "blockNumber": "0xf4b942",
          "transactionHash": "0x8453af4776d39ba5a4e7c422b63b347a1fa0497421645c799576cd8a3fe19654",
          "transactionIndex": "0x5",
          "logIndex": "0x0",
          "removed": false
        }
      ],
      "logsBloom": "0x00000000000000000000000000000001000000000000000000000000000000000000000000000080000000000000000020000000000800000000000000000000000000000000000000000000000000000000000000000000000000000000000000000000000000000000000000000000000000010000000000000000000000000000000000000000000000000000000000000000000000000000000000000000000000000000000100000000000000000000000000000000000000000000000000000000000000000000004000000000000000000000000000000000000000000000201000000000000000000000000000000000000000000000000000000000",
      "type": "0x2",
      "transactionHash": "0x8453af4776d39ba5a4e7c422b63b347a1fa0497421645c799576cd8a3fe19654",
      "transactionIndex": "0x5",
      "blockHash": "0x571cf0b693f2fe3cefe66c5f4948b73dc847b4adba1cb1126e4417ca73821fb4",
      "blockNumber": "0xf4b942",
      "gasUsed": "0x1381e",
      "effectiveGasPrice": "0xf433c",
      "from": "0xc3ca11bd8e131471904dced927b3fb7edb453179",
      "to": "0xdc994071739a301e1c12e2a2212498a4684340d1",
      "contractAddress": null,
      "l1BaseFeeScalar": "0x2608",
      "l1BlobBaseFee": "0x7071c0c9",
      "l1BlobBaseFeeScalar": "0x177fef",
      "l1Fee": "0x4b4aaf0a37",
      "l1GasPrice": "0x7da71073",
      "l1GasUsed": "0x640"
    }
  ],
  "libraries": [],
  "pending": [],
  "returns": {},
  "timestamp": 1755270757,
  "chain": 1946,
  "commit": "cdcc5f3"
}