{
  "transactions": [
    {
      "hash": "0x5ee1a02af05a0514ca0ae052dc7b01ae804432483623c725ebe653f5d950e01f",
      "transactionType": "CALL",
      "contractName": null,
      "contractAddress": "0xd384b9908baf9fd39cf75a51a45102b4c19d953c",
      "function": "setFeeConfig(address,uint256,uint256)",
      "arguments": [
        "0x375E2A148102bF179AE7743A28A34cF959bE9499",
        "1000",
        "500000000000000000"
      ],
      "transaction": {
        "from": "0xa55e7e6dcebd02ea56d2f268fa22a50c807d759f",
        "to": "0xd384b9908baf9fd39cf75a51a45102b4c19d953c",
        "gas": "0x1cd7d",
        "value": "0x0",
        "input": "0x236fcdac000000000000000000000000375e2a148102bf179ae7743a28a34cf959be949900000000000000000000000000000000000000000000000000000000000003e800000000000000000000000000000000000000000000000006f05b59d3b20000",
        "nonce": "0x6",
        "chainId": "0xdede"
      },
      "additionalContracts": [],
      "isFixedGasLimit": false
    },
    {
      "hash": "0xd0b583728db9968b288125b259785ed0b3e7134fc28f2e25645070fcaff673fc",
      "transactionType": "CALL",
      "contractName": null,
      "contractAddress": "0xd384b9908baf9fd39cf75a51a45102b4c19d953c",
      "function": "initDAppConfig(string,address,string)",
      "arguments": [
        "v1.ctm.continuumdao",
        "0x375E2A148102bF179AE7743A28A34cF959bE9499",
        "{\\\"version\\\":1,\\\"name\\\":\\\"CTM\\\",\\\"description\\\":\\\"CTM\\\",\\\"email\\\":\\\"continuumdao@proton.me\\\",\\\"url\\\":\\\"continuumdao.org\\\"}"
      ],
      "transaction": {
        "from": "0xa55e7e6dcebd02ea56d2f268fa22a50c807d759f",
        "to": "0xd384b9908baf9fd39cf75a51a45102b4c19d953c",
        "gas": "0x601cc",
        "value": "0x0",
        "input": "0x4152ded30000000000000000000000000000000000000000000000000000000000000060000000000000000000000000375e2a148102bf179ae7743a28a34cf959be949900000000000000000000000000000000000000000000000000000000000000a0000000000000000000000000000000000000000000000000000000000000001376312e63746d2e636f6e74696e75756d64616f0000000000000000000000000000000000000000000000000000000000000000000000000000000000000000687b2276657273696f6e223a312c226e616d65223a2243544d222c226465736372697074696f6e223a2243544d222c22656d61696c223a22636f6e74696e75756d64616f4070726f746f6e2e6d65222c2275726c223a22636f6e74696e75756d64616f2e6f7267227d000000000000000000000000000000000000000000000000",
        "nonce": "0x7",
        "chainId": "0xdede"
      },
      "additionalContracts": [],
      "isFixedGasLimit": false
    }
  ],
  "receipts": [
    {
      "status": "0x1",
      "cumulativeGasUsed": "0x1c5f0",
      "logs": [
        {
          "address": "0xd384b9908baf9fd39cf75a51a45102b4c19d953c",
          "topics": [
            "0xf7b44c590ebdaf47d8d8765552f0c28b1d998703ab4d9e29aefbc1980d8ab8a4",
            "0x000000000000000000000000375e2a148102bf179ae7743a28a34cf959be9499"
          ],
          "data": "0x00000000000000000000000000000000000000000000000000000000000003e800000000000000000000000000000000000000000000000006f05b59d3b20000",
          "blockHash": "0x5e2568fa67165ec6388b4c947dcd938cbe3c8e8e9327b2c5cd37e4e88644cb36",
          "blockNumber": "0x4478b46",
          "transactionHash": "0x5ee1a02af05a0514ca0ae052dc7b01ae804432483623c725ebe653f5d950e01f",
          "transactionIndex": "0x1",
          "logIndex": "0x0",
          "removed": false
        }
      ],
      "logsBloom": "0x00000000000000000000000000000000000000000000000000000000000000000000000000000000000000000000000000000000000000000000000000800000000000000000000000000000000000000000000000000000000000000000000000000000000000000000000000000000000000000000000004000000000000000000000000000000000000000000000000040000000001000000000000000000040000000000000000000000000001000080000000000000000000000000000000000000000000000000000000004000000000000000000000000000000000000000000000000000000000000000000000000000000000040000000000000000",
      "type": "0x2",
      "transactionHash": "0x5ee1a02af05a0514ca0ae052dc7b01ae804432483623c725ebe653f5d950e01f",
      "transactionIndex": "0x1",
      "blockHash": "0x5e2568fa67165ec6388b4c947dcd938cbe3c8e8e9327b2c5cd37e4e88644cb36",
      "blockNumber": "0x4478b46",
      "gasUsed": "0x173e8",
      "effectiveGasPrice": "0x3b9aca01",
      "from": "0xa55e7e6dcebd02ea56d2f268fa22a50c807d759f",
      "to": "0xd384b9908baf9fd39cf75a51a45102b4c19d953c",
      "contractAddress": null
    },
    {
      "status": "0x1",
      "cumulativeGasUsed": "0x52951",
      "logs": [
        {
          "address": "0x375e2a148102bf179ae7743a28a34cf959be9499",
          "topics": [
            "0xddf252ad1be2c89b69c2b068fc378daa952ba7f163c4a11628f55a4df523b3ef",
            "0x000000000000000000000000a55e7e6dcebd02ea56d2f268fa22a50c807d759f",
            "0x000000000000000000000000d384b9908baf9fd39cf75a51a45102b4c19d953c"
          ],
          "data": "0x0000000000000000000000000000000000000000000000000000000000000000",
          "blockHash": "0x82bc5e35adf4e62b0686093aef6d020c0980dffdef0b7aa22c72cf2d533ef510",
          "blockNumber": "0x4478b4b",
          "transactionHash": "0xd0b583728db9968b288125b259785ed0b3e7134fc28f2e25645070fcaff673fc",
          "transactionIndex": "0x1",
          "logIndex": "0x0",
          "removed": false
        },
        {
          "address": "0xd384b9908baf9fd39cf75a51a45102b4c19d953c",
          "topics": [
            "0xd36a2f67d06d285786f61a32b052b9ace6b0b7abef5177b54358abdc83a0b69b",
            "0xfb6baa755e2066441b7ccc1927affcad67f35bc74df43ca450ef556c9eefa449",
            "0x000000000000000000000000375e2a148102bf179ae7743a28a34cf959be9499"
          ],
          "data": "0x00000000000000000000000000000000000000000000000000000000000000000000000000000000000000000000000000000000000000000000000000000000",
          "blockHash": "0x82bc5e35adf4e62b0686093aef6d020c0980dffdef0b7aa22c72cf2d533ef510",
          "blockNumber": "0x4478b4b",
          "transactionHash": "0xd0b583728db9968b288125b259785ed0b3e7134fc28f2e25645070fcaff673fc",
          "transactionIndex": "0x1",
          "logIndex": "0x1",
          "removed": false
        },
        {
          "address": "0xd384b9908baf9fd39cf75a51a45102b4c19d953c",
          "topics": [
            "0x4564145733c9ac3a0429b20c860daa8d883061806177bd8b13930c6899968f38",
            "0xfb6baa755e2066441b7ccc1927affcad67f35bc74df43ca450ef556c9eefa449",
            "0x000000000000000000000000a55e7e6dcebd02ea56d2f268fa22a50c807d759f",
            "0x000000000000000000000000375e2a148102bf179ae7743a28a34cf959be9499"
          ],
          "data": "0x00000000000000000000000000000000000000000000000000000000000000400000000000000000000000000000000000000000000000000000000000000080000000000000000000000000000000000000000000000000000000000000001376312e63746d2e636f6e74696e75756d64616f0000000000000000000000000000000000000000000000000000000000000000000000000000000000000000687b2276657273696f6e223a312c226e616d65223a2243544d222c226465736372697074696f6e223a2243544d222c22656d61696c223a22636f6e74696e75756d64616f4070726f746f6e2e6d65222c2275726c223a22636f6e74696e75756d64616f2e6f7267227d000000000000000000000000000000000000000000000000",
          "blockHash": "0x82bc5e35adf4e62b0686093aef6d020c0980dffdef0b7aa22c72cf2d533ef510",
          "blockNumber": "0x4478b4b",
          "transactionHash": "0xd0b583728db9968b288125b259785ed0b3e7134fc28f2e25645070fcaff673fc",
          "transactionIndex": "0x1",
          "logIndex": "0x2",
          "removed": false
        }
      ],
      "logsBloom": "0x00000000000000000000800000001000000000000800004000000001000000000000000000000000000000000000000000002000000000000000000000800000000000002000000000000008000000000000000000000000000000000000040000100000000000000000000002000400000000010000000004000010000000000000000000000000000000000000000000040000000400000000000000000000040000000000000000000000000000000080000000000000000000000000000000000002000000000000000000004000000008000000000100000000000000000000000000000000000000000000000000004000000000000000800000400000",
      "type": "0x2",
      "transactionHash": "0xd0b583728db9968b288125b259785ed0b3e7134fc28f2e25645070fcaff673fc",
      "transactionIndex": "0x1",
      "blockHash": "0x82bc5e35adf4e62b0686093aef6d020c0980dffdef0b7aa22c72cf2d533ef510",
      "blockNumber": "0x4478b4b",
      "gasUsed": "0x4d749",
      "effectiveGasPrice": "0x3b9aca01",
      "from": "0xa55e7e6dcebd02ea56d2f268fa22a50c807d759f",
      "to": "0xd384b9908baf9fd39cf75a51a45102b4c19d953c",
      "contractAddress": null
    }
  ],
  "libraries": [],
  "pending": [],
  "returns": {},
  "timestamp": 1770511191350,
  "chain": 57054,
  "commit": "d786b9f"
}