{
  "transactions": [
    {
      "hash": "0x06fe48862589cec20011589b873760f24c6132e0e0303dc9120022a33092d43f",
      "transactionType": "CALL",
      "contractName": null,
      "contractAddress": "0xd384b9908baf9fd39cf75a51a45102b4c19d953c",
      "function": "setFeeConfig(address,uint256,uint256)",
      "arguments": [
        "0x375E2A148102bF179AE7743A28A34cF959bE9499",
        "1000",
        "1000000000000000000000"
      ],
      "transaction": {
        "from": "0xa55e7e6dcebd02ea56d2f268fa22a50c807d759f",
        "to": "0xd384b9908baf9fd39cf75a51a45102b4c19d953c",
        "gas": "0x1cd8c",
        "value": "0x0",
        "input": "0x236fcdac000000000000000000000000375e2a148102bf179ae7743a28a34cf959be949900000000000000000000000000000000000000000000000000000000000003e800000000000000000000000000000000000000000000003635c9adc5dea00000",
        "nonce": "0x6",
        "chainId": "0x15eb"
      },
      "additionalContracts": [],
      "isFixedGasLimit": false
    },
    {
      "hash": "0x6f7915e0badf5e21585f23c87bd629b1814071134e527f606e36ef35c6dd731a",
      "transactionType": "CALL",
      "contractName": null,
      "contractAddress": "0xd384b9908baf9fd39cf75a51a45102b4c19d953c",
      "function": "initDAppConfig(string,address,string)",
      "arguments": [
        "v1.ctm.continuumdao",
        "0x375E2A148102bF179AE7743A28A34cF959bE9499",
        "{\\\"version\\\":1,\\\"name\\\":\\\"CTM\\\",\\\"description\\\":\\\"CTM\\\",\\\"email\\\":\\\"continuumdao@proton.me\\\",\\\"url\\\":\\\"continuumdao.org\\\"}"
      ],
      "transaction": {
        "from": "0xa55e7e6dcebd02ea56d2f268fa22a50c807d759f",
        "to": "0xd384b9908baf9fd39cf75a51a45102b4c19d953c",
        "gas": "0x601cc",
        "value": "0x0",
        "input": "0x4152ded30000000000000000000000000000000000000000000000000000000000000060000000000000000000000000375e2a148102bf179ae7743a28a34cf959be949900000000000000000000000000000000000000000000000000000000000000a0000000000000000000000000000000000000000000000000000000000000001376312e63746d2e636f6e74696e75756d64616f0000000000000000000000000000000000000000000000000000000000000000000000000000000000000000687b2276657273696f6e223a312c226e616d65223a2243544d222c226465736372697074696f6e223a2243544d222c22656d61696c223a22636f6e74696e75756d64616f4070726f746f6e2e6d65222c2275726c223a22636f6e74696e75756d64616f2e6f7267227d000000000000000000000000000000000000000000000000",
        "nonce": "0x7",
        "chainId": "0x15eb"
      },
      "additionalContracts": [],
      "isFixedGasLimit": false
    }
  ],
  "receipts": [
    {
      "status": "0x1",
      "cumulativeGasUsed": "0x22b13",
      "logs": [
        {
          "address": "0xd384b9908baf9fd39cf75a51a45102b4c19d953c",
          "topics": [
            "0xf7b44c590ebdaf47d8d8765552f0c28b1d998703ab4d9e29aefbc1980d8ab8a4",
            "0x000000000000000000000000375e2a148102bf179ae7743a28a34cf959be9499"
          ],
          "data": "0x00000000000000000000000000000000000000000000000000000000000003e800000000000000000000000000000000000000000000003635c9adc5dea00000",
          "blockHash": "0xbe9b7857f4a3e6d5d15bac8e9c701a2857b1a9348c80b96a1359a8def5ba67e8",
          "blockNumber": "0x78eea83",
          "transactionHash": "0x06fe48862589cec20011589b873760f24c6132e0e0303dc9120022a33092d43f",
          "transactionIndex": "0x1",
          "logIndex": "0x0",
          "removed": false
        }
      ],
      "logsBloom": "0x00000000000000000000000000000000000000000000000000000000000000000000000000000000000000000000000000000000000000000000000000800000000000000000000000000000000000000000000000000000000000000000000000000000000000000000000000000000000000000000000004000000000000000000000000000000000000000000000000040000000001000000000000000000040000000000000000000000000001000080000000000000000000000000000000000000000000000000000000004000000000000000000000000000000000000000000000000000000000000000000000000000000000040000000000000000",
      "type": "0x2",
      "transactionHash": "0x06fe48862589cec20011589b873760f24c6132e0e0303dc9120022a33092d43f",
      "transactionIndex": "0x1",
      "blockHash": "0xbe9b7857f4a3e6d5d15bac8e9c701a2857b1a9348c80b96a1359a8def5ba67e8",
      "blockNumber": "0x78eea83",
      "gasUsed": "0x16a00",
      "effectiveGasPrice": "0x1",
      "from": "0xa55e7e6dcebd02ea56d2f268fa22a50c807d759f",
      "to": "0xd384b9908baf9fd39cf75a51a45102b4c19d953c",
      "contractAddress": null,
      "l1BaseFeeScalar": "0x109a0",
      "l1BlobBaseFee": "0x1",
      "l1BlobBaseFeeScalar": "0x9fe98",
      "l1Fee": "0x35804a041",
      "l1GasPrice": "0x7de2900",
      "l1GasUsed": "0x640"
    },
    {
      "status": "0x1",
      "cumulativeGasUsed": "0x57732",
      "logs": [
        {
          "address": "0x375e2a148102bf179ae7743a28a34cf959be9499",
          "topics": [
            "0xddf252ad1be2c89b69c2b068fc378daa952ba7f163c4a11628f55a4df523b3ef",
            "0x000000000000000000000000a55e7e6dcebd02ea56d2f268fa22a50c807d759f",
            "0x000000000000000000000000d384b9908baf9fd39cf75a51a45102b4c19d953c"
          ],
          "data": "0x0000000000000000000000000000000000000000000000000000000000000000",
          "blockHash": "0xf01623ceface5a15a5177e282cff4384215ba85ad168ff863a97276cae61c6ae",
          "blockNumber": "0x78eea8f",
          "transactionHash": "0x6f7915e0badf5e21585f23c87bd629b1814071134e527f606e36ef35c6dd731a",
          "transactionIndex": "0x1",
          "logIndex": "0x0",
          "removed": false
        },
        {
          "address": "0xd384b9908baf9fd39cf75a51a45102b4c19d953c",
          "topics": [
            "0xd36a2f67d06d285786f61a32b052b9ace6b0b7abef5177b54358abdc83a0b69b",
            "0xfb6baa755e2066441b7ccc1927affcad67f35bc74df43ca450ef556c9eefa449",
            "0x000000000000000000000000375e2a148102bf179ae7743a28a34cf959be9499"
          ],
          "data": "0x00000000000000000000000000000000000000000000000000000000000000000000000000000000000000000000000000000000000000000000000000000000",
          "blockHash": "0xf01623ceface5a15a5177e282cff4384215ba85ad168ff863a97276cae61c6ae",
          "blockNumber": "0x78eea8f",
          "transactionHash": "0x6f7915e0badf5e21585f23c87bd629b1814071134e527f606e36ef35c6dd731a",
          "transactionIndex": "0x1",
          "logIndex": "0x1",
          "removed": false
        },
        {
          "address": "0xd384b9908baf9fd39cf75a51a45102b4c19d953c",
          "topics": [
            "0x4564145733c9ac3a0429b20c860daa8d883061806177bd8b13930c6899968f38",
            "0xfb6baa755e2066441b7ccc1927affcad67f35bc74df43ca450ef556c9eefa449",
            "0x000000000000000000000000a55e7e6dcebd02ea56d2f268fa22a50c807d759f",
            "0x000000000000000000000000375e2a148102bf179ae7743a28a34cf959be9499"
          ],
          "data": "0x00000000000000000000000000000000000000000000000000000000000000400000000000000000000000000000000000000000000000000000000000000080000000000000000000000000000000000000000000000000000000000000001376312e63746d2e636f6e74696e75756d64616f0000000000000000000000000000000000000000000000000000000000000000000000000000000000000000687b2276657273696f6e223a312c226e616d65223a2243544d222c226465736372697074696f6e223a2243544d222c22656d61696c223a22636f6e74696e75756d64616f4070726f746f6e2e6d65222c2275726c223a22636f6e74696e75756d64616f2e6f7267227d000000000000000000000000000000000000000000000000",
          "blockHash": "0xf01623ceface5a15a5177e282cff4384215ba85ad168ff863a97276cae61c6ae",
          "blockNumber": "0x78eea8f",
          "transactionHash": "0x6f7915e0badf5e21585f23c87bd629b1814071134e527f606e36ef35c6dd731a",
          "transactionIndex": "0x1",
          "logIndex": "0x2",
          "removed": false
        }
      ],
      "logsBloom": "0x00000000000000000000800000001000000000000800004000000001000000000000000000000000000000000000000000002000000000000000000000800000000000002000000000000008000000000000000000000000000000000000040000100000000000000000000002000400000000010000000004000010000000000000000000000000000000000000000000040000000400000000000000000000040000000000000000000000000000000080000000000000000000000000000000000002000000000000000000004000000008000000000100000000000000000000000000000000000000000000000000004000000000000000800000400000",
      "type": "0x2",
      "transactionHash": "0x6f7915e0badf5e21585f23c87bd629b1814071134e527f606e36ef35c6dd731a",
      "transactionIndex": "0x1",
      "blockHash": "0xf01623ceface5a15a5177e282cff4384215ba85ad168ff863a97276cae61c6ae",
      "blockNumber": "0x78eea8f",
      "gasUsed": "0x4b61f",
      "effectiveGasPrice": "0x1",
      "from": "0xa55e7e6dcebd02ea56d2f268fa22a50c807d759f",
      "to": "0xd384b9908baf9fd39cf75a51a45102b4c19d953c",
      "contractAddress": null,
      "l1BaseFeeScalar": "0x109a0",
      "l1BlobBaseFee": "0x1",
      "l1BlobBaseFeeScalar": "0x9fe98",
      "l1Fee": "0x619a8995d",
      "l1GasPrice": "0x7de2900",
      "l1GasUsed": "0xb66"
    }
  ],
  "libraries": [],
  "pending": [],
  "returns": {},
  "timestamp": 1770510994955,
  "chain": 5611,
  "commit": "d786b9f"
}