{
  "transactions": [
    {
      "hash": "0x177246e7ec75372c8820d27df1d8d84d70e6ddcdd46a01c95fb0a995bbd4fbe6",
      "transactionType": "CALL",
      "contractName": null,
      "contractAddress": "0xd384b9908baf9fd39cf75a51a45102b4c19d953c",
      "function": "setFeeConfig(address,uint256,uint256)",
      "arguments": [
        "0x70b52c6cDDA7C6b881DE77196EdFDF5a704b55f2",
        "1000",
        "200000000000000"
      ],
      "transaction": {
        "from": "0xa55e7e6dcebd02ea56d2f268fa22a50c807d759f",
        "to": "0xd384b9908baf9fd39cf75a51a45102b4c19d953c",
        "gas": "0x128bc",
        "value": "0x0",
        "input": "0x236fcdac00000000000000000000000070b52c6cdda7c6b881de77196edfdf5a704b55f200000000000000000000000000000000000000000000000000000000000003e80000000000000000000000000000000000000000000000000000b5e620f48000",
        "nonce": "0x66",
        "chainId": "0x12c1"
      },
      "additionalContracts": [],
      "isFixedGasLimit": false
    }
  ],
  "receipts": [
    {
      "status": "0x1",
      "cumulativeGasUsed": "0x14014",
      "logs": [
        {
          "address": "0xd384b9908baf9fd39cf75a51a45102b4c19d953c",
          "topics": [
            "0xf7b44c590ebdaf47d8d8765552f0c28b1d998703ab4d9e29aefbc1980d8ab8a4",
            "0x00000000000000000000000070b52c6cdda7c6b881de77196edfdf5a704b55f2"
          ],
          "data": "0x00000000000000000000000000000000000000000000000000000000000003e80000000000000000000000000000000000000000000000000000b5e620f48000",
          "blockHash": "0x60abf357ea50b691d829bbb364ef7b0ee03cfa127914215e09d05a2cac053b4f",
          "blockNumber": "0x1821afd",
          "blockTimestamp": "0x6991ae5a",
          "transactionHash": "0x177246e7ec75372c8820d27df1d8d84d70e6ddcdd46a01c95fb0a995bbd4fbe6",
          "transactionIndex": "0x1",
          "logIndex": "0x0",
          "removed": false
        }
      ],
      "logsBloom": "0x00000000000000000000000000000000000000000000000000000000000000000000000000000000080000000000000000000000000000000000000000800000000000000000000000000000000000000000000000000000000000000000000000000000000000000000000000000000010000000000000000000000000000000000000000000000000000000000000000040000000001000000000000000000040000000000000000000000000001000000000000000000000000004000000000000000000000000000000000000000000000000000000000000000000000000000000000000000000000000000000000000000000000040000000000000000",
      "type": "0x0",
      "transactionHash": "0x177246e7ec75372c8820d27df1d8d84d70e6ddcdd46a01c95fb0a995bbd4fbe6",
      "transactionIndex": "0x1",
      "blockHash": "0x60abf357ea50b691d829bbb364ef7b0ee03cfa127914215e09d05a2cac053b4f",
      "blockNumber": "0x1821afd",
      "gasUsed": "0x8ba4",
      "effectiveGasPrice": "0xf4c05",
      "from": "0xa55e7e6dcebd02ea56d2f268fa22a50c807d759f",
      "to": "0xd384b9908baf9fd39cf75a51a45102b4c19d953c",
      "contractAddress": null,
      "l1BaseFeeScalar": "0x558",
      "l1BlobBaseFee": "0xe36d8cc",
      "l1BlobBaseFeeScalar": "0xc5fc5",
      "l1Fee": "0x716dd67e6",
      "l1GasPrice": "0x12e85da69",
      "l1GasUsed": "0x640"
    }
  ],
  "libraries": [],
  "pending": [],
  "returns": {},
  "timestamp": 1771155035804,
  "chain": 4801,
  "commit": "d786b9f"
}