{
  "transactions": [
    {
      "hash": "0xfebf9600f14d25adef1bf33a2e76c637a7454ca04adde8a591a766db75d8705a",
      "transactionType": "CALL",
      "contractName": null,
      "contractAddress": "0xd384b9908baf9fd39cf75a51a45102b4c19d953c",
      "function": "removeFeeConfig(address)",
      "arguments": [
        "0x375E2A148102bF179AE7743A28A34cF959bE9499"
      ],
      "transaction": {
        "from": "0xa55e7e6dcebd02ea56d2f268fa22a50c807d759f",
        "to": "0xd384b9908baf9fd39cf75a51a45102b4c19d953c",
        "gas": "0xff5c",
        "value": "0x0",
        "input": "0xfd1e33d5000000000000000000000000375e2a148102bf179ae7743a28a34cf959be9499",
        "nonce": "0x60",
        "chainId": "0x34816e"
      },
      "additionalContracts": [],
      "isFixedGasLimit": false
    },
    {
      "hash": "0x0dc316033b2054f7bcdb03dd59c682f7f5418e1315a44128051e48e115402c85",
      "transactionType": "CALL",
      "contractName": null,
      "contractAddress": "0xd384b9908baf9fd39cf75a51a45102b4c19d953c",
      "function": "setFeeConfig(address,uint256,uint256)",
      "arguments": [
        "0x70b52c6cDDA7C6b881DE77196EdFDF5a704b55f2",
        "1000",
        "4000000000000000000000"
      ],
      "transaction": {
        "from": "0xa55e7e6dcebd02ea56d2f268fa22a50c807d759f",
        "to": "0xd384b9908baf9fd39cf75a51a45102b4c19d953c",
        "gas": "0x30140",
        "value": "0x0",
        "input": "0x236fcdac00000000000000000000000070b52c6cdda7c6b881de77196edfdf5a704b55f200000000000000000000000000000000000000000000000000000000000003e80000000000000000000000000000000000000000000000d8d726b7177a800000",
        "nonce": "0x61",
        "chainId": "0x34816e"
      },
      "additionalContracts": [],
      "isFixedGasLimit": false
    },
    {
      "hash": "0xc6c4290d3f4fc79c9be3e7bbf1c0e345bc09ea9d4e55eaaf4be62558825adc99",
      "transactionType": "CALL",
      "contractName": null,
      "contractAddress": "0xd384b9908baf9fd39cf75a51a45102b4c19d953c",
      "function": "setFeeMinimumDeposit(address,uint256)",
      "arguments": [
        "0x70b52c6cDDA7C6b881DE77196EdFDF5a704b55f2",
        "100000000"
      ],
      "transaction": {
        "from": "0xa55e7e6dcebd02ea56d2f268fa22a50c807d759f",
        "to": "0xd384b9908baf9fd39cf75a51a45102b4c19d953c",
        "gas": "0x19fee",
        "value": "0x0",
        "input": "0x2edcab0200000000000000000000000070b52c6cdda7c6b881de77196edfdf5a704b55f20000000000000000000000000000000000000000000000000000000005f5e100",
        "nonce": "0x62",
        "chainId": "0x34816e"
      },
      "additionalContracts": [],
      "isFixedGasLimit": false
    },
    {
      "hash": "0x05ddd95342742968c2904acb9dba9600301424f6333e56813832c41df0549b3a",
      "transactionType": "CALL",
      "contractName": null,
      "contractAddress": "0xd384b9908baf9fd39cf75a51a45102b4c19d953c",
      "function": "updateDAppConfig(uint256,address,address,string)",
      "arguments": [
        "113720754091436548845938865822419147096105237861509221546363423289715574416457",
        "0xa55E7E6dCEBD02eA56d2f268fA22A50C807D759f",
        "0x70b52c6cDDA7C6b881DE77196EdFDF5a704b55f2",
        "{\\\"version\\\":1,\\\"name\\\":\\\"CTM\\\",\\\"description\\\":\\\"CTM\\\",\\\"email\\\":\\\"continuumdao@proton.me\\\",\\\"url\\\":\\\"continuumdao.org\\\"}"
      ],
      "transaction": {
        "from": "0xa55e7e6dcebd02ea56d2f268fa22a50c807d759f",
        "to": "0xd384b9908baf9fd39cf75a51a45102b4c19d953c",
        "gas": "0x21df8",
        "value": "0x0",
        "input": "0x825d065ffb6baa755e2066441b7ccc1927affcad67f35bc74df43ca450ef556c9eefa449000000000000000000000000a55e7e6dcebd02ea56d2f268fa22a50c807d759f00000000000000000000000070b52c6cdda7c6b881de77196edfdf5a704b55f2000000000000000000000000000000000000000000000000000000000000008000000000000000000000000000000000000000000000000000000000000000687b2276657273696f6e223a312c226e616d65223a2243544d222c226465736372697074696f6e223a2243544d222c22656d61696c223a22636f6e74696e75756d64616f4070726f746f6e2e6d65222c2275726c223a22636f6e74696e75756d64616f2e6f7267227d000000000000000000000000000000000000000000000000",
        "nonce": "0x63",
        "chainId": "0x34816e"
      },
      "additionalContracts": [],
      "isFixedGasLimit": false
    },
    {
      "hash": "0x17734603979a1d681588185e60d57c7cefac027dbcf81604860e29e9dcbe6e08",
      "transactionType": "CALL",
      "contractName": null,
      "contractAddress": "0x70b52c6cdda7c6b881de77196edfdf5a704b55f2",
      "function": "approve(address,uint256)",
      "arguments": [
        "0xD384b9908baF9fD39Cf75A51A45102b4C19d953c",
        "1000000000"
      ],
      "transaction": {
        "from": "0xa55e7e6dcebd02ea56d2f268fa22a50c807d759f",
        "to": "0x70b52c6cdda7c6b881de77196edfdf5a704b55f2",
        "gas": "0x1939a",
        "value": "0x0",
        "input": "0x095ea7b3000000000000000000000000d384b9908baf9fd39cf75a51a45102b4c19d953c000000000000000000000000000000000000000000000000000000003b9aca00",
        "nonce": "0x64",
        "chainId": "0x34816e"
      },
      "additionalContracts": [],
      "isFixedGasLimit": false
    },
    {
      "hash": "0xd335835ccb33d0f7624e12582755795de33ead40349757d9d04adfd4f5f9e9c5",
      "transactionType": "CALL",
      "contractName": null,
      "contractAddress": "0xd384b9908baf9fd39cf75a51a45102b4c19d953c",
      "function": "deposit(uint256,address,uint256)",
      "arguments": [
        "113720754091436548845938865822419147096105237861509221546363423289715574416457",
        "0x70b52c6cDDA7C6b881DE77196EdFDF5a704b55f2",
        "1000000000"
      ],
      "transaction": {
        "from": "0xa55e7e6dcebd02ea56d2f268fa22a50c807d759f",
        "to": "0xd384b9908baf9fd39cf75a51a45102b4c19d953c",
        "gas": "0x34f26",
        "value": "0x0",
        "input": "0xbc157ac1fb6baa755e2066441b7ccc1927affcad67f35bc74df43ca450ef556c9eefa44900000000000000000000000070b52c6cdda7c6b881de77196edfdf5a704b55f2000000000000000000000000000000000000000000000000000000003b9aca00",
        "nonce": "0x65",
        "chainId": "0x34816e"
      },
      "additionalContracts": [],
      "isFixedGasLimit": false
    }
  ],
  "receipts": [
    {
      "status": "0x1",
      "cumulativeGasUsed": "0x1236b",
      "logs": [
        {
          "address": "0xd384b9908baf9fd39cf75a51a45102b4c19d953c",
          "topics": [
            "0x635597d427bb89928f8f4c67299e0a29167b75e80dc42c9b63072f9ed8de3373",
            "0x000000000000000000000000375e2a148102bf179ae7743a28a34cf959be9499"
          ],
          "data": "0x",
          "blockHash": "0x5d39e3befab52f541b6d1aead8dc9034742ed457b0cb35aa2f3b20f8e40bea04",
          "blockNumber": "0x602954",
          "blockTimestamp": "0x6991ab1c",
          "transactionHash": "0xfebf9600f14d25adef1bf33a2e76c637a7454ca04adde8a591a766db75d8705a",
          "transactionIndex": "0x1",
          "logIndex": "0x0",
          "removed": false
        }
      ],
      "logsBloom": "0x00000000000000000000000000000000000000000000000000000000000000000000008000000000000000000000000000000000000000000000000000800000000000000000000000000000000000000000000000000000000000000000000000000000000000000000000000000000000000000000000004000000000000000000000000000000000000000000000000040000000000000000000000000000040000000000000000000000000000000080000000000000000000000000000000000000000000000000000000004000000000000000000000000000000000000000000000010000000001000000000000000000000000000000000000000000",
      "type": "0x0",
      "transactionHash": "0xfebf9600f14d25adef1bf33a2e76c637a7454ca04adde8a591a766db75d8705a",
      "transactionIndex": "0x1",
      "blockHash": "0x5d39e3befab52f541b6d1aead8dc9034742ed457b0cb35aa2f3b20f8e40bea04",
      "blockNumber": "0x602954",
      "gasUsed": "0x782c",
      "effectiveGasPrice": "0x2dc7bc",
      "from": "0xa55e7e6dcebd02ea56d2f268fa22a50c807d759f",
      "to": "0xd384b9908baf9fd39cf75a51a45102b4c19d953c",
      "contractAddress": null,
      "l1BaseFeeScalar": "0x7530",
      "l1BlobBaseFee": "0xec17e58",
      "l1BlobBaseFeeScalar": "0x0",
      "l1Fee": "0x3f74c8c226",
      "l1GasPrice": "0x105d7fdd9",
      "l1GasUsed": "0x814"
    },
    {
      "status": "0x1",
      "cumulativeGasUsed": "0x240e7",
      "logs": [
        {
          "address": "0xd384b9908baf9fd39cf75a51a45102b4c19d953c",
          "topics": [
            "0xf7b44c590ebdaf47d8d8765552f0c28b1d998703ab4d9e29aefbc1980d8ab8a4",
            "0x00000000000000000000000070b52c6cdda7c6b881de77196edfdf5a704b55f2"
          ],
          "data": "0x00000000000000000000000000000000000000000000000000000000000003e80000000000000000000000000000000000000000000000d8d726b7177a800000",
          "blockHash": "0x7adfdd458c18875bafbd2f98a4a4fe94785ced71e8620a3e9408b3c110050488",
          "blockNumber": "0x602955",
          "blockTimestamp": "0x6991ab26",
          "transactionHash": "0x0dc316033b2054f7bcdb03dd59c682f7f5418e1315a44128051e48e115402c85",
          "transactionIndex": "0x1",
          "logIndex": "0x0",
          "removed": false
        }
      ],
      "logsBloom": "0x00000000000000000000000000000000000000000000000000000000000000000000000000000000080000000000000000000000000000000000000000800000000000000000000000000000000000000000000000000000000000000000000000000000000000000000000000000000010000000000000000000000000000000000000000000000000000000000000000040000000001000000000000000000040000000000000000000000000001000000000000000000000000004000000000000000000000000000000000000000000000000000000000000000000000000000000000000000000000000000000000000000000000040000000000000000",
      "type": "0x0",
      "transactionHash": "0x0dc316033b2054f7bcdb03dd59c682f7f5418e1315a44128051e48e115402c85",
      "transactionIndex": "0x1",
      "blockHash": "0x7adfdd458c18875bafbd2f98a4a4fe94785ced71e8620a3e9408b3c110050488",
      "blockNumber": "0x602955",
      "gasUsed": "0x16a00",
      "effectiveGasPrice": "0x2dc7bc",
      "from": "0xa55e7e6dcebd02ea56d2f268fa22a50c807d759f",
      "to": "0xd384b9908baf9fd39cf75a51a45102b4c19d953c",
      "contractAddress": null,
      "l1BaseFeeScalar": "0x7530",
      "l1BlobBaseFee": "0xefa6a93",
      "l1BlobBaseFeeScalar": "0x0",
      "l1Fee": "0x484a84bf8c",
      "l1GasPrice": "0xfa5bd6d1",
      "l1GasUsed": "0x9a0"
    },
    {
      "status": "0x1",
      "cumulativeGasUsed": "0x18fb3",
      "logs": [
        {
          "address": "0xd384b9908baf9fd39cf75a51a45102b4c19d953c",
          "topics": [
            "0x329bcb4e5cb7d1fa89c2b4f4d1b07d8d25cd7f6f93f5f27047755895b0dad462",
            "0x00000000000000000000000070b52c6cdda7c6b881de77196edfdf5a704b55f2"
          ],
          "data": "0x0000000000000000000000000000000000000000000000000000000005f5e100",
          "blockHash": "0xef9252d34458ef4132ff7a8531c84ab2095520fab3cb96104921fb10f0c51ba8",
          "blockNumber": "0x602956",
          "blockTimestamp": "0x6991ab30",
          "transactionHash": "0xc6c4290d3f4fc79c9be3e7bbf1c0e345bc09ea9d4e55eaaf4be62558825adc99",
          "transactionIndex": "0x1",
          "logIndex": "0x0",
          "removed": false
        }
      ],
      "logsBloom": "0x00000000000000200000000000000000000000000000000000000000000000000000000000000000080000000000000000000000000000000000000000800000000000000000000000000000000000000000000000080000000000000000000080000000000000000000000000000000010000000000000000000000000000000000000000000000000000000000000000040000000000000000000000000000040000000000000000000000000000000000000000000000000000004000000000000000000000000000000000000000000000000000000000000000000000000000000000000000000000000000000000000000000000000000000000000000",
      "type": "0x0",
      "transactionHash": "0xc6c4290d3f4fc79c9be3e7bbf1c0e345bc09ea9d4e55eaaf4be62558825adc99",
      "transactionIndex": "0x1",
      "blockHash": "0xef9252d34458ef4132ff7a8531c84ab2095520fab3cb96104921fb10f0c51ba8",
      "blockNumber": "0x602956",
      "gasUsed": "0xc3bc",
      "effectiveGasPrice": "0x2dc7bc",
      "from": "0xa55e7e6dcebd02ea56d2f268fa22a50c807d759f",
      "to": "0xd384b9908baf9fd39cf75a51a45102b4c19d953c",
      "contractAddress": null,
      "l1BaseFeeScalar": "0x7530",
      "l1BlobBaseFee": "0xfb96834",
      "l1BlobBaseFeeScalar": "0x0",
      "l1Fee": "0x3ef2f3590b",
      "l1GasPrice": "0xed4381ea",
      "l1GasUsed": "0x8d8"
    },
    {
      "status": "0x1",
      "cumulativeGasUsed": "0x1caf7",
      "logs": [
        {
          "address": "0xd384b9908baf9fd39cf75a51a45102b4c19d953c",
          "topics": [
            "0x8c1ec1ba18731ac19ff6089bc9470a71fb6b885ee0c64e8415e2599a41e55019",
            "0xfb6baa755e2066441b7ccc1927affcad67f35bc74df43ca450ef556c9eefa449",
            "0x000000000000000000000000a55e7e6dcebd02ea56d2f268fa22a50c807d759f",
            "0x00000000000000000000000070b52c6cdda7c6b881de77196edfdf5a704b55f2"
          ],
          "data": "0x000000000000000000000000000000000000000000000000000000000000002000000000000000000000000000000000000000000000000000000000000000687b2276657273696f6e223a312c226e616d65223a2243544d222c226465736372697074696f6e223a2243544d222c22656d61696c223a22636f6e74696e75756d64616f4070726f746f6e2e6d65222c2275726c223a22636f6e74696e75756d64616f2e6f7267227d000000000000000000000000000000000000000000000000",
          "blockHash": "0x85f715acb283f08c0fc6a513756b394f2b1a6f42b71d900479a8a4963a8ffdcb",
          "blockNumber": "0x602957",
          "blockTimestamp": "0x6991ab3a",
          "transactionHash": "0x05ddd95342742968c2904acb9dba9600301424f6333e56813832c41df0549b3a",
          "transactionIndex": "0x1",
          "logIndex": "0x0",
          "removed": false
        }
      ],
      "logsBloom": "0x00000000000000000000800000000000000000000000004000000001000000000000000002000000080000000000000000000000000000000000000000800000000000000000000000000000000000000000000000000000000000000000000000100000000000000000000002000400010000000000000000000000000000000000000000000000000000000000000000040000000000000000000000000001040000000000000000000000000000000000000000000000000000004000000000000000000000000000000000000000000000000000000000000000000000000000040000000000000000000000000000000000000000000000000000000000",
      "type": "0x0",
      "transactionHash": "0x05ddd95342742968c2904acb9dba9600301424f6333e56813832c41df0549b3a",
      "transactionIndex": "0x1",
      "blockHash": "0x85f715acb283f08c0fc6a513756b394f2b1a6f42b71d900479a8a4963a8ffdcb",
      "blockNumber": "0x602957",
      "gasUsed": "0xff0c",
      "effectiveGasPrice": "0x2dc7bc",
      "from": "0xa55e7e6dcebd02ea56d2f268fa22a50c807d759f",
      "to": "0xd384b9908baf9fd39cf75a51a45102b4c19d953c",
      "contractAddress": null,
      "l1BaseFeeScalar": "0x7530",
      "l1BlobBaseFee": "0xe0e43c7",
      "l1BlobBaseFeeScalar": "0x0",
      "l1Fee": "0x8496aa48d1",
      "l1GasPrice": "0xdff48e80",
      "l1GasUsed": "0x13bc"
    },
    {
      "status": "0x1",
      "cumulativeGasUsed": "0x17f58",
      "logs": [
        {
          "address": "0x70b52c6cdda7c6b881de77196edfdf5a704b55f2",
          "topics": [
            "0x8c5be1e5ebec7d5bd14f71427d1e84f3dd0314c0f7b2291e5b200ac8c7c3b925",
            "0x000000000000000000000000a55e7e6dcebd02ea56d2f268fa22a50c807d759f",
            "0x000000000000000000000000d384b9908baf9fd39cf75a51a45102b4c19d953c"
          ],
          "data": "0x000000000000000000000000000000000000000000000000000000003b9aca00",
          "blockHash": "0xfaced8c6919b140fa821602742de73b6c8be471a006c719187f63a764015e618",
          "blockNumber": "0x602958",
          "blockTimestamp": "0x6991ab44",
          "transactionHash": "0x17734603979a1d681588185e60d57c7cefac027dbcf81604860e29e9dcbe6e08",
          "transactionIndex": "0x1",
          "logIndex": "0x0",
          "removed": false
        }
      ],
      "logsBloom": "0x00000000000000000000000000000000000000000000004000000001000000000000000000000000000000000000000000000000000020000000010000200000000000000000000000000000000000000000000000000000000000000000000000000000000000000000000002000000000000000000000000000000000000000000000000000000000000000000000000000000000400000000000000000040020000000000000000000000000000000000000000000000000000000000000000000000000000000000000000000000000000000000000000000000000000000010000000000000000000000000000000004000000000000000000000400000",
      "type": "0x0",
      "transactionHash": "0x17734603979a1d681588185e60d57c7cefac027dbcf81604860e29e9dcbe6e08",
      "transactionIndex": "0x1",
      "blockHash": "0xfaced8c6919b140fa821602742de73b6c8be471a006c719187f63a764015e618",
      "blockNumber": "0x602958",
      "gasUsed": "0xb361",
      "effectiveGasPrice": "0x2dc7bc",
      "from": "0xa55e7e6dcebd02ea56d2f268fa22a50c807d759f",
      "to": "0x70b52c6cdda7c6b881de77196edfdf5a704b55f2",
      "contractAddress": null,
      "l1BaseFeeScalar": "0x7530",
      "l1BlobBaseFee": "0xc6c918c",
      "l1BlobBaseFeeScalar": "0x0",
      "l1Fee": "0x427c749a5c",
      "l1GasPrice": "0xfbee5339",
      "l1GasUsed": "0x8cc"
    },
    {
      "status": "0x1",
      "cumulativeGasUsed": "0x24486",
      "logs": [
        {
          "address": "0x70b52c6cdda7c6b881de77196edfdf5a704b55f2",
          "topics": [
            "0xddf252ad1be2c89b69c2b068fc378daa952ba7f163c4a11628f55a4df523b3ef",
            "0x000000000000000000000000a55e7e6dcebd02ea56d2f268fa22a50c807d759f",
            "0x000000000000000000000000d384b9908baf9fd39cf75a51a45102b4c19d953c"
          ],
          "data": "0x000000000000000000000000000000000000000000000000000000003b9aca00",
          "blockHash": "0x4527c5f78ce8817fae6eba5d279081f7d3cca5906d99b431bc00a9f5f5667508",
          "blockNumber": "0x602959",
          "blockTimestamp": "0x6991ab4e",
          "transactionHash": "0xd335835ccb33d0f7624e12582755795de33ead40349757d9d04adfd4f5f9e9c5",
          "transactionIndex": "0x1",
          "logIndex": "0x0",
          "removed": false
        },
        {
          "address": "0xd384b9908baf9fd39cf75a51a45102b4c19d953c",
          "topics": [
            "0xd36a2f67d06d285786f61a32b052b9ace6b0b7abef5177b54358abdc83a0b69b",
            "0xfb6baa755e2066441b7ccc1927affcad67f35bc74df43ca450ef556c9eefa449",
            "0x00000000000000000000000070b52c6cdda7c6b881de77196edfdf5a704b55f2"
          ],
          "data": "0x000000000000000000000000000000000000000000000000000000003b9aca00000000000000000000000000000000000000000000000000000000003b9aca00",
          "blockHash": "0x4527c5f78ce8817fae6eba5d279081f7d3cca5906d99b431bc00a9f5f5667508",
          "blockNumber": "0x602959",
          "blockTimestamp": "0x6991ab4e",
          "transactionHash": "0xd335835ccb33d0f7624e12582755795de33ead40349757d9d04adfd4f5f9e9c5",
          "transactionIndex": "0x1",
          "logIndex": "0x1",
          "removed": false
        }
      ],
      "logsBloom": "0x00000000000000000000800000000000000000000000004000000001000000000000000000000000080000000000000000000000000020000000010000800000000000000000000000000008000000000000000000000000000000000000000000100000000000000000000002000400010000000000000000000010000000000000000000000000000000000000000000040000000400000000000000000040040000000000000000000000000000000000000000000000000000004000000000000002000000000000000000000000000008000000000100000000000000000000000000000000000000000000000000004000000000000000800000400000",
      "type": "0x0",
      "transactionHash": "0xd335835ccb33d0f7624e12582755795de33ead40349757d9d04adfd4f5f9e9c5",
      "transactionIndex": "0x1",
      "blockHash": "0x4527c5f78ce8817fae6eba5d279081f7d3cca5906d99b431bc00a9f5f5667508",
      "blockNumber": "0x602959",
      "gasUsed": "0x17883",
      "effectiveGasPrice": "0x2dc7bc",
      "from": "0xa55e7e6dcebd02ea56d2f268fa22a50c807d759f",
      "to": "0xd384b9908baf9fd39cf75a51a45102b4c19d953c",
      "contractAddress": null,
      "l1BaseFeeScalar": "0x7530",
      "l1BlobBaseFee": "0xc84715c",
      "l1BlobBaseFeeScalar": "0x0",
      "l1Fee": "0x5bc262f85b",
      "l1GasPrice": "0x11b4a2d7a",
      "l1GasUsed": "0xacc"
    }
  ],
  "libraries": [],
  "pending": [],
  "returns": {},
  "timestamp": 1771154255544,
  "chain": 3441006,
  "commit": "d786b9f"
}