{
  "transactions": [
    {
      "hash": "0x57d47801c9ebc3d1dc5dfdaba673c813c2b369d3d78dd2a7c5028df2ad1666f0",
      "transactionType": "CALL",
      "contractName": null,
      "contractAddress": "0xd384b9908baf9fd39cf75a51a45102b4c19d953c",
      "function": "setFeeConfig(address,uint256,uint256)",
      "arguments": [
        "0x375E2A148102bF179AE7743A28A34cF959bE9499",
        "1000",
        "4000000000000000000000"
      ],
      "transaction": {
        "from": "0xa55e7e6dcebd02ea56d2f268fa22a50c807d759f",
        "to": "0xd384b9908baf9fd39cf75a51a45102b4c19d953c",
        "gas": "0x1cd8c",
        "value": "0x0",
        "input": "0x236fcdac000000000000000000000000375e2a148102bf179ae7743a28a34cf959be949900000000000000000000000000000000000000000000000000000000000003e80000000000000000000000000000000000000000000000d8d726b7177a800000",
        "nonce": "0x6",
        "chainId": "0x763"
      },
      "additionalContracts": [],
      "isFixedGasLimit": false
    },
    {
      "hash": "0x3f6317eb1dc2d2ed5a3b1dba11bd319a2e9531509bc36c1e32e921c3239c27e1",
      "transactionType": "CALL",
      "contractName": null,
      "contractAddress": "0xd384b9908baf9fd39cf75a51a45102b4c19d953c",
      "function": "initDAppConfig(string,address,string)",
      "arguments": [
        "v1.ctm.continuumdao",
        "0x375E2A148102bF179AE7743A28A34cF959bE9499",
        "{\\\"version\\\":1,\\\"name\\\":\\\"CTM\\\",\\\"description\\\":\\\"CTM\\\",\\\"email\\\":\\\"continuumdao@proton.me\\\",\\\"url\\\":\\\"continuumdao.org\\\"}"
      ],
      "transaction": {
        "from": "0xa55e7e6dcebd02ea56d2f268fa22a50c807d759f",
        "to": "0xd384b9908baf9fd39cf75a51a45102b4c19d953c",
        "gas": "0x601cc",
        "value": "0x0",
        "input": "0x4152ded30000000000000000000000000000000000000000000000000000000000000060000000000000000000000000375e2a148102bf179ae7743a28a34cf959be949900000000000000000000000000000000000000000000000000000000000000a0000000000000000000000000000000000000000000000000000000000000001376312e63746d2e636f6e74696e75756d64616f0000000000000000000000000000000000000000000000000000000000000000000000000000000000000000687b2276657273696f6e223a312c226e616d65223a2243544d222c226465736372697074696f6e223a2243544d222c22656d61696c223a22636f6e74696e75756d64616f4070726f746f6e2e6d65222c2275726c223a22636f6e74696e75756d64616f2e6f7267227d000000000000000000000000000000000000000000000000",
        "nonce": "0x7",
        "chainId": "0x763"
      },
      "additionalContracts": [],
      "isFixedGasLimit": false
    }
  ],
  "receipts": [
    {
      "status": "0x1",
      "cumulativeGasUsed": "0x16a00",
      "logs": [
        {
          "address": "0xd384b9908baf9fd39cf75a51a45102b4c19d953c",
          "topics": [
            "0xf7b44c590ebdaf47d8d8765552f0c28b1d998703ab4d9e29aefbc1980d8ab8a4",
            "0x000000000000000000000000375e2a148102bf179ae7743a28a34cf959be9499"
          ],
          "data": "0x00000000000000000000000000000000000000000000000000000000000003e80000000000000000000000000000000000000000000000d8d726b7177a800000",
          "blockHash": "0x3490157408a8757bc76afc3cb30210541799475c6c9bd73e420ada675ecc76ef",
          "blockNumber": "0xb7ea5ff",
          "transactionHash": "0x57d47801c9ebc3d1dc5dfdaba673c813c2b369d3d78dd2a7c5028df2ad1666f0",
          "transactionIndex": "0x0",
          "logIndex": "0x0",
          "removed": false
        }
      ],
      "logsBloom": "0x00000000000000000000000000000000000000000000000000000000000000000000000000000000000000000000000000000000000000000000000000800000000000000000000000000000000000000000000000000000000000000000000000000000000000000000000000000000000000000000000004000000000000000000000000000000000000000000000000040000000001000000000000000000040000000000000000000000000001000080000000000000000000000000000000000000000000000000000000004000000000000000000000000000000000000000000000000000000000000000000000000000000000040000000000000000",
      "type": "0x0",
      "transactionHash": "0x57d47801c9ebc3d1dc5dfdaba673c813c2b369d3d78dd2a7c5028df2ad1666f0",
      "transactionIndex": "0x0",
      "blockHash": "0x3490157408a8757bc76afc3cb30210541799475c6c9bd73e420ada675ecc76ef",
      "blockNumber": "0xb7ea5ff",
      "gasUsed": "0x16a00",
      "effectiveGasPrice": "0x0",
      "from": "0xa55e7e6dcebd02ea56d2f268fa22a50c807d759f",
      "to": "0xd384b9908baf9fd39cf75a51a45102b4c19d953c",
      "contractAddress": "0x0000000000000000000000000000000000000000",
      "root": "0xb8203e3628c590eb3cf846855e86575b6014bc3e13cdfa733703fe27ccf97d6d"
    }
  ],
  "libraries": [],
  "pending": [],
  "returns": {},
  "timestamp": 1770513301807,
  "chain": 1891,
  "commit": "d786b9f"
}