{
  "transactions": [
    {
      "hash": "0x36a47e9ab46365ac9749035906b18d1e62d829eae5b4e6765d8ce5764fede17e",
      "transactionType": "CALL",
      "contractName": null,
      "contractAddress": "0xd384b9908baf9fd39cf75a51a45102b4c19d953c",
      "function": "removeFeeConfig(address)",
      "arguments": [
        "0x375E2A148102bF179AE7743A28A34cF959bE9499"
      ],
      "transaction": {
        "from": "0xa55e7e6dcebd02ea56d2f268fa22a50c807d759f",
        "to": "0xd384b9908baf9fd39cf75a51a45102b4c19d953c",
        "gas": "0x8a2d8",
        "value": "0x0",
        "input": "0xfd1e33d5000000000000000000000000375e2a148102bf179ae7743a28a34cf959be9499",
        "nonce": "0x60",
        "chainId": "0x90f7"
      },
      "additionalContracts": [],
      "isFixedGasLimit": false
    },
    {
      "hash": "0x8be241412870e5f86a8aafa658940c65d1ec627a85afc2ec1278bd6c091117ac",
      "transactionType": "CALL",
      "contractName": null,
      "contractAddress": "0xd384b9908baf9fd39cf75a51a45102b4c19d953c",
      "function": "setFeeConfig(address,uint256,uint256)",
      "arguments": [
        "0x70b52c6cDDA7C6b881DE77196EdFDF5a704b55f2",
        "1000",
        "40000000000000000"
      ],
      "transaction": {
        "from": "0xa55e7e6dcebd02ea56d2f268fa22a50c807d759f",
        "to": "0xd384b9908baf9fd39cf75a51a45102b4c19d953c",
        "gas": "0x13ae8a",
        "value": "0x0",
        "input": "0x236fcdac00000000000000000000000070b52c6cdda7c6b881de77196edfdf5a704b55f200000000000000000000000000000000000000000000000000000000000003e8000000000000000000000000000000000000000000000000008e1bc9bf040000",
        "nonce": "0x61",
        "chainId": "0x90f7"
      },
      "additionalContracts": [],
      "isFixedGasLimit": false
    },
    {
      "hash": "0xbf4522868e2197244ac15815482e37c6757aaaedd9e0bdfe18b7e8c49f0b07a6",
      "transactionType": "CALL",
      "contractName": null,
      "contractAddress": "0xd384b9908baf9fd39cf75a51a45102b4c19d953c",
      "function": "setFeeMinimumDeposit(address,uint256)",
      "arguments": [
        "0x70b52c6cDDA7C6b881DE77196EdFDF5a704b55f2",
        "100000000"
      ],
      "transaction": {
        "from": "0xa55e7e6dcebd02ea56d2f268fa22a50c807d759f",
        "to": "0xd384b9908baf9fd39cf75a51a45102b4c19d953c",
        "gas": "0x19fee",
        "value": "0x0",
        "input": "0x2edcab0200000000000000000000000070b52c6cdda7c6b881de77196edfdf5a704b55f20000000000000000000000000000000000000000000000000000000005f5e100",
        "nonce": "0x62",
        "chainId": "0x90f7"
      },
      "additionalContracts": [],
      "isFixedGasLimit": false
    },
    {
      "hash": "0x3912f7d157586808e66ac8de8685d1fb1aa3076c2709acfb88179c9c9f1f7505",
      "transactionType": "CALL",
      "contractName": null,
      "contractAddress": "0xd384b9908baf9fd39cf75a51a45102b4c19d953c",
      "function": "updateDAppConfig(uint256,address,address,string)",
      "arguments": [
        "113720754091436548845938865822419147096105237861509221546363423289715574416457",
        "0xa55E7E6dCEBD02eA56d2f268fA22A50C807D759f",
        "0x70b52c6cDDA7C6b881DE77196EdFDF5a704b55f2",
        "{\\\"version\\\":1,\\\"name\\\":\\\"CTM\\\",\\\"description\\\":\\\"CTM\\\",\\\"email\\\":\\\"continuumdao@proton.me\\\",\\\"url\\\":\\\"continuumdao.org\\\"}"
      ],
      "transaction": {
        "from": "0xa55e7e6dcebd02ea56d2f268fa22a50c807d759f",
        "to": "0xd384b9908baf9fd39cf75a51a45102b4c19d953c",
        "gas": "0x21df8",
        "value": "0x0",
        "input": "0x825d065ffb6baa755e2066441b7ccc1927affcad67f35bc74df43ca450ef556c9eefa449000000000000000000000000a55e7e6dcebd02ea56d2f268fa22a50c807d759f00000000000000000000000070b52c6cdda7c6b881de77196edfdf5a704b55f2000000000000000000000000000000000000000000000000000000000000008000000000000000000000000000000000000000000000000000000000000000687b2276657273696f6e223a312c226e616d65223a2243544d222c226465736372697074696f6e223a2243544d222c22656d61696c223a22636f6e74696e75756d64616f4070726f746f6e2e6d65222c2275726c223a22636f6e74696e75756d64616f2e6f7267227d000000000000000000000000000000000000000000000000",
        "nonce": "0x63",
        "chainId": "0x90f7"
      },
      "additionalContracts": [],
      "isFixedGasLimit": false
    },
    {
      "hash": "0xfcf25e6667fe890a09222e3a786329d1fcadb4fb6c41bad62d661c56c30125a2",
      "transactionType": "CALL",
      "contractName": null,
      "contractAddress": "0x70b52c6cdda7c6b881de77196edfdf5a704b55f2",
      "function": "approve(address,uint256)",
      "arguments": [
        "0xD384b9908baF9fD39Cf75A51A45102b4C19d953c",
        "1000000000"
      ],
      "transaction": {
        "from": "0xa55e7e6dcebd02ea56d2f268fa22a50c807d759f",
        "to": "0x70b52c6cdda7c6b881de77196edfdf5a704b55f2",
        "gas": "0x9fe40",
        "value": "0x0",
        "input": "0x095ea7b3000000000000000000000000d384b9908baf9fd39cf75a51a45102b4c19d953c000000000000000000000000000000000000000000000000000000003b9aca00",
        "nonce": "0x64",
        "chainId": "0x90f7"
      },
      "additionalContracts": [],
      "isFixedGasLimit": false
    },
    {
      "hash": "0x8f917a51411cf7b6c99a5e0973e67c91f92c91afd15dcf1f7ac4c1351ebdfb60",
      "transactionType": "CALL",
      "contractName": null,
      "contractAddress": "0xd384b9908baf9fd39cf75a51a45102b4c19d953c",
      "function": "deposit(uint256,address,uint256)",
      "arguments": [
        "113720754091436548845938865822419147096105237861509221546363423289715574416457",
        "0x70b52c6cDDA7C6b881DE77196EdFDF5a704b55f2",
        "1000000000"
      ],
      "transaction": {
        "from": "0xa55e7e6dcebd02ea56d2f268fa22a50c807d759f",
        "to": "0xd384b9908baf9fd39cf75a51a45102b4c19d953c",
        "gas": "0x34f26",
        "value": "0x0",
        "input": "0xbc157ac1fb6baa755e2066441b7ccc1927affcad67f35bc74df43ca450ef556c9eefa44900000000000000000000000070b52c6cdda7c6b881de77196edfdf5a704b55f2000000000000000000000000000000000000000000000000000000003b9aca00",
        "nonce": "0x65",
        "chainId": "0x90f7"
      },
      "additionalContracts": [],
      "isFixedGasLimit": false
    }
  ],
  "receipts": [
    {
      "status": "0x1",
      "cumulativeGasUsed": "0x0",
      "logs": [
        {
          "address": "0x000000000000000000000000000000000000800a",
          "topics": [
            "0xddf252ad1be2c89b69c2b068fc378daa952ba7f163c4a11628f55a4df523b3ef",
            "0x000000000000000000000000a55e7e6dcebd02ea56d2f268fa22a50c807d759f",
            "0x0000000000000000000000000000000000000000000000000000000000008001"
          ],
          "data": "0x0000000000000000000000000000000000000000000000000007a57e81b2b598",
          "blockHash": "0x734c72f95cf7501ae29ceb2875705e3c649050994fb1da36b6fc95d24551a449",
          "blockNumber": "0x415620",
          "blockTimestamp": "0x6991aacb",
          "transactionHash": "0x36a47e9ab46365ac9749035906b18d1e62d829eae5b4e6765d8ce5764fede17e",
          "transactionIndex": "0x0",
          "logIndex": "0x0",
          "removed": false
        },
        {
          "address": "0xd384b9908baf9fd39cf75a51a45102b4c19d953c",
          "topics": [
            "0x635597d427bb89928f8f4c67299e0a29167b75e80dc42c9b63072f9ed8de3373",
            "0x000000000000000000000000375e2a148102bf179ae7743a28a34cf959be9499"
          ],
          "data": "0x",
          "blockHash": "0x734c72f95cf7501ae29ceb2875705e3c649050994fb1da36b6fc95d24551a449",
          "blockNumber": "0x415620",
          "blockTimestamp": "0x6991aacb",
          "transactionHash": "0x36a47e9ab46365ac9749035906b18d1e62d829eae5b4e6765d8ce5764fede17e",
          "transactionIndex": "0x0",
          "logIndex": "0x1",
          "removed": false
        },
        {
          "address": "0x000000000000000000000000000000000000800a",
          "topics": [
            "0xddf252ad1be2c89b69c2b068fc378daa952ba7f163c4a11628f55a4df523b3ef",
            "0x0000000000000000000000000000000000000000000000000000000000008001",
            "0x000000000000000000000000a55e7e6dcebd02ea56d2f268fa22a50c807d759f"
          ],
          "data": "0x00000000000000000000000000000000000000000000000000054ce51c55041b",
          "blockHash": "0x734c72f95cf7501ae29ceb2875705e3c649050994fb1da36b6fc95d24551a449",
          "blockNumber": "0x415620",
          "blockTimestamp": "0x6991aacb",
          "transactionHash": "0x36a47e9ab46365ac9749035906b18d1e62d829eae5b4e6765d8ce5764fede17e",
          "transactionIndex": "0x0",
          "logIndex": "0x2",
          "removed": false
        }
      ],
      "logsBloom": "0x00000000000400000000000000000000000000000000004000000001000000000000008000000000000000000000000000000000000000000000000000800000000000000000040000000008000000000000000000000000000000000000080000000000000000000000000002000000000000000000000004000010000000000000000000000000000004000000000000040000000000000000000000000000040000000000100000000000000000000080000000000000000000000000000000000002008000000000000000004000000000000000000000000000000000000000000000010000000001000000000000000000000000000000000000000000",
      "type": "0x0",
      "transactionHash": "0x36a47e9ab46365ac9749035906b18d1e62d829eae5b4e6765d8ce5764fede17e",
      "transactionIndex": "0x0",
      "blockHash": "0x734c72f95cf7501ae29ceb2875705e3c649050994fb1da36b6fc95d24551a449",
      "blockNumber": "0x415620",
      "gasUsed": "0x2a655",
      "effectiveGasPrice": "0xe2a9f689",
      "from": "0xa55e7e6dcebd02ea56d2f268fa22a50c807d759f",
      "to": "0xd384b9908baf9fd39cf75a51a45102b4c19d953c",
      "contractAddress": null,
      "l1BatchNumber": null,
      "l1BatchTxIndex": null,
      "l2ToL1Logs": []
    },
    {
      "status": "0x1",
      "cumulativeGasUsed": "0x0",
      "logs": [
        {
          "address": "0x000000000000000000000000000000000000800a",
          "topics": [
            "0xddf252ad1be2c89b69c2b068fc378daa952ba7f163c4a11628f55a4df523b3ef",
            "0x000000000000000000000000a55e7e6dcebd02ea56d2f268fa22a50c807d759f",
            "0x0000000000000000000000000000000000000000000000000000000000008001"
          ],
          "data": "0x00000000000000000000000000000000000000000000000000116d27015b03da",
          "blockHash": "0x917f2e793f2a42858436496332eb626d7447b93df9307dfa6d25e83176a20ec8",
          "blockNumber": "0x415621",
          "blockTimestamp": "0x6991aacd",
          "transactionHash": "0x8be241412870e5f86a8aafa658940c65d1ec627a85afc2ec1278bd6c091117ac",
          "transactionIndex": "0x0",
          "logIndex": "0x0",
          "removed": false
        },
        {
          "address": "0xd384b9908baf9fd39cf75a51a45102b4c19d953c",
          "topics": [
            "0xf7b44c590ebdaf47d8d8765552f0c28b1d998703ab4d9e29aefbc1980d8ab8a4",
            "0x00000000000000000000000070b52c6cdda7c6b881de77196edfdf5a704b55f2"
          ],
          "data": "0x00000000000000000000000000000000000000000000000000000000000003e8000000000000000000000000000000000000000000000000008e1bc9bf040000",
          "blockHash": "0x917f2e793f2a42858436496332eb626d7447b93df9307dfa6d25e83176a20ec8",
          "blockNumber": "0x415621",
          "blockTimestamp": "0x6991aacd",
          "transactionHash": "0x8be241412870e5f86a8aafa658940c65d1ec627a85afc2ec1278bd6c091117ac",
          "transactionIndex": "0x0",
          "logIndex": "0x1",
          "removed": false
        },
        {
          "address": "0x000000000000000000000000000000000000800a",
          "topics": [
            "0xddf252ad1be2c89b69c2b068fc378daa952ba7f163c4a11628f55a4df523b3ef",
            "0x0000000000000000000000000000000000000000000000000000000000008001",
            "0x000000000000000000000000a55e7e6dcebd02ea56d2f268fa22a50c807d759f"
          ],
          "data": "0x000000000000000000000000000000000000000000000000000fab2b444b4359",
          "blockHash": "0x917f2e793f2a42858436496332eb626d7447b93df9307dfa6d25e83176a20ec8",
          "blockNumber": "0x415621",
          "blockTimestamp": "0x6991aacd",
          "transactionHash": "0x8be241412870e5f86a8aafa658940c65d1ec627a85afc2ec1278bd6c091117ac",
          "transactionIndex": "0x0",
          "logIndex": "0x2",
          "removed": false
        }
      ],
      "logsBloom": "0x00000000000400000000000000000000000000000000004000000001000000000000000000000000080000000000000000000000000000000000000000800000000000000000040000000008000000000000000000000000000000000000080000000000000000000000000002000000010000000000000000000010000000000000000000000000000004000000000000040000000001000000000000000000040000000000100000000000000001000000000000000000000000004000000000000002008000000000000000000000000000000000000000000000000000000000000000000000000000000000000000000000000000040000000000000000",
      "type": "0x0",
      "transactionHash": "0x8be241412870e5f86a8aafa658940c65d1ec627a85afc2ec1278bd6c091117ac",
      "transactionIndex": "0x0",
      "blockHash": "0x917f2e793f2a42858436496332eb626d7447b93df9307dfa6d25e83176a20ec8",
      "blockNumber": "0x415621",
      "gasUsed": "0x1fc39",
      "effectiveGasPrice": "0xe2a9f689",
      "from": "0xa55e7e6dcebd02ea56d2f268fa22a50c807d759f",
      "to": "0xd384b9908baf9fd39cf75a51a45102b4c19d953c",
      "contractAddress": null,
      "l1BatchNumber": null,
      "l1BatchTxIndex": null,
      "l2ToL1Logs": []
    },
    {
      "status": "0x1",
      "cumulativeGasUsed": "0x0",
      "logs": [
        {
          "address": "0x000000000000000000000000000000000000800a",
          "topics": [
            "0xddf252ad1be2c89b69c2b068fc378daa952ba7f163c4a11628f55a4df523b3ef",
            "0x000000000000000000000000a55e7e6dcebd02ea56d2f268fa22a50c807d759f",
            "0x0000000000000000000000000000000000000000000000000000000000008001"
          ],
          "data": "0x0000000000000000000000000000000000000000000000000009b4a2c41ba6e6",
          "blockHash": "0xfeb2a06e3d05ba1de67d09a7c664b994a165961ef6b27d6b3c45979cb5a93efa",
          "blockNumber": "0x415622",
          "blockTimestamp": "0x6991aad0",
          "transactionHash": "0xbf4522868e2197244ac15815482e37c6757aaaedd9e0bdfe18b7e8c49f0b07a6",
          "transactionIndex": "0x0",
          "logIndex": "0x0",
          "removed": false
        },
        {
          "address": "0xd384b9908baf9fd39cf75a51a45102b4c19d953c",
          "topics": [
            "0x329bcb4e5cb7d1fa89c2b4f4d1b07d8d25cd7f6f93f5f27047755895b0dad462",
            "0x00000000000000000000000070b52c6cdda7c6b881de77196edfdf5a704b55f2"
          ],
          "data": "0x0000000000000000000000000000000000000000000000000000000005f5e100",
          "blockHash": "0xfeb2a06e3d05ba1de67d09a7c664b994a165961ef6b27d6b3c45979cb5a93efa",
          "blockNumber": "0x415622",
          "blockTimestamp": "0x6991aad0",
          "transactionHash": "0xbf4522868e2197244ac15815482e37c6757aaaedd9e0bdfe18b7e8c49f0b07a6",
          "transactionIndex": "0x0",
          "logIndex": "0x1",
          "removed": false
        },
        {
          "address": "0x000000000000000000000000000000000000800a",
          "topics": [
            "0xddf252ad1be2c89b69c2b068fc378daa952ba7f163c4a11628f55a4df523b3ef",
            "0x0000000000000000000000000000000000000000000000000000000000008001",
            "0x000000000000000000000000a55e7e6dcebd02ea56d2f268fa22a50c807d759f"
          ],
          "data": "0x000000000000000000000000000000000000000000000000000825d8ce5ca3c7",
          "blockHash": "0xfeb2a06e3d05ba1de67d09a7c664b994a165961ef6b27d6b3c45979cb5a93efa",
          "blockNumber": "0x415622",
          "blockTimestamp": "0x6991aad0",
          "transactionHash": "0xbf4522868e2197244ac15815482e37c6757aaaedd9e0bdfe18b7e8c49f0b07a6",
          "transactionIndex": "0x0",
          "logIndex": "0x2",
          "removed": false
        }
      ],
      "logsBloom": "0x00000000000400200000000000000000000000000000004000000001000000000000000000000000080000000000000000000000000000000000000000800000000000000000040000000008000000000000000000080000000000000000080080000000000000000000000002000000010000000000000000000010000000000000000000000000000004000000000000040000000000000000000000000000040000000000100000000000000000000000000000000000000000004000000000000002008000000000000000000000000000000000000000000000000000000000000000000000000000000000000000000000000000000000000000000000",
      "type": "0x0",
      "transactionHash": "0xbf4522868e2197244ac15815482e37c6757aaaedd9e0bdfe18b7e8c49f0b07a6",
      "transactionIndex": "0x0",
      "blockHash": "0xfeb2a06e3d05ba1de67d09a7c664b994a165961ef6b27d6b3c45979cb5a93efa",
      "blockNumber": "0x415622",
      "gasUsed": "0x1c267",
      "effectiveGasPrice": "0xe2a9f689",
      "from": "0xa55e7e6dcebd02ea56d2f268fa22a50c807d759f",
      "to": "0xd384b9908baf9fd39cf75a51a45102b4c19d953c",
      "contractAddress": null,
      "l1BatchNumber": null,
      "l1BatchTxIndex": null,
      "l2ToL1Logs": []
    },
    {
      "status": "0x1",
      "cumulativeGasUsed": "0x0",
      "logs": [
        {
          "address": "0x000000000000000000000000000000000000800a",
          "topics": [
            "0xddf252ad1be2c89b69c2b068fc378daa952ba7f163c4a11628f55a4df523b3ef",
            "0x000000000000000000000000a55e7e6dcebd02ea56d2f268fa22a50c807d759f",
            "0x0000000000000000000000000000000000000000000000000000000000008001"
          ],
          "data": "0x000000000000000000000000000000000000000000000000000bef540e930ae4",
          "blockHash": "0x2ef56bb5dc95f74b3786421a9d00b0f66018ed7d5d18c4e8e8da5918dfac1a94",
          "blockNumber": "0x415623",
          "blockTimestamp": "0x6991aad1",
          "transactionHash": "0x3912f7d157586808e66ac8de8685d1fb1aa3076c2709acfb88179c9c9f1f7505",
          "transactionIndex": "0x0",
          "logIndex": "0x0",
          "removed": false
        },
        {
          "address": "0xd384b9908baf9fd39cf75a51a45102b4c19d953c",
          "topics": [
            "0x8c1ec1ba18731ac19ff6089bc9470a71fb6b885ee0c64e8415e2599a41e55019",
            "0xfb6baa755e2066441b7ccc1927affcad67f35bc74df43ca450ef556c9eefa449",
            "0x000000000000000000000000a55e7e6dcebd02ea56d2f268fa22a50c807d759f",
            "0x00000000000000000000000070b52c6cdda7c6b881de77196edfdf5a704b55f2"
          ],
          "data": "0x000000000000000000000000000000000000000000000000000000000000002000000000000000000000000000000000000000000000000000000000000000687b2276657273696f6e223a312c226e616d65223a2243544d222c226465736372697074696f6e223a2243544d222c22656d61696c223a22636f6e74696e75756d64616f4070726f746f6e2e6d65222c2275726c223a22636f6e74696e75756d64616f2e6f7267227d000000000000000000000000000000000000000000000000",
          "blockHash": "0x2ef56bb5dc95f74b3786421a9d00b0f66018ed7d5d18c4e8e8da5918dfac1a94",
          "blockNumber": "0x415623",
          "blockTimestamp": "0x6991aad1",
          "transactionHash": "0x3912f7d157586808e66ac8de8685d1fb1aa3076c2709acfb88179c9c9f1f7505",
          "transactionIndex": "0x0",
          "logIndex": "0x1",
          "removed": false
        },
        {
          "address": "0x000000000000000000000000000000000000800a",
          "topics": [
            "0xddf252ad1be2c89b69c2b068fc378daa952ba7f163c4a11628f55a4df523b3ef",
            "0x0000000000000000000000000000000000000000000000000000000000008001",
            "0x000000000000000000000000a55e7e6dcebd02ea56d2f268fa22a50c807d759f"
          ],
          "data": "0x00000000000000000000000000000000000000000000000000089080f4447eed",
          "blockHash": "0x2ef56bb5dc95f74b3786421a9d00b0f66018ed7d5d18c4e8e8da5918dfac1a94",
          "blockNumber": "0x415623",
          "blockTimestamp": "0x6991aad1",
          "transactionHash": "0x3912f7d157586808e66ac8de8685d1fb1aa3076c2709acfb88179c9c9f1f7505",
          "transactionIndex": "0x0",
          "logIndex": "0x2",
          "removed": false
        }
      ],
      "logsBloom": "0x00000000000400000000800000000000000000000000004000000001000000000000000002000000080000000000000000000000000000000000000000800000000000000000040000000008000000000000000000000000000000000000080000100000000000000000000002000400010000000000000000000010000000000000000000000000000004000000000000040000000000000000000000000001040000000000100000000000000000000000000000000000000000004000000000000002008000000000000000000000000000000000000000000000000000000000040000000000000000000000000000000000000000000000000000000000",
      "type": "0x0",
      "transactionHash": "0x3912f7d157586808e66ac8de8685d1fb1aa3076c2709acfb88179c9c9f1f7505",
      "transactionIndex": "0x0",
      "blockHash": "0x2ef56bb5dc95f74b3786421a9d00b0f66018ed7d5d18c4e8e8da5918dfac1a94",
      "blockNumber": "0x415623",
      "gasUsed": "0x3ce7f",
      "effectiveGasPrice": "0xe2a9f689",
      "from": "0xa55e7e6dcebd02ea56d2f268fa22a50c807d759f",
      "to": "0xd384b9908baf9fd39cf75a51a45102b4c19d953c",
      "contractAddress": null,
      "l1BatchNumber": null,
      "l1BatchTxIndex": null,
      "l2ToL1Logs": []
    },
    {
      "status": "0x1",
      "cumulativeGasUsed": "0x0",
      "logs": [
        {
          "address": "0x000000000000000000000000000000000000800a",
          "topics": [
            "0xddf252ad1be2c89b69c2b068fc378daa952ba7f163c4a11628f55a4df523b3ef",
            "0x000000000000000000000000a55e7e6dcebd02ea56d2f268fa22a50c807d759f",
            "0x0000000000000000000000000000000000000000000000000000000000008001"
          ],
          "data": "0x0000000000000000000000000000000000000000000000000008d916f7ea9040",
          "blockHash": "0x92822df8e796292733af6860d88de36c9489d18495e5fcb904f7aa8c55b5f42d",
          "blockNumber": "0x415624",
          "blockTimestamp": "0x6991aad2",
          "transactionHash": "0xfcf25e6667fe890a09222e3a786329d1fcadb4fb6c41bad62d661c56c30125a2",
          "transactionIndex": "0x0",
          "logIndex": "0x0",
          "removed": false
        },
        {
          "address": "0x70b52c6cdda7c6b881de77196edfdf5a704b55f2",
          "topics": [
            "0x8c5be1e5ebec7d5bd14f71427d1e84f3dd0314c0f7b2291e5b200ac8c7c3b925",
            "0x000000000000000000000000a55e7e6dcebd02ea56d2f268fa22a50c807d759f",
            "0x000000000000000000000000d384b9908baf9fd39cf75a51a45102b4c19d953c"
          ],
          "data": "0x000000000000000000000000000000000000000000000000000000003b9aca00",
          "blockHash": "0x92822df8e796292733af6860d88de36c9489d18495e5fcb904f7aa8c55b5f42d",
          "blockNumber": "0x415624",
          "blockTimestamp": "0x6991aad2",
          "transactionHash": "0xfcf25e6667fe890a09222e3a786329d1fcadb4fb6c41bad62d661c56c30125a2",
          "transactionIndex": "0x0",
          "logIndex": "0x1",
          "removed": false
        },
        {
          "address": "0x000000000000000000000000000000000000800a",
          "topics": [
            "0xddf252ad1be2c89b69c2b068fc378daa952ba7f163c4a11628f55a4df523b3ef",
            "0x0000000000000000000000000000000000000000000000000000000000008001",
            "0x000000000000000000000000a55e7e6dcebd02ea56d2f268fa22a50c807d759f"
          ],
          "data": "0x00000000000000000000000000000000000000000000000000076930919f5a9c",
          "blockHash": "0x92822df8e796292733af6860d88de36c9489d18495e5fcb904f7aa8c55b5f42d",
          "blockNumber": "0x415624",
          "blockTimestamp": "0x6991aad2",
          "transactionHash": "0xfcf25e6667fe890a09222e3a786329d1fcadb4fb6c41bad62d661c56c30125a2",
          "transactionIndex": "0x0",
          "logIndex": "0x2",
          "removed": false
        }
      ],
      "logsBloom": "0x00000000000400000000000000000000000000000000004000000001000000000000000000000000000000000000000000000000000020000000010000200000000000000000040000000008000000000000000000000000000000000000080000000000000000000000000002000000000000000000000000000010000000000000000000000000000004000000000000000000000400000000000000000040020000000000100000000000000000000000000000000000000000000000000000000002008000000000000000000000000000000000000000000000000000000010000000000000000000000000000000004000000000000000000000400000",
      "type": "0x0",
      "transactionHash": "0xfcf25e6667fe890a09222e3a786329d1fcadb4fb6c41bad62d661c56c30125a2",
      "transactionIndex": "0x0",
      "blockHash": "0x92822df8e796292733af6860d88de36c9489d18495e5fcb904f7aa8c55b5f42d",
      "blockNumber": "0x415624",
      "gasUsed": "0x19f84",
      "effectiveGasPrice": "0xe2a9f689",
      "from": "0xa55e7e6dcebd02ea56d2f268fa22a50c807d759f",
      "to": "0x70b52c6cdda7c6b881de77196edfdf5a704b55f2",
      "contractAddress": null,
      "l1BatchNumber": null,
      "l1BatchTxIndex": null,
      "l2ToL1Logs": []
    },
    {
      "status": "0x1",
      "cumulativeGasUsed": "0x0",
      "logs": [
        {
          "address": "0x000000000000000000000000000000000000800a",
          "topics": [
            "0xddf252ad1be2c89b69c2b068fc378daa952ba7f163c4a11628f55a4df523b3ef",
            "0x000000000000000000000000a55e7e6dcebd02ea56d2f268fa22a50c807d759f",
            "0x0000000000000000000000000000000000000000000000000000000000008001"
          ],
          "data": "0x0000000000000000000000000000000000000000000000000012cc78c4d377f4",
          "blockHash": "0xe20975dac653ba067f17c5f3fa2d65baf356c85a55fda98db57f45df8ed02594",
          "blockNumber": "0x415625",
          "blockTimestamp": "0x6991aad4",
          "transactionHash": "0x8f917a51411cf7b6c99a5e0973e67c91f92c91afd15dcf1f7ac4c1351ebdfb60",
          "transactionIndex": "0x0",
          "logIndex": "0x0",
          "removed": false
        },
        {
          "address": "0x70b52c6cdda7c6b881de77196edfdf5a704b55f2",
          "topics": [
            "0xddf252ad1be2c89b69c2b068fc378daa952ba7f163c4a11628f55a4df523b3ef",
            "0x000000000000000000000000a55e7e6dcebd02ea56d2f268fa22a50c807d759f",
            "0x000000000000000000000000d384b9908baf9fd39cf75a51a45102b4c19d953c"
          ],
          "data": "0x000000000000000000000000000000000000000000000000000000003b9aca00",
          "blockHash": "0xe20975dac653ba067f17c5f3fa2d65baf356c85a55fda98db57f45df8ed02594",
          "blockNumber": "0x415625",
          "blockTimestamp": "0x6991aad4",
          "transactionHash": "0x8f917a51411cf7b6c99a5e0973e67c91f92c91afd15dcf1f7ac4c1351ebdfb60",
          "transactionIndex": "0x0",
          "logIndex": "0x1",
          "removed": false
        },
        {
          "address": "0xd384b9908baf9fd39cf75a51a45102b4c19d953c",
          "topics": [
            "0xd36a2f67d06d285786f61a32b052b9ace6b0b7abef5177b54358abdc83a0b69b",
            "0xfb6baa755e2066441b7ccc1927affcad67f35bc74df43ca450ef556c9eefa449",
            "0x00000000000000000000000070b52c6cdda7c6b881de77196edfdf5a704b55f2"
          ],
          "data": "0x000000000000000000000000000000000000000000000000000000003b9aca00000000000000000000000000000000000000000000000000000000003b9aca00",
          "blockHash": "0xe20975dac653ba067f17c5f3fa2d65baf356c85a55fda98db57f45df8ed02594",
          "blockNumber": "0x415625",
          "blockTimestamp": "0x6991aad4",
          "transactionHash": "0x8f917a51411cf7b6c99a5e0973e67c91f92c91afd15dcf1f7ac4c1351ebdfb60",
          "transactionIndex": "0x0",
          "logIndex": "0x2",
          "removed": false
        },
        {
          "address": "0x000000000000000000000000000000000000800a",
          "topics": [
            "0xddf252ad1be2c89b69c2b068fc378daa952ba7f163c4a11628f55a4df523b3ef",
            "0x0000000000000000000000000000000000000000000000000000000000008001",
            "0x000000000000000000000000a55e7e6dcebd02ea56d2f268fa22a50c807d759f"
          ],
          "data": "0x000000000000000000000000000000000000000000000000000f0115a8cb6ff8",
          "blockHash": "0xe20975dac653ba067f17c5f3fa2d65baf356c85a55fda98db57f45df8ed02594",
          "blockNumber": "0x415625",
          "blockTimestamp": "0x6991aad4",
          "transactionHash": "0x8f917a51411cf7b6c99a5e0973e67c91f92c91afd15dcf1f7ac4c1351ebdfb60",
          "transactionIndex": "0x0",
          "logIndex": "0x3",
          "removed": false
        }
      ],
      "logsBloom": "0x00000000000400000000800000000000000000000000004000000001000000000000000000000000080000000000000000000000000020000000010000800000000000000000040000000008000000000000000000000000000000000000080000100000000000000000000002000400010000000000000000000010000000000000000000000000000004000000000000040000000400000000000000000040040000000000100000000000000000000000000000000000000000004000000000000002008000000000000000000000000008000000000100000000000000000000000000000000000000000000000000004000000000000000800000400000",
      "type": "0x0",
      "transactionHash": "0x8f917a51411cf7b6c99a5e0973e67c91f92c91afd15dcf1f7ac4c1351ebdfb60",
      "transactionIndex": "0x0",
      "blockHash": "0xe20975dac653ba067f17c5f3fa2d65baf356c85a55fda98db57f45df8ed02594",
      "blockNumber": "0x415625",
      "gasUsed": "0x4491c",
      "effectiveGasPrice": "0xe2a9f689",
      "from": "0xa55e7e6dcebd02ea56d2f268fa22a50c807d759f",
      "to": "0xd384b9908baf9fd39cf75a51a45102b4c19d953c",
      "contractAddress": null,
      "l1BatchNumber": null,
      "l1BatchTxIndex": null,
      "l2ToL1Logs": []
    }
  ],
  "libraries": [],
  "pending": [],
  "returns": {},
  "timestamp": 1771154135083,
  "chain": 37111,
  "commit": "d786b9f"
}