{
  "transactions": [
    {
      "hash": "0x47efdf44a1b03f755878e00f38fb7829b02570b1fdd4e82bae44ccd4258ef84e",
      "transactionType": "CALL",
      "contractName": null,
      "contractAddress": "0xd384b9908baf9fd39cf75a51a45102b4c19d953c",
      "function": "removeFeeConfig(address)",
      "arguments": [
        "0x375E2A148102bF179AE7743A28A34cF959bE9499"
      ],
      "transaction": {
        "from": "0xa55e7e6dcebd02ea56d2f268fa22a50c807d759f",
        "to": "0xd384b9908baf9fd39cf75a51a45102b4c19d953c",
        "gas": "0xff5c",
        "value": "0x0",
        "input": "0xfd1e33d5000000000000000000000000375e2a148102bf179ae7743a28a34cf959be9499",
        "nonce": "0x60",
        "chainId": "0x15eb"
      },
      "additionalContracts": [],
      "isFixedGasLimit": false
    },
    {
      "hash": "0xb51c0e28e5d1e7864c86f59268b20e9ba32fff891febd6dc9adcc6dd10ca966b",
      "transactionType": "CALL",
      "contractName": null,
      "contractAddress": "0xd384b9908baf9fd39cf75a51a45102b4c19d953c",
      "function": "setFeeConfig(address,uint256,uint256)",
      "arguments": [
        "0x70b52c6cDDA7C6b881DE77196EdFDF5a704b55f2",
        "1000",
        "1000000000000000000000"
      ],
      "transaction": {
        "from": "0xa55e7e6dcebd02ea56d2f268fa22a50c807d759f",
        "to": "0xd384b9908baf9fd39cf75a51a45102b4c19d953c",
        "gas": "0x30140",
        "value": "0x0",
        "input": "0x236fcdac00000000000000000000000070b52c6cdda7c6b881de77196edfdf5a704b55f200000000000000000000000000000000000000000000000000000000000003e800000000000000000000000000000000000000000000003635c9adc5dea00000",
        "nonce": "0x61",
        "chainId": "0x15eb"
      },
      "additionalContracts": [],
      "isFixedGasLimit": false
    },
    {
      "hash": "0xb5720aba1effce5c4fca780b47af43a856bfaf372d5a8f65c757d55542ebd544",
      "transactionType": "CALL",
      "contractName": null,
      "contractAddress": "0xd384b9908baf9fd39cf75a51a45102b4c19d953c",
      "function": "setFeeMinimumDeposit(address,uint256)",
      "arguments": [
        "0x70b52c6cDDA7C6b881DE77196EdFDF5a704b55f2",
        "100000000"
      ],
      "transaction": {
        "from": "0xa55e7e6dcebd02ea56d2f268fa22a50c807d759f",
        "to": "0xd384b9908baf9fd39cf75a51a45102b4c19d953c",
        "gas": "0x19fee",
        "value": "0x0",
        "input": "0x2edcab0200000000000000000000000070b52c6cdda7c6b881de77196edfdf5a704b55f20000000000000000000000000000000000000000000000000000000005f5e100",
        "nonce": "0x62",
        "chainId": "0x15eb"
      },
      "additionalContracts": [],
      "isFixedGasLimit": false
    },
    {
      "hash": "0x8c62aff36b8aa962e147e6436bdc0b49c22e149187470fa17f260ee02bab5581",
      "transactionType": "CALL",
      "contractName": null,
      "contractAddress": "0xd384b9908baf9fd39cf75a51a45102b4c19d953c",
      "function": "updateDAppConfig(uint256,address,address,string)",
      "arguments": [
        "113720754091436548845938865822419147096105237861509221546363423289715574416457",
        "0xa55E7E6dCEBD02eA56d2f268fA22A50C807D759f",
        "0x70b52c6cDDA7C6b881DE77196EdFDF5a704b55f2",
        "{\\\"version\\\":1,\\\"name\\\":\\\"CTM\\\",\\\"description\\\":\\\"CTM\\\",\\\"email\\\":\\\"continuumdao@proton.me\\\",\\\"url\\\":\\\"continuumdao.org\\\"}"
      ],
      "transaction": {
        "from": "0xa55e7e6dcebd02ea56d2f268fa22a50c807d759f",
        "to": "0xd384b9908baf9fd39cf75a51a45102b4c19d953c",
        "gas": "0x21df8",
        "value": "0x0",
        "input": "0x825d065ffb6baa755e2066441b7ccc1927affcad67f35bc74df43ca450ef556c9eefa449000000000000000000000000a55e7e6dcebd02ea56d2f268fa22a50c807d759f00000000000000000000000070b52c6cdda7c6b881de77196edfdf5a704b55f2000000000000000000000000000000000000000000000000000000000000008000000000000000000000000000000000000000000000000000000000000000687b2276657273696f6e223a312c226e616d65223a2243544d222c226465736372697074696f6e223a2243544d222c22656d61696c223a22636f6e74696e75756d64616f4070726f746f6e2e6d65222c2275726c223a22636f6e74696e75756d64616f2e6f7267227d000000000000000000000000000000000000000000000000",
        "nonce": "0x63",
        "chainId": "0x15eb"
      },
      "additionalContracts": [],
      "isFixedGasLimit": false
    },
    {
      "hash": "0x56dff7b2ed7a01a941a224820244173bde18e181061ff6ca49b995ba3eab1238",
      "transactionType": "CALL",
      "contractName": null,
      "contractAddress": "0x70b52c6cdda7c6b881de77196edfdf5a704b55f2",
      "function": "approve(address,uint256)",
      "arguments": [
        "0xD384b9908baF9fD39Cf75A51A45102b4C19d953c",
        "1000000000"
      ],
      "transaction": {
        "from": "0xa55e7e6dcebd02ea56d2f268fa22a50c807d759f",
        "to": "0x70b52c6cdda7c6b881de77196edfdf5a704b55f2",
        "gas": "0x1939a",
        "value": "0x0",
        "input": "0x095ea7b3000000000000000000000000d384b9908baf9fd39cf75a51a45102b4c19d953c000000000000000000000000000000000000000000000000000000003b9aca00",
        "nonce": "0x64",
        "chainId": "0x15eb"
      },
      "additionalContracts": [],
      "isFixedGasLimit": false
    },
    {
      "hash": "0xfc6aa5a85a92ce1768b1f21878771a23b4efd157839ae04e5b41e950640c64cf",
      "transactionType": "CALL",
      "contractName": null,
      "contractAddress": "0xd384b9908baf9fd39cf75a51a45102b4c19d953c",
      "function": "deposit(uint256,address,uint256)",
      "arguments": [
        "113720754091436548845938865822419147096105237861509221546363423289715574416457",
        "0x70b52c6cDDA7C6b881DE77196EdFDF5a704b55f2",
        "1000000000"
      ],
      "transaction": {
        "from": "0xa55e7e6dcebd02ea56d2f268fa22a50c807d759f",
        "to": "0xd384b9908baf9fd39cf75a51a45102b4c19d953c",
        "gas": "0x34f26",
        "value": "0x0",
        "input": "0xbc157ac1fb6baa755e2066441b7ccc1927affcad67f35bc74df43ca450ef556c9eefa44900000000000000000000000070b52c6cdda7c6b881de77196edfdf5a704b55f2000000000000000000000000000000000000000000000000000000003b9aca00",
        "nonce": "0x65",
        "chainId": "0x15eb"
      },
      "additionalContracts": [],
      "isFixedGasLimit": false
    }
  ],
  "receipts": [
    {
      "status": "0x1",
      "cumulativeGasUsed": "0x12e4f",
      "logs": [
        {
          "address": "0xd384b9908baf9fd39cf75a51a45102b4c19d953c",
          "topics": [
            "0x635597d427bb89928f8f4c67299e0a29167b75e80dc42c9b63072f9ed8de3373",
            "0x000000000000000000000000375e2a148102bf179ae7743a28a34cf959be9499"
          ],
          "data": "0x",
          "blockHash": "0x9ccaf04e63a96fb5f6335aa5a9f021e27d0f65c4d3e626aa437b331b436a1b41",
          "blockNumber": "0x7b5fd50",
          "transactionHash": "0x47efdf44a1b03f755878e00f38fb7829b02570b1fdd4e82bae44ccd4258ef84e",
          "transactionIndex": "0x1",
          "logIndex": "0x0",
          "removed": false
        }
      ],
      "logsBloom": "0x00000000000000000000000000000000000000000000000000000000000000000000008000000000000000000000000000000000000000000000000000800000000000000000000000000000000000000000000000000000000000000000000000000000000000000000000000000000000000000000000004000000000000000000000000000000000000000000000000040000000000000000000000000000040000000000000000000000000000000080000000000000000000000000000000000000000000000000000000004000000000000000000000000000000000000000000000010000000001000000000000000000000000000000000000000000",
      "type": "0x2",
      "transactionHash": "0x47efdf44a1b03f755878e00f38fb7829b02570b1fdd4e82bae44ccd4258ef84e",
      "transactionIndex": "0x1",
      "blockHash": "0x9ccaf04e63a96fb5f6335aa5a9f021e27d0f65c4d3e626aa437b331b436a1b41",
      "blockNumber": "0x7b5fd50",
      "gasUsed": "0x782c",
      "effectiveGasPrice": "0x1",
      "from": "0xa55e7e6dcebd02ea56d2f268fa22a50c807d759f",
      "to": "0xd384b9908baf9fd39cf75a51a45102b4c19d953c",
      "contractAddress": null,
      "l1BaseFeeScalar": "0x109a0",
      "l1BlobBaseFee": "0x1",
      "l1BlobBaseFeeScalar": "0x9fe98",
      "l1Fee": "0x2887fa041",
      "l1GasPrice": "0x5f5e100",
      "l1GasUsed": "0x640"
    },
    {
      "status": "0x1",
      "cumulativeGasUsed": "0x22b13",
      "logs": [
        {
          "address": "0xd384b9908baf9fd39cf75a51a45102b4c19d953c",
          "topics": [
            "0xf7b44c590ebdaf47d8d8765552f0c28b1d998703ab4d9e29aefbc1980d8ab8a4",
            "0x00000000000000000000000070b52c6cdda7c6b881de77196edfdf5a704b55f2"
          ],
          "data": "0x00000000000000000000000000000000000000000000000000000000000003e800000000000000000000000000000000000000000000003635c9adc5dea00000",
          "blockHash": "0xcb5a386ab6b15409e488d12cdd350143b925ca554239d04cbf8f4d7c738897e5",
          "blockNumber": "0x7b5fd5f",
          "transactionHash": "0xb51c0e28e5d1e7864c86f59268b20e9ba32fff891febd6dc9adcc6dd10ca966b",
          "transactionIndex": "0x1",
          "logIndex": "0x0",
          "removed": false
        }
      ],
      "logsBloom": "0x00000000000000000000000000000000000000000000000000000000000000000000000000000000080000000000000000000000000000000000000000800000000000000000000000000000000000000000000000000000000000000000000000000000000000000000000000000000010000000000000000000000000000000000000000000000000000000000000000040000000001000000000000000000040000000000000000000000000001000000000000000000000000004000000000000000000000000000000000000000000000000000000000000000000000000000000000000000000000000000000000000000000000040000000000000000",
      "type": "0x2",
      "transactionHash": "0xb51c0e28e5d1e7864c86f59268b20e9ba32fff891febd6dc9adcc6dd10ca966b",
      "transactionIndex": "0x1",
      "blockHash": "0xcb5a386ab6b15409e488d12cdd350143b925ca554239d04cbf8f4d7c738897e5",
      "blockNumber": "0x7b5fd5f",
      "gasUsed": "0x16a00",
      "effectiveGasPrice": "0x1",
      "from": "0xa55e7e6dcebd02ea56d2f268fa22a50c807d759f",
      "to": "0xd384b9908baf9fd39cf75a51a45102b4c19d953c",
      "contractAddress": null,
      "l1BaseFeeScalar": "0x109a0",
      "l1BlobBaseFee": "0x1",
      "l1BlobBaseFeeScalar": "0x9fe98",
      "l1Fee": "0x2887fa041",
      "l1GasPrice": "0x5f5e100",
      "l1GasUsed": "0x640"
    },
    {
      "status": "0x1",
      "cumulativeGasUsed": "0x16efb",
      "logs": [
        {
          "address": "0xd384b9908baf9fd39cf75a51a45102b4c19d953c",
          "topics": [
            "0x329bcb4e5cb7d1fa89c2b4f4d1b07d8d25cd7f6f93f5f27047755895b0dad462",
            "0x00000000000000000000000070b52c6cdda7c6b881de77196edfdf5a704b55f2"
          ],
          "data": "0x0000000000000000000000000000000000000000000000000000000005f5e100",
          "blockHash": "0xd4eb8b15d98f33e4360b77fbe757a615235a684616adb24885fdc408dbe8a553",
          "blockNumber": "0x7b5fd65",
          "transactionHash": "0xb5720aba1effce5c4fca780b47af43a856bfaf372d5a8f65c757d55542ebd544",
          "transactionIndex": "0x1",
          "logIndex": "0x0",
          "removed": false
        }
      ],
      "logsBloom": "0x00000000000000200000000000000000000000000000000000000000000000000000000000000000080000000000000000000000000000000000000000800000000000000000000000000000000000000000000000080000000000000000000080000000000000000000000000000000010000000000000000000000000000000000000000000000000000000000000000040000000000000000000000000000040000000000000000000000000000000000000000000000000000004000000000000000000000000000000000000000000000000000000000000000000000000000000000000000000000000000000000000000000000000000000000000000",
      "type": "0x2",
      "transactionHash": "0xb5720aba1effce5c4fca780b47af43a856bfaf372d5a8f65c757d55542ebd544",
      "transactionIndex": "0x1",
      "blockHash": "0xd4eb8b15d98f33e4360b77fbe757a615235a684616adb24885fdc408dbe8a553",
      "blockNumber": "0x7b5fd65",
      "gasUsed": "0xc3bc",
      "effectiveGasPrice": "0x1",
      "from": "0xa55e7e6dcebd02ea56d2f268fa22a50c807d759f",
      "to": "0xd384b9908baf9fd39cf75a51a45102b4c19d953c",
      "contractAddress": null,
      "l1BaseFeeScalar": "0x109a0",
      "l1BlobBaseFee": "0x1",
      "l1BlobBaseFeeScalar": "0x9fe98",
      "l1Fee": "0x2887fa041",
      "l1GasPrice": "0x5f5e100",
      "l1GasUsed": "0x640"
    },
    {
      "status": "0x1",
      "cumulativeGasUsed": "0x1aa4b",
      "logs": [
        {
          "address": "0xd384b9908baf9fd39cf75a51a45102b4c19d953c",
          "topics": [
            "0x8c1ec1ba18731ac19ff6089bc9470a71fb6b885ee0c64e8415e2599a41e55019",
            "0xfb6baa755e2066441b7ccc1927affcad67f35bc74df43ca450ef556c9eefa449",
            "0x000000000000000000000000a55e7e6dcebd02ea56d2f268fa22a50c807d759f",
            "0x00000000000000000000000070b52c6cdda7c6b881de77196edfdf5a704b55f2"
          ],
          "data": "0x000000000000000000000000000000000000000000000000000000000000002000000000000000000000000000000000000000000000000000000000000000687b2276657273696f6e223a312c226e616d65223a2243544d222c226465736372697074696f6e223a2243544d222c22656d61696c223a22636f6e74696e75756d64616f4070726f746f6e2e6d65222c2275726c223a22636f6e74696e75756d64616f2e6f7267227d000000000000000000000000000000000000000000000000",
          "blockHash": "0xdbf99eb7d6a966bd796d91cb6905c6a066890c2306c7a2f5b18ed315a32a707d",
          "blockNumber": "0x7b5fd71",
          "transactionHash": "0x8c62aff36b8aa962e147e6436bdc0b49c22e149187470fa17f260ee02bab5581",
          "transactionIndex": "0x1",
          "logIndex": "0x0",
          "removed": false
        }
      ],
      "logsBloom": "0x00000000000000000000800000000000000000000000004000000001000000000000000002000000080000000000000000000000000000000000000000800000000000000000000000000000000000000000000000000000000000000000000000100000000000000000000002000400010000000000000000000000000000000000000000000000000000000000000000040000000000000000000000000001040000000000000000000000000000000000000000000000000000004000000000000000000000000000000000000000000000000000000000000000000000000000040000000000000000000000000000000000000000000000000000000000",
      "type": "0x2",
      "transactionHash": "0x8c62aff36b8aa962e147e6436bdc0b49c22e149187470fa17f260ee02bab5581",
      "transactionIndex": "0x1",
      "blockHash": "0xdbf99eb7d6a966bd796d91cb6905c6a066890c2306c7a2f5b18ed315a32a707d",
      "blockNumber": "0x7b5fd71",
      "gasUsed": "0xff0c",
      "effectiveGasPrice": "0x1",
      "from": "0xa55e7e6dcebd02ea56d2f268fa22a50c807d759f",
      "to": "0xd384b9908baf9fd39cf75a51a45102b4c19d953c",
      "contractAddress": null,
      "l1BaseFeeScalar": "0x109a0",
      "l1BlobBaseFee": "0x1",
      "l1BlobBaseFeeScalar": "0x9fe98",
      "l1Fee": "0x55cf0588a",
      "l1GasPrice": "0x5f5e100",
      "l1GasUsed": "0xd3b"
    },
    {
      "status": "0x1",
      "cumulativeGasUsed": "0x15ea0",
      "logs": [
        {
          "address": "0x70b52c6cdda7c6b881de77196edfdf5a704b55f2",
          "topics": [
            "0x8c5be1e5ebec7d5bd14f71427d1e84f3dd0314c0f7b2291e5b200ac8c7c3b925",
            "0x000000000000000000000000a55e7e6dcebd02ea56d2f268fa22a50c807d759f",
            "0x000000000000000000000000d384b9908baf9fd39cf75a51a45102b4c19d953c"
          ],
          "data": "0x000000000000000000000000000000000000000000000000000000003b9aca00",
          "blockHash": "0x89d0158d4338340e434b56d633ce2cfe040d532dc7da7b6ee347b045076e3d7b",
          "blockNumber": "0x7b5fd79",
          "transactionHash": "0x56dff7b2ed7a01a941a224820244173bde18e181061ff6ca49b995ba3eab1238",
          "transactionIndex": "0x1",
          "logIndex": "0x0",
          "removed": false
        }
      ],
      "logsBloom": "0x00000000000000000000000000000000000000000000004000000001000000000000000000000000000000000000000000000000000020000000010000200000000000000000000000000000000000000000000000000000000000000000000000000000000000000000000002000000000000000000000000000000000000000000000000000000000000000000000000000000000400000000000000000040020000000000000000000000000000000000000000000000000000000000000000000000000000000000000000000000000000000000000000000000000000000010000000000000000000000000000000004000000000000000000000400000",
      "type": "0x2",
      "transactionHash": "0x56dff7b2ed7a01a941a224820244173bde18e181061ff6ca49b995ba3eab1238",
      "transactionIndex": "0x1",
      "blockHash": "0x89d0158d4338340e434b56d633ce2cfe040d532dc7da7b6ee347b045076e3d7b",
      "blockNumber": "0x7b5fd79",
      "gasUsed": "0xb361",
      "effectiveGasPrice": "0x1",
      "from": "0xa55e7e6dcebd02ea56d2f268fa22a50c807d759f",
      "to": "0x70b52c6cdda7c6b881de77196edfdf5a704b55f2",
      "contractAddress": null,
      "l1BaseFeeScalar": "0x109a0",
      "l1BlobBaseFee": "0x1",
      "l1BlobBaseFeeScalar": "0x9fe98",
      "l1Fee": "0x2887fa041",
      "l1GasPrice": "0x5f5e100",
      "l1GasUsed": "0x640"
    },
    {
      "status": "0x1",
      "cumulativeGasUsed": "0x23996",
      "logs": [
        {
          "address": "0x70b52c6cdda7c6b881de77196edfdf5a704b55f2",
          "topics": [
            "0xddf252ad1be2c89b69c2b068fc378daa952ba7f163c4a11628f55a4df523b3ef",
            "0x000000000000000000000000a55e7e6dcebd02ea56d2f268fa22a50c807d759f",
            "0x000000000000000000000000d384b9908baf9fd39cf75a51a45102b4c19d953c"
          ],
          "data": "0x000000000000000000000000000000000000000000000000000000003b9aca00",
          "blockHash": "0x917ef8a8239722c58e640fef995b9f9fa6353990c853c90e33a5e7a0005365eb",
          "blockNumber": "0x7b5fd7f",
          "transactionHash": "0xfc6aa5a85a92ce1768b1f21878771a23b4efd157839ae04e5b41e950640c64cf",
          "transactionIndex": "0x1",
          "logIndex": "0x0",
          "removed": false
        },
        {
          "address": "0xd384b9908baf9fd39cf75a51a45102b4c19d953c",
          "topics": [
            "0xd36a2f67d06d285786f61a32b052b9ace6b0b7abef5177b54358abdc83a0b69b",
            "0xfb6baa755e2066441b7ccc1927affcad67f35bc74df43ca450ef556c9eefa449",
            "0x00000000000000000000000070b52c6cdda7c6b881de77196edfdf5a704b55f2"
          ],
          "data": "0x000000000000000000000000000000000000000000000000000000003b9aca00000000000000000000000000000000000000000000000000000000003b9aca00",
          "blockHash": "0x917ef8a8239722c58e640fef995b9f9fa6353990c853c90e33a5e7a0005365eb",
          "blockNumber": "0x7b5fd7f",
          "transactionHash": "0xfc6aa5a85a92ce1768b1f21878771a23b4efd157839ae04e5b41e950640c64cf",
          "transactionIndex": "0x1",
          "logIndex": "0x1",
          "removed": false
        }
      ],
      "logsBloom": "0x00000000000000000000800000000000000000000000004000000001000000000000000000000000080000000000000000000000000020000000010000800000000000000000000000000008000000000000000000000000000000000000000000100000000000000000000002000400010000000000000000000010000000000000000000000000000000000000000000040000000400000000000000000040040000000000000000000000000000000000000000000000000000004000000000000002000000000000000000000000000008000000000100000000000000000000000000000000000000000000000000004000000000000000800000400000",
      "type": "0x2",
      "transactionHash": "0xfc6aa5a85a92ce1768b1f21878771a23b4efd157839ae04e5b41e950640c64cf",
      "transactionIndex": "0x1",
      "blockHash": "0x917ef8a8239722c58e640fef995b9f9fa6353990c853c90e33a5e7a0005365eb",
      "blockNumber": "0x7b5fd7f",
      "gasUsed": "0x17883",
      "effectiveGasPrice": "0x1",
      "from": "0xa55e7e6dcebd02ea56d2f268fa22a50c807d759f",
      "to": "0xd384b9908baf9fd39cf75a51a45102b4c19d953c",
      "contractAddress": null,
      "l1BaseFeeScalar": "0x109a0",
      "l1BlobBaseFee": "0x1",
      "l1BlobBaseFeeScalar": "0x9fe98",
      "l1Fee": "0x2c7206b47",
      "l1GasPrice": "0x5f5e100",
      "l1GasUsed": "0x6da"
    }
  ],
  "libraries": [],
  "pending": [],
  "returns": {},
  "timestamp": 1771151183907,
  "chain": 5611,
  "commit": "d786b9f"
}