{
  "transactions": [
    {
      "hash": "0x15f1b289241a88872faaceb9e7a9811de3141fecd5bc4d891270df8574576147",
      "transactionType": "CALL",
      "contractName": null,
      "contractAddress": "0xe605c920c942ea4e807a688c554bf83c59d4db41",
      "function": "addOperator(address)",
      "arguments": [
        "0xEef3d3678E1E739C6522EEC209Bede0197791339"
      ],
      "transaction": {
        "from": "0xc3ca11bd8e131471904dced927b3fb7edb453179",
        "to": "0xe605c920c942ea4e807a688c554bf83c59d4db41",
        "gas": "0x20ab4",
        "value": "0x0",
        "input": "0x9870d7fe000000000000000000000000eef3d3678e1e739c6522eec209bede0197791339",
        "nonce": "0x53",
        "chainId": "0x4268"
      },
      "additionalContracts": [],
      "isFixedGasLimit": false
    },
    {
      "hash": "0x318dbf7dc2145861abc2c5e38076dddc8c04c1cff3d49e30ce617ad3f67440e8",
      "transactionType": "CALL",
      "contractName": null,
      "contractAddress": "0xe605c920c942ea4e807a688c554bf83c59d4db41",
      "function": "addOperator(address)",
      "arguments": [
        "0x0c6235c04eF4Fa5013A58afb22967a068810C929"
      ],
      "transaction": {
        "from": "0xc3ca11bd8e131471904dced927b3fb7edb453179",
        "to": "0xe605c920c942ea4e807a688c554bf83c59d4db41",
        "gas": "0x1c7c4",
        "value": "0x0",
        "input": "0x9870d7fe0000000000000000000000000c6235c04ef4fa5013a58afb22967a068810c929",
        "nonce": "0x54",
        "chainId": "0x4268"
      },
      "additionalContracts": [],
      "isFixedGasLimit": false
    },
    {
      "hash": "0xf7263974d5060a8228a056b6de22f2341bb5892f8ef3d3e2b66bec6fb8f7305e",
      "transactionType": "CALL",
      "contractName": "C3CallerProxy",
      "contractAddress": "0x9e0625366f7d85a174a59b1a5d2e44f1492a9cbb",
      "function": null,
      "arguments": null,
      "transaction": {
        "from": "0xc3ca11bd8e131471904dced927b3fb7edb453179",
        "to": "0x9e0625366f7d85a174a59b1a5d2e44f1492a9cbb",
        "gas": "0x20ad5",
        "value": "0x0",
        "input": "0x9870d7fe000000000000000000000000eef3d3678e1e739c6522eec209bede0197791339",
        "nonce": "0x55",
        "chainId": "0x4268"
      },
      "additionalContracts": [],
      "isFixedGasLimit": false
    },
    {
      "hash": "0xdb01ec241049694b8a095d741278a1114ec97d628596cee60fa53447360f5b54",
      "transactionType": "CALL",
      "contractName": "C3CallerProxy",
      "contractAddress": "0x9e0625366f7d85a174a59b1a5d2e44f1492a9cbb",
      "function": null,
      "arguments": null,
      "transaction": {
        "from": "0xc3ca11bd8e131471904dced927b3fb7edb453179",
        "to": "0x9e0625366f7d85a174a59b1a5d2e44f1492a9cbb",
        "gas": "0x1c7e6",
        "value": "0x0",
        "input": "0x9870d7fe0000000000000000000000000c6235c04ef4fa5013a58afb22967a068810c929",
        "nonce": "0x56",
        "chainId": "0x4268"
      },
      "additionalContracts": [],
      "isFixedGasLimit": false
    },
    {
      "hash": "0x5471f0a3112d301a439b121f7c2a2807d10e023a805217100e213e79c4b7e154",
      "transactionType": "CALL",
      "contractName": "C3CallerProxy",
      "contractAddress": "0xdc994071739a301e1c12e2a2212498a4684340d1",
      "function": null,
      "arguments": null,
      "transaction": {
        "from": "0xc3ca11bd8e131471904dced927b3fb7edb453179",
        "to": "0xdc994071739a301e1c12e2a2212498a4684340d1",
        "gas": "0x22a29",
        "value": "0x0",
        "input": "0x9870d7fe000000000000000000000000eef3d3678e1e739c6522eec209bede0197791339",
        "nonce": "0x57",
        "chainId": "0x4268"
      },
      "additionalContracts": [],
      "isFixedGasLimit": false
    },
    {
      "hash": "0x7eb2fb5475a0ffb735f94672edf1739d95147fc9fe61aafce7527cdd2c42b699",
      "transactionType": "CALL",
      "contractName": "C3CallerProxy",
      "contractAddress": "0xdc994071739a301e1c12e2a2212498a4684340d1",
      "function": null,
      "arguments": null,
      "transaction": {
        "from": "0xc3ca11bd8e131471904dced927b3fb7edb453179",
        "to": "0xdc994071739a301e1c12e2a2212498a4684340d1",
        "gas": "0x1af1b",
        "value": "0x0",
        "input": "0x9870d7fe0000000000000000000000000c6235c04ef4fa5013a58afb22967a068810c929",
        "nonce": "0x58",
        "chainId": "0x4268"
      },
      "additionalContracts": [],
      "isFixedGasLimit": false
    }
  ],
  "receipts": [
    {
      "status": "0x1",
      "cumulativeGasUsed": "0x450265",
      "logs": [
        {
          "address": "0xe605c920c942ea4e807a688c554bf83c59d4db41",
          "topics": [
            "0x4c141abccf173677929dea054f218ed87362117834a8869ec9f68d8bdaaea1dc",
            "0x000000000000000000000000eef3d3678e1e739c6522eec209bede0197791339"
          ],
          "data": "0x",
          "blockHash": "0xa0a5e164185d21ba7519766388e99eff487e20ee1687f6ccfccc24a7c14f3efc",
          "blockNumber": "0x4246f6",
          "transactionHash": "0x15f1b289241a88872faaceb9e7a9811de3141fecd5bc4d891270df8574576147",
          "transactionIndex": "0x1b",
          "logIndex": "0x3c",
          "removed": false
        }
      ],
      "logsBloom": "0x00000000000000000000004000000000000000000000000000000000000000000000000000000000000000000000000000000000000800000000000000000000000000800000000000000200000000000000001000001000000000000000000000000000000000000000000000000000000000010000000000000000000000000000000000000000000000000000000000000000000000000000000000000000000000000000000100000000000000000000000000000000000000000000000000000000000000000000000000000000000000000000000000000000000000000000000000000000000000000000000000000000000000000000000800000000",
      "type": "0x2",
      "transactionHash": "0x15f1b289241a88872faaceb9e7a9811de3141fecd5bc4d891270df8574576147",
      "transactionIndex": "0x1b",
      "blockHash": "0xa0a5e164185d21ba7519766388e99eff487e20ee1687f6ccfccc24a7c14f3efc",
      "blockNumber": "0x4246f6",
      "gasUsed": "0x17a6f",
      "effectiveGasPrice": "0x50cc",
      "blobGasUsed": "0x0",
      "from": "0xc3ca11bd8e131471904dced927b3fb7edb453179",
      "to": "0xe605c920c942ea4e807a688c554bf83c59d4db41",
      "contractAddress": null
    },
    {
      "status": "0x1",
      "cumulativeGasUsed": "0xaccee5",
      "logs": [
        {
          "address": "0xe605c920c942ea4e807a688c554bf83c59d4db41",
          "topics": [
            "0x4c141abccf173677929dea054f218ed87362117834a8869ec9f68d8bdaaea1dc",
            "0x0000000000000000000000000c6235c04ef4fa5013a58afb22967a068810c929"
          ],
          "data": "0x",
          "blockHash": "0x2dd2180b4216e637dd3a40f6c795363c621efac373f4a4e0a7f34bf9e4f8ccc4",
          "blockNumber": "0x4246f8",
          "transactionHash": "0x318dbf7dc2145861abc2c5e38076dddc8c04c1cff3d49e30ce617ad3f67440e8",
          "transactionIndex": "0x44",
          "logIndex": "0xb4",
          "removed": false
        }
      ],
      "logsBloom": "0x00000000000000000000004000000000000000000000000000000000000000000000000000000080000000000000000020000000000800000000000000000000000000800000000000000000000000000000000000001000000000000000000000000000000000000000000000000000000000010000000000000000000000000000000000000000000000000000000000000000000000000000000000000000000000000000000100000000000000000000000000000000000000000000000000000000000000000000000000000000000000000000000000000000000000000000200000000000000000000000000000000000000000000000000000000000",
      "type": "0x2",
      "transactionHash": "0x318dbf7dc2145861abc2c5e38076dddc8c04c1cff3d49e30ce617ad3f67440e8",
      "transactionIndex": "0x44",
      "blockHash": "0x2dd2180b4216e637dd3a40f6c795363c621efac373f4a4e0a7f34bf9e4f8ccc4",
      "blockNumber": "0x4246f8",
      "gasUsed": "0x137a3",
      "effectiveGasPrice": "0x4fe4",
      "blobGasUsed": "0x0",
      "from": "0xc3ca11bd8e131471904dced927b3fb7edb453179",
      "to": "0xe605c920c942ea4e807a688c554bf83c59d4db41",
      "contractAddress": null
    },
    {
      "status": "0x1",
      "cumulativeGasUsed": "0x554d48",
      "logs": [
        {
          "address": "0x9e0625366f7d85a174a59b1a5d2e44f1492a9cbb",
          "topics": [
            "0x4c141abccf173677929dea054f218ed87362117834a8869ec9f68d8bdaaea1dc",
            "0x000000000000000000000000eef3d3678e1e739c6522eec209bede0197791339"
          ],
          "data": "0x",
          "blockHash": "0x949cf320eb77e8e52266a187ca7878f161944dd2c71b5a7cc2b3c6a9cc8a4087",
          "blockNumber": "0x4246f9",
          "transactionHash": "0xf7263974d5060a8228a056b6de22f2341bb5892f8ef3d3e2b66bec6fb8f7305e",
          "transactionIndex": "0x14",
          "logIndex": "0x28",
          "removed": false
        }
      ],
      "logsBloom": "0x00000000000000000000000000000000000000000000000000000000000000000000000000000000000000000000000000000000000800000000000000000000000000000000000000000200000000000000001000000000000000000000000000000000000000000000000000000000000000010000000000000000000000000000000000000000000000004000000000000000000000000000000000000000000000000000000100000000000000000000000000000000000000000000000000000000000000000000000000000000000000000000000000000000000000000000000000000000000000000100000000000000000000000000000800000020",
      "type": "0x2",
      "transactionHash": "0xf7263974d5060a8228a056b6de22f2341bb5892f8ef3d3e2b66bec6fb8f7305e",
      "transactionIndex": "0x14",
      "blockHash": "0x949cf320eb77e8e52266a187ca7878f161944dd2c71b5a7cc2b3c6a9cc8a4087",
      "blockNumber": "0x4246f9",
      "gasUsed": "0x17a86",
      "effectiveGasPrice": "0x593f",
      "blobGasUsed": "0x0",
      "from": "0xc3ca11bd8e131471904dced927b3fb7edb453179",
      "to": "0x9e0625366f7d85a174a59b1a5d2e44f1492a9cbb",
      "contractAddress": null
    },
    {
      "status": "0x1",
      "cumulativeGasUsed": "0xad8ec6",
      "logs": [
        {
          "address": "0x9e0625366f7d85a174a59b1a5d2e44f1492a9cbb",
          "topics": [
            "0x4c141abccf173677929dea054f218ed87362117834a8869ec9f68d8bdaaea1dc",
            "0x0000000000000000000000000c6235c04ef4fa5013a58afb22967a068810c929"
          ],
          "data": "0x",
          "blockHash": "0x2d01783e82f9bd23e0ef42da5eb060e6f4e70ce505e0faeaf641959564c9a408",
          "blockNumber": "0x4246fc",
          "transactionHash": "0xdb01ec241049694b8a095d741278a1114ec97d628596cee60fa53447360f5b54",
          "transactionIndex": "0x3d",
          "logIndex": "0xae",
          "removed": false
        }
      ],
      "logsBloom": "0x00000000000000000000000000000000000000000000000000000000000000000000000000000080000000000000000020000000000800000000000000000000000000000000000000000000000000000000000000000000000000000000000000000000000000000000000000000000000000010000000000000000000000000000000000000000000000004000000000000000000000000000000000000000000000000000000100000000000000000000000000000000000000000000000000000000000000000000000000000000000000000000000000000000000000000000200000000000000000000100000000000000000000000000000000000020",
      "type": "0x2",
      "transactionHash": "0xdb01ec241049694b8a095d741278a1114ec97d628596cee60fa53447360f5b54",
      "transactionIndex": "0x3d",
      "blockHash": "0x2d01783e82f9bd23e0ef42da5eb060e6f4e70ce505e0faeaf641959564c9a408",
      "blockNumber": "0x4246fc",
      "gasUsed": "0x137ba",
      "effectiveGasPrice": "0x42e5",
      "blobGasUsed": "0x0",
      "from": "0xc3ca11bd8e131471904dced927b3fb7edb453179",
      "to": "0x9e0625366f7d85a174a59b1a5d2e44f1492a9cbb",
      "contractAddress": null
    },
    {
      "status": "0x1",
      "cumulativeGasUsed": "0x6b08d5",
      "logs": [
        {
          "address": "0xdc994071739a301e1c12e2a2212498a4684340d1",
          "topics": [
            "0x4c141abccf173677929dea054f218ed87362117834a8869ec9f68d8bdaaea1dc",
            "0x000000000000000000000000eef3d3678e1e739c6522eec209bede0197791339"
          ],
          "data": "0x",
          "blockHash": "0x5f51a1bd693c97bfdfd48339b183b4f79ed7e296481c9a6bfec1acd74c342ebf",
          "blockNumber": "0x4246fd",
          "transactionHash": "0x5471f0a3112d301a439b121f7c2a2807d10e023a805217100e213e79c4b7e154",
          "transactionIndex": "0x26",
          "logIndex": "0x6f",
          "removed": false
        }
      ],
      "logsBloom": "0x00000000000000000000000000000001000000000000000000000000000000000000000000000000000000000000000000000000000800000000000000000000000000000000000000000200000000000000001000000000000000000000000000000000000000000000000000000000000000010000000000000000000000000000000000000000000000000000000000000000000000000000000000000000000000000000000100000000000000000000000000000000000000000000000000000000000000000000004000000000000000000000000000000000000000000000001000000000000000000000000000000000000000000000000800000000",
      "type": "0x2",
      "transactionHash": "0x5471f0a3112d301a439b121f7c2a2807d10e023a805217100e213e79c4b7e154",
      "transactionIndex": "0x26",
      "blockHash": "0x5f51a1bd693c97bfdfd48339b183b4f79ed7e296481c9a6bfec1acd74c342ebf",
      "blockNumber": "0x4246fd",
      "gasUsed": "0x17aea",
      "effectiveGasPrice": "0x4aaa",
      "blobGasUsed": "0x0",
      "from": "0xc3ca11bd8e131471904dced927b3fb7edb453179",
      "to": "0xdc994071739a301e1c12e2a2212498a4684340d1",
      "contractAddress": null
    },
    {
      "status": "0x1",
      "cumulativeGasUsed": "0x1dc266",
      "logs": [
        {
          "address": "0xdc994071739a301e1c12e2a2212498a4684340d1",
          "topics": [
            "0x4c141abccf173677929dea054f218ed87362117834a8869ec9f68d8bdaaea1dc",
            "0x0000000000000000000000000c6235c04ef4fa5013a58afb22967a068810c929"
          ],
          "data": "0x",
          "blockHash": "0x5e9aca4388f583f616a81a3beff40fc9de760de3344553235fc68b7504fd6a6c",
          "blockNumber": "0x424704",
          "transactionHash": "0x7eb2fb5475a0ffb735f94672edf1739d95147fc9fe61aafce7527cdd2c42b699",
          "transactionIndex": "0xc",
          "logIndex": "0x18",
          "removed": false
        }
      ],
      "logsBloom": "0x00000000000000000000000000000001000000000000000000000000000000000000000000000080000000000000000020000000000800000000000000000000000000000000000000000000000000000000000000000000000000000000000000000000000000000000000000000000000000010000000000000000000000000000000000000000000000000000000000000000000000000000000000000000000000000000000100000000000000000000000000000000000000000000000000000000000000000000004000000000000000000000000000000000000000000000201000000000000000000000000000000000000000000000000000000000",
      "type": "0x2",
      "transactionHash": "0x7eb2fb5475a0ffb735f94672edf1739d95147fc9fe61aafce7527cdd2c42b699",
      "transactionIndex": "0xc",
      "blockHash": "0x5e9aca4388f583f616a81a3beff40fc9de760de3344553235fc68b7504fd6a6c",
      "blockNumber": "0x424704",
      "gasUsed": "0x1381e",
      "effectiveGasPrice": "0x51d6",
      "blobGasUsed": "0x0",
      "from": "0xc3ca11bd8e131471904dced927b3fb7edb453179",
      "to": "0xdc994071739a301e1c12e2a2212498a4684340d1",
      "contractAddress": null
    }
  ],
  "libraries": [],
  "pending": [],
  "returns": {},
  "timestamp": 1755270271,
  "chain": 17000,
  "commit": "cdcc5f3"
}