{
  "transactions": [
    {
      "hash": "0x99aa58aac431077db8ed3a7de91f7533b81b43133fb2a08735f8fbcfda78b0a5",
      "transactionType": "CALL",
      "contractName": null,
      "contractAddress": "0xd384b9908baf9fd39cf75a51a45102b4c19d953c",
      "function": "removeFeeConfig(address)",
      "arguments": [
        "0x375E2A148102bF179AE7743A28A34cF959bE9499"
      ],
      "transaction": {
        "from": "0xa55e7e6dcebd02ea56d2f268fa22a50c807d759f",
        "to": "0xd384b9908baf9fd39cf75a51a45102b4c19d953c",
        "gas": "0xff5c",
        "value": "0x0",
        "input": "0xfd1e33d5000000000000000000000000375e2a148102bf179ae7743a28a34cf959be9499",
        "nonce": "0x60",
        "chainId": "0x4cef52"
      },
      "additionalContracts": [],
      "isFixedGasLimit": false
    },
    {
      "hash": "0x0c58ea812ce9df92df4b20674b812a996318440449853388fce09e44e963cb4b",
      "transactionType": "CALL",
      "contractName": null,
      "contractAddress": "0xd384b9908baf9fd39cf75a51a45102b4c19d953c",
      "function": "setFeeConfig(address,uint256,uint256)",
      "arguments": [
        "0x70b52c6cDDA7C6b881DE77196EdFDF5a704b55f2",
        "1000",
        "100000000000000000"
      ],
      "transaction": {
        "from": "0xa55e7e6dcebd02ea56d2f268fa22a50c807d759f",
        "to": "0xd384b9908baf9fd39cf75a51a45102b4c19d953c",
        "gas": "0x30126",
        "value": "0x0",
        "input": "0x236fcdac00000000000000000000000070b52c6cdda7c6b881de77196edfdf5a704b55f200000000000000000000000000000000000000000000000000000000000003e8000000000000000000000000000000000000000000000000016345785d8a0000",
        "nonce": "0x61",
        "chainId": "0x4cef52"
      },
      "additionalContracts": [],
      "isFixedGasLimit": false
    },
    {
      "hash": "0xd570ae8a5a8e047c17ec480ba2a220b22c6048357c87b06e85796eb948abbf56",
      "transactionType": "CALL",
      "contractName": null,
      "contractAddress": "0xd384b9908baf9fd39cf75a51a45102b4c19d953c",
      "function": "setFeeMinimumDeposit(address,uint256)",
      "arguments": [
        "0x70b52c6cDDA7C6b881DE77196EdFDF5a704b55f2",
        "100000000"
      ],
      "transaction": {
        "from": "0xa55e7e6dcebd02ea56d2f268fa22a50c807d759f",
        "to": "0xd384b9908baf9fd39cf75a51a45102b4c19d953c",
        "gas": "0x19fee",
        "value": "0x0",
        "input": "0x2edcab0200000000000000000000000070b52c6cdda7c6b881de77196edfdf5a704b55f20000000000000000000000000000000000000000000000000000000005f5e100",
        "nonce": "0x62",
        "chainId": "0x4cef52"
      },
      "additionalContracts": [],
      "isFixedGasLimit": false
    },
    {
      "hash": "0xceea5fdd2be28531d1ea89d0de2ef68ac4e2462ae2e4c749d2cd5d6c707f2ef2",
      "transactionType": "CALL",
      "contractName": null,
      "contractAddress": "0xd384b9908baf9fd39cf75a51a45102b4c19d953c",
      "function": "updateDAppConfig(uint256,address,address,string)",
      "arguments": [
        "113720754091436548845938865822419147096105237861509221546363423289715574416457",
        "0xa55E7E6dCEBD02eA56d2f268fA22A50C807D759f",
        "0x70b52c6cDDA7C6b881DE77196EdFDF5a704b55f2",
        "{\\\"version\\\":1,\\\"name\\\":\\\"CTM\\\",\\\"description\\\":\\\"CTM\\\",\\\"email\\\":\\\"continuumdao@proton.me\\\",\\\"url\\\":\\\"continuumdao.org\\\"}"
      ],
      "transaction": {
        "from": "0xa55e7e6dcebd02ea56d2f268fa22a50c807d759f",
        "to": "0xd384b9908baf9fd39cf75a51a45102b4c19d953c",
        "gas": "0x21df8",
        "value": "0x0",
        "input": "0x825d065ffb6baa755e2066441b7ccc1927affcad67f35bc74df43ca450ef556c9eefa449000000000000000000000000a55e7e6dcebd02ea56d2f268fa22a50c807d759f00000000000000000000000070b52c6cdda7c6b881de77196edfdf5a704b55f2000000000000000000000000000000000000000000000000000000000000008000000000000000000000000000000000000000000000000000000000000000687b2276657273696f6e223a312c226e616d65223a2243544d222c226465736372697074696f6e223a2243544d222c22656d61696c223a22636f6e74696e75756d64616f4070726f746f6e2e6d65222c2275726c223a22636f6e74696e75756d64616f2e6f7267227d000000000000000000000000000000000000000000000000",
        "nonce": "0x63",
        "chainId": "0x4cef52"
      },
      "additionalContracts": [],
      "isFixedGasLimit": false
    },
    {
      "hash": "0xe73b2e4f5ba44d8c48d95b60ffd2e29e5d7bba4256a02c214534b448a9347d03",
      "transactionType": "CALL",
      "contractName": null,
      "contractAddress": "0x70b52c6cdda7c6b881de77196edfdf5a704b55f2",
      "function": "approve(address,uint256)",
      "arguments": [
        "0xD384b9908baF9fD39Cf75A51A45102b4C19d953c",
        "1000000000"
      ],
      "transaction": {
        "from": "0xa55e7e6dcebd02ea56d2f268fa22a50c807d759f",
        "to": "0x70b52c6cdda7c6b881de77196edfdf5a704b55f2",
        "gas": "0x1939a",
        "value": "0x0",
        "input": "0x095ea7b3000000000000000000000000d384b9908baf9fd39cf75a51a45102b4c19d953c000000000000000000000000000000000000000000000000000000003b9aca00",
        "nonce": "0x64",
        "chainId": "0x4cef52"
      },
      "additionalContracts": [],
      "isFixedGasLimit": false
    },
    {
      "hash": "0xe1d052ba98bb367c7251b8a2fbad07bbc2a89a055d59627a0a528151649e84a1",
      "transactionType": "CALL",
      "contractName": null,
      "contractAddress": "0xd384b9908baf9fd39cf75a51a45102b4c19d953c",
      "function": "deposit(uint256,address,uint256)",
      "arguments": [
        "113720754091436548845938865822419147096105237861509221546363423289715574416457",
        "0x70b52c6cDDA7C6b881DE77196EdFDF5a704b55f2",
        "1000000000"
      ],
      "transaction": {
        "from": "0xa55e7e6dcebd02ea56d2f268fa22a50c807d759f",
        "to": "0xd384b9908baf9fd39cf75a51a45102b4c19d953c",
        "gas": "0x34f26",
        "value": "0x0",
        "input": "0xbc157ac1fb6baa755e2066441b7ccc1927affcad67f35bc74df43ca450ef556c9eefa44900000000000000000000000070b52c6cdda7c6b881de77196edfdf5a704b55f2000000000000000000000000000000000000000000000000000000003b9aca00",
        "nonce": "0x65",
        "chainId": "0x4cef52"
      },
      "additionalContracts": [],
      "isFixedGasLimit": false
    }
  ],
  "receipts": [
    {
      "status": "0x1",
      "cumulativeGasUsed": "0x23bca5",
      "logs": [
        {
          "address": "0xd384b9908baf9fd39cf75a51a45102b4c19d953c",
          "topics": [
            "0x635597d427bb89928f8f4c67299e0a29167b75e80dc42c9b63072f9ed8de3373",
            "0x000000000000000000000000375e2a148102bf179ae7743a28a34cf959be9499"
          ],
          "data": "0x",
          "blockHash": "0xf82a2a2d42a9af513f2ef0e5ab3278a1d234240f08118c8b701b1572394b395d",
          "blockNumber": "0x19e51e8",
          "blockTimestamp": "0x6991ac48",
          "transactionHash": "0x99aa58aac431077db8ed3a7de91f7533b81b43133fb2a08735f8fbcfda78b0a5",
          "transactionIndex": "0x17",
          "logIndex": "0x50",
          "removed": false
        }
      ],
      "logsBloom": "0x00000000000000000000000000000000000000000000000000000000000000000000008000000000000000000000000000000000000000000000000000800000000000000000000000000000000000000000000000000000000000000000000000000000000000000000000000000000000000000000000004000000000000000000000000000000000000000000000000040000000000000000000000000000040000000000000000000000000000000080000000000000000000000000000000000000000000000000000000004000000000000000000000000000000000000000000000010000000001000000000000000000000000000000000000000000",
      "type": "0x0",
      "transactionHash": "0x99aa58aac431077db8ed3a7de91f7533b81b43133fb2a08735f8fbcfda78b0a5",
      "transactionIndex": "0x17",
      "blockHash": "0xf82a2a2d42a9af513f2ef0e5ab3278a1d234240f08118c8b701b1572394b395d",
      "blockNumber": "0x19e51e8",
      "gasUsed": "0x782c",
      "effectiveGasPrice": "0x4a8270a40",
      "from": "0xa55e7e6dcebd02ea56d2f268fa22a50c807d759f",
      "to": "0xd384b9908baf9fd39cf75a51a45102b4c19d953c",
      "contractAddress": null
    },
    {
      "status": "0x1",
      "cumulativeGasUsed": "0x18687f",
      "logs": [
        {
          "address": "0xd384b9908baf9fd39cf75a51a45102b4c19d953c",
          "topics": [
            "0xf7b44c590ebdaf47d8d8765552f0c28b1d998703ab4d9e29aefbc1980d8ab8a4",
            "0x00000000000000000000000070b52c6cdda7c6b881de77196edfdf5a704b55f2"
          ],
          "data": "0x00000000000000000000000000000000000000000000000000000000000003e8000000000000000000000000000000000000000000000000016345785d8a0000",
          "blockHash": "0xaccaa7ed56bff6d2a7f9507c564eb65087504483131dc641390feda7de8850d9",
          "blockNumber": "0x19e51ec",
          "blockTimestamp": "0x6991ac4a",
          "transactionHash": "0x0c58ea812ce9df92df4b20674b812a996318440449853388fce09e44e963cb4b",
          "transactionIndex": "0xc",
          "logIndex": "0x2b",
          "removed": false
        }
      ],
      "logsBloom": "0x00000000000000000000000000000000000000000000000000000000000000000000000000000000080000000000000000000000000000000000000000800000000000000000000000000000000000000000000000000000000000000000000000000000000000000000000000000000010000000000000000000000000000000000000000000000000000000000000000040000000001000000000000000000040000000000000000000000000001000000000000000000000000004000000000000000000000000000000000000000000000000000000000000000000000000000000000000000000000000000000000000000000000040000000000000000",
      "type": "0x0",
      "transactionHash": "0x0c58ea812ce9df92df4b20674b812a996318440449853388fce09e44e963cb4b",
      "transactionIndex": "0xc",
      "blockHash": "0xaccaa7ed56bff6d2a7f9507c564eb65087504483131dc641390feda7de8850d9",
      "blockNumber": "0x19e51ec",
      "gasUsed": "0x169f4",
      "effectiveGasPrice": "0x4a8270a40",
      "from": "0xa55e7e6dcebd02ea56d2f268fa22a50c807d759f",
      "to": "0xd384b9908baf9fd39cf75a51a45102b4c19d953c",
      "contractAddress": null
    },
    {
      "status": "0x1",
      "cumulativeGasUsed": "0x9ff02",
      "logs": [
        {
          "address": "0xd384b9908baf9fd39cf75a51a45102b4c19d953c",
          "topics": [
            "0x329bcb4e5cb7d1fa89c2b4f4d1b07d8d25cd7f6f93f5f27047755895b0dad462",
            "0x00000000000000000000000070b52c6cdda7c6b881de77196edfdf5a704b55f2"
          ],
          "data": "0x0000000000000000000000000000000000000000000000000000000005f5e100",
          "blockHash": "0x9f65e27f55ea13ed303353f5869dcf0c3ae017dbb3ac0082700d307e0aa2720d",
          "blockNumber": "0x19e51f0",
          "blockTimestamp": "0x6991ac4c",
          "transactionHash": "0xd570ae8a5a8e047c17ec480ba2a220b22c6048357c87b06e85796eb948abbf56",
          "transactionIndex": "0xa",
          "logIndex": "0x14",
          "removed": false
        }
      ],
      "logsBloom": "0x00000000000000200000000000000000000000000000000000000000000000000000000000000000080000000000000000000000000000000000000000800000000000000000000000000000000000000000000000080000000000000000000080000000000000000000000000000000010000000000000000000000000000000000000000000000000000000000000000040000000000000000000000000000040000000000000000000000000000000000000000000000000000004000000000000000000000000000000000000000000000000000000000000000000000000000000000000000000000000000000000000000000000000000000000000000",
      "type": "0x0",
      "transactionHash": "0xd570ae8a5a8e047c17ec480ba2a220b22c6048357c87b06e85796eb948abbf56",
      "transactionIndex": "0xa",
      "blockHash": "0x9f65e27f55ea13ed303353f5869dcf0c3ae017dbb3ac0082700d307e0aa2720d",
      "blockNumber": "0x19e51f0",
      "gasUsed": "0xc3bc",
      "effectiveGasPrice": "0x4a8270a40",
      "from": "0xa55e7e6dcebd02ea56d2f268fa22a50c807d759f",
      "to": "0xd384b9908baf9fd39cf75a51a45102b4c19d953c",
      "contractAddress": null
    },
    {
      "status": "0x1",
      "cumulativeGasUsed": "0xd19bc",
      "logs": [
        {
          "address": "0xd384b9908baf9fd39cf75a51a45102b4c19d953c",
          "topics": [
            "0x8c1ec1ba18731ac19ff6089bc9470a71fb6b885ee0c64e8415e2599a41e55019",
            "0xfb6baa755e2066441b7ccc1927affcad67f35bc74df43ca450ef556c9eefa449",
            "0x000000000000000000000000a55e7e6dcebd02ea56d2f268fa22a50c807d759f",
            "0x00000000000000000000000070b52c6cdda7c6b881de77196edfdf5a704b55f2"
          ],
          "data": "0x000000000000000000000000000000000000000000000000000000000000002000000000000000000000000000000000000000000000000000000000000000687b2276657273696f6e223a312c226e616d65223a2243544d222c226465736372697074696f6e223a2243544d222c22656d61696c223a22636f6e74696e75756d64616f4070726f746f6e2e6d65222c2275726c223a22636f6e74696e75756d64616f2e6f7267227d000000000000000000000000000000000000000000000000",
          "blockHash": "0x40a84d7c8345e0404005470fa9b0f11b2e7999c5385eb2cb30e0d5c57bb50c03",
          "blockNumber": "0x19e51f3",
          "blockTimestamp": "0x6991ac4d",
          "transactionHash": "0xceea5fdd2be28531d1ea89d0de2ef68ac4e2462ae2e4c749d2cd5d6c707f2ef2",
          "transactionIndex": "0x9",
          "logIndex": "0x22",
          "removed": false
        }
      ],
      "logsBloom": "0x00000000000000000000800000000000000000000000004000000001000000000000000002000000080000000000000000000000000000000000000000800000000000000000000000000000000000000000000000000000000000000000000000100000000000000000000002000400010000000000000000000000000000000000000000000000000000000000000000040000000000000000000000000001040000000000000000000000000000000000000000000000000000004000000000000000000000000000000000000000000000000000000000000000000000000000040000000000000000000000000000000000000000000000000000000000",
      "type": "0x0",
      "transactionHash": "0xceea5fdd2be28531d1ea89d0de2ef68ac4e2462ae2e4c749d2cd5d6c707f2ef2",
      "transactionIndex": "0x9",
      "blockHash": "0x40a84d7c8345e0404005470fa9b0f11b2e7999c5385eb2cb30e0d5c57bb50c03",
      "blockNumber": "0x19e51f3",
      "gasUsed": "0xff0c",
      "effectiveGasPrice": "0x4a8270a40",
      "from": "0xa55e7e6dcebd02ea56d2f268fa22a50c807d759f",
      "to": "0xd384b9908baf9fd39cf75a51a45102b4c19d953c",
      "contractAddress": null
    },
    {
      "status": "0x1",
      "cumulativeGasUsed": "0x135c40",
      "logs": [
        {
          "address": "0x70b52c6cdda7c6b881de77196edfdf5a704b55f2",
          "topics": [
            "0x8c5be1e5ebec7d5bd14f71427d1e84f3dd0314c0f7b2291e5b200ac8c7c3b925",
            "0x000000000000000000000000a55e7e6dcebd02ea56d2f268fa22a50c807d759f",
            "0x000000000000000000000000d384b9908baf9fd39cf75a51a45102b4c19d953c"
          ],
          "data": "0x000000000000000000000000000000000000000000000000000000003b9aca00",
          "blockHash": "0x95e5c0058c896a3ceb64ae8fa65cf3b0438211b59a034516cb966d59cc934d4f",
          "blockNumber": "0x19e51f7",
          "blockTimestamp": "0x6991ac4f",
          "transactionHash": "0xe73b2e4f5ba44d8c48d95b60ffd2e29e5d7bba4256a02c214534b448a9347d03",
          "transactionIndex": "0xd",
          "logIndex": "0x1c",
          "removed": false
        }
      ],
      "logsBloom": "0x00000000000000000000000000000000000000000000004000000001000000000000000000000000000000000000000000000000000020000000010000200000000000000000000000000000000000000000000000000000000000000000000000000000000000000000000002000000000000000000000000000000000000000000000000000000000000000000000000000000000400000000000000000040020000000000000000000000000000000000000000000000000000000000000000000000000000000000000000000000000000000000000000000000000000000010000000000000000000000000000000004000000000000000000000400000",
      "type": "0x0",
      "transactionHash": "0xe73b2e4f5ba44d8c48d95b60ffd2e29e5d7bba4256a02c214534b448a9347d03",
      "transactionIndex": "0xd",
      "blockHash": "0x95e5c0058c896a3ceb64ae8fa65cf3b0438211b59a034516cb966d59cc934d4f",
      "blockNumber": "0x19e51f7",
      "gasUsed": "0xb361",
      "effectiveGasPrice": "0x4a8270a40",
      "from": "0xa55e7e6dcebd02ea56d2f268fa22a50c807d759f",
      "to": "0x70b52c6cdda7c6b881de77196edfdf5a704b55f2",
      "contractAddress": null
    },
    {
      "status": "0x1",
      "cumulativeGasUsed": "0x189f1b",
      "logs": [
        {
          "address": "0x70b52c6cdda7c6b881de77196edfdf5a704b55f2",
          "topics": [
            "0xddf252ad1be2c89b69c2b068fc378daa952ba7f163c4a11628f55a4df523b3ef",
            "0x000000000000000000000000a55e7e6dcebd02ea56d2f268fa22a50c807d759f",
            "0x000000000000000000000000d384b9908baf9fd39cf75a51a45102b4c19d953c"
          ],
          "data": "0x000000000000000000000000000000000000000000000000000000003b9aca00",
          "blockHash": "0x01ad0010a5a9804f0c42ae4ace16c50a1043022cc63b709efba4d1087d6cc037",
          "blockNumber": "0x19e51fb",
          "blockTimestamp": "0x6991ac51",
          "transactionHash": "0xe1d052ba98bb367c7251b8a2fbad07bbc2a89a055d59627a0a528151649e84a1",
          "transactionIndex": "0xc",
          "logIndex": "0x30",
          "removed": false
        },
        {
          "address": "0xd384b9908baf9fd39cf75a51a45102b4c19d953c",
          "topics": [
            "0xd36a2f67d06d285786f61a32b052b9ace6b0b7abef5177b54358abdc83a0b69b",
            "0xfb6baa755e2066441b7ccc1927affcad67f35bc74df43ca450ef556c9eefa449",
            "0x00000000000000000000000070b52c6cdda7c6b881de77196edfdf5a704b55f2"
          ],
          "data": "0x000000000000000000000000000000000000000000000000000000003b9aca00000000000000000000000000000000000000000000000000000000003b9aca00",
          "blockHash": "0x01ad0010a5a9804f0c42ae4ace16c50a1043022cc63b709efba4d1087d6cc037",
          "blockNumber": "0x19e51fb",
          "blockTimestamp": "0x6991ac51",
          "transactionHash": "0xe1d052ba98bb367c7251b8a2fbad07bbc2a89a055d59627a0a528151649e84a1",
          "transactionIndex": "0xc",
          "logIndex": "0x31",
          "removed": false
        }
      ],
      "logsBloom": "0x00000000000000000000800000000000000000000000004000000001000000000000000000000000080000000000000000000000000020000000010000800000000000000000000000000008000000000000000000000000000000000000000000100000000000000000000002000400010000000000000000000010000000000000000000000000000000000000000000040000000400000000000000000040040000000000000000000000000000000000000000000000000000004000000000000002000000000000000000000000000008000000000100000000000000000000000000000000000000000000000000004000000000000000800000400000",
      "type": "0x0",
      "transactionHash": "0xe1d052ba98bb367c7251b8a2fbad07bbc2a89a055d59627a0a528151649e84a1",
      "transactionIndex": "0xc",
      "blockHash": "0x01ad0010a5a9804f0c42ae4ace16c50a1043022cc63b709efba4d1087d6cc037",
      "blockNumber": "0x19e51fb",
      "gasUsed": "0x17883",
      "effectiveGasPrice": "0x4a8270a40",
      "from": "0xa55e7e6dcebd02ea56d2f268fa22a50c807d759f",
      "to": "0xd384b9908baf9fd39cf75a51a45102b4c19d953c",
      "contractAddress": null
    }
  ],
  "libraries": [],
  "pending": [],
  "returns": {},
  "timestamp": 1771154515127,
  "chain": 5042002,
  "commit": "d786b9f"
}