{
  "transactions": [
    {
      "hash": "0x74a271ab0f56ffd96b59b2373b2fd2dc2520fc97fc34e00c674338654ee9fcef",
      "transactionType": "CALL",
      "contractName": null,
      "contractAddress": "0xd384b9908baf9fd39cf75a51a45102b4c19d953c",
      "function": "removeFeeConfig(address)",
      "arguments": [
        "0x375E2A148102bF179AE7743A28A34cF959bE9499"
      ],
      "transaction": {
        "from": "0xa55e7e6dcebd02ea56d2f268fa22a50c807d759f",
        "to": "0xd384b9908baf9fd39cf75a51a45102b4c19d953c",
        "gas": "0xff5c",
        "value": "0x0",
        "input": "0xfd1e33d5000000000000000000000000375e2a148102bf179ae7743a28a34cf959be9499",
        "nonce": "0x60",
        "chainId": "0x13882"
      },
      "additionalContracts": [],
      "isFixedGasLimit": false
    },
    {
      "hash": "0x833ebd3baf56cc53ef0e553950a6181433c823c376de85da33a7801d5c73619c",
      "transactionType": "CALL",
      "contractName": null,
      "contractAddress": "0xd384b9908baf9fd39cf75a51a45102b4c19d953c",
      "function": "setFeeConfig(address,uint256,uint256)",
      "arguments": [
        "0x70b52c6cDDA7C6b881DE77196EdFDF5a704b55f2",
        "1000",
        "1000000000000000000"
      ],
      "transaction": {
        "from": "0xa55e7e6dcebd02ea56d2f268fa22a50c807d759f",
        "to": "0xd384b9908baf9fd39cf75a51a45102b4c19d953c",
        "gas": "0x30126",
        "value": "0x0",
        "input": "0x236fcdac00000000000000000000000070b52c6cdda7c6b881de77196edfdf5a704b55f200000000000000000000000000000000000000000000000000000000000003e80000000000000000000000000000000000000000000000000de0b6b3a7640000",
        "nonce": "0x61",
        "chainId": "0x13882"
      },
      "additionalContracts": [],
      "isFixedGasLimit": false
    },
    {
      "hash": "0xdc62cb52f86d0b8ec235c531244253dae9ab339bddc2cd92b0a23f041791454b",
      "transactionType": "CALL",
      "contractName": null,
      "contractAddress": "0xd384b9908baf9fd39cf75a51a45102b4c19d953c",
      "function": "setFeeMinimumDeposit(address,uint256)",
      "arguments": [
        "0x70b52c6cDDA7C6b881DE77196EdFDF5a704b55f2",
        "100000000"
      ],
      "transaction": {
        "from": "0xa55e7e6dcebd02ea56d2f268fa22a50c807d759f",
        "to": "0xd384b9908baf9fd39cf75a51a45102b4c19d953c",
        "gas": "0x19fee",
        "value": "0x0",
        "input": "0x2edcab0200000000000000000000000070b52c6cdda7c6b881de77196edfdf5a704b55f20000000000000000000000000000000000000000000000000000000005f5e100",
        "nonce": "0x62",
        "chainId": "0x13882"
      },
      "additionalContracts": [],
      "isFixedGasLimit": false
    },
    {
      "hash": "0x6aa143ba6a09b4b3107abcf7fde82da7435e4ea04393047f59a502952f6eb588",
      "transactionType": "CALL",
      "contractName": null,
      "contractAddress": "0xd384b9908baf9fd39cf75a51a45102b4c19d953c",
      "function": "updateDAppConfig(uint256,address,address,string)",
      "arguments": [
        "113720754091436548845938865822419147096105237861509221546363423289715574416457",
        "0xa55E7E6dCEBD02eA56d2f268fA22A50C807D759f",
        "0x70b52c6cDDA7C6b881DE77196EdFDF5a704b55f2",
        "{\\\"version\\\":1,\\\"name\\\":\\\"CTM\\\",\\\"description\\\":\\\"CTM\\\",\\\"email\\\":\\\"continuumdao@proton.me\\\",\\\"url\\\":\\\"continuumdao.org\\\"}"
      ],
      "transaction": {
        "from": "0xa55e7e6dcebd02ea56d2f268fa22a50c807d759f",
        "to": "0xd384b9908baf9fd39cf75a51a45102b4c19d953c",
        "gas": "0x21df8",
        "value": "0x0",
        "input": "0x825d065ffb6baa755e2066441b7ccc1927affcad67f35bc74df43ca450ef556c9eefa449000000000000000000000000a55e7e6dcebd02ea56d2f268fa22a50c807d759f00000000000000000000000070b52c6cdda7c6b881de77196edfdf5a704b55f2000000000000000000000000000000000000000000000000000000000000008000000000000000000000000000000000000000000000000000000000000000687b2276657273696f6e223a312c226e616d65223a2243544d222c226465736372697074696f6e223a2243544d222c22656d61696c223a22636f6e74696e75756d64616f4070726f746f6e2e6d65222c2275726c223a22636f6e74696e75756d64616f2e6f7267227d000000000000000000000000000000000000000000000000",
        "nonce": "0x63",
        "chainId": "0x13882"
      },
      "additionalContracts": [],
      "isFixedGasLimit": false
    },
    {
      "hash": "0xdc56f2c0ff6b18cfab595a2ba9d841d8e0d9b3c79b207a1a316ae1ce6e271ee0",
      "transactionType": "CALL",
      "contractName": null,
      "contractAddress": "0x70b52c6cdda7c6b881de77196edfdf5a704b55f2",
      "function": "approve(address,uint256)",
      "arguments": [
        "0xD384b9908baF9fD39Cf75A51A45102b4C19d953c",
        "1000000000"
      ],
      "transaction": {
        "from": "0xa55e7e6dcebd02ea56d2f268fa22a50c807d759f",
        "to": "0x70b52c6cdda7c6b881de77196edfdf5a704b55f2",
        "gas": "0x1939a",
        "value": "0x0",
        "input": "0x095ea7b3000000000000000000000000d384b9908baf9fd39cf75a51a45102b4c19d953c000000000000000000000000000000000000000000000000000000003b9aca00",
        "nonce": "0x64",
        "chainId": "0x13882"
      },
      "additionalContracts": [],
      "isFixedGasLimit": false
    },
    {
      "hash": "0x355f034a581c5878f38291165db9d5e8ab95aec6c208e07c8e2ebd05288abbd8",
      "transactionType": "CALL",
      "contractName": null,
      "contractAddress": "0xd384b9908baf9fd39cf75a51a45102b4c19d953c",
      "function": "deposit(uint256,address,uint256)",
      "arguments": [
        "113720754091436548845938865822419147096105237861509221546363423289715574416457",
        "0x70b52c6cDDA7C6b881DE77196EdFDF5a704b55f2",
        "1000000000"
      ],
      "transaction": {
        "from": "0xa55e7e6dcebd02ea56d2f268fa22a50c807d759f",
        "to": "0xd384b9908baf9fd39cf75a51a45102b4c19d953c",
        "gas": "0x34f26",
        "value": "0x0",
        "input": "0xbc157ac1fb6baa755e2066441b7ccc1927affcad67f35bc74df43ca450ef556c9eefa44900000000000000000000000070b52c6cdda7c6b881de77196edfdf5a704b55f2000000000000000000000000000000000000000000000000000000003b9aca00",
        "nonce": "0x65",
        "chainId": "0x13882"
      },
      "additionalContracts": [],
      "isFixedGasLimit": false
    }
  ],
  "receipts": [
    {
      "status": "0x1",
      "cumulativeGasUsed": "0x782c",
      "logs": [
        {
          "address": "0xd384b9908baf9fd39cf75a51a45102b4c19d953c",
          "topics": [
            "0x635597d427bb89928f8f4c67299e0a29167b75e80dc42c9b63072f9ed8de3373",
            "0x000000000000000000000000375e2a148102bf179ae7743a28a34cf959be9499"
          ],
          "data": "0x",
          "blockHash": "0x4a04c636ada7d22dfd902a382aaa4175038b0e061e529e7a0eaeeb6f04875c4a",
          "blockNumber": "0x204cdd3",
          "blockTimestamp": "0x6991a0d5",
          "transactionHash": "0x74a271ab0f56ffd96b59b2373b2fd2dc2520fc97fc34e00c674338654ee9fcef",
          "transactionIndex": "0x0",
          "logIndex": "0x0",
          "removed": false
        },
        {
          "address": "0x0000000000000000000000000000000000001010",
          "topics": [
            "0x4dfe1bbbcf077ddc3e01291eea2d5c70c2b422b415d95645b9adcfd678cb1d63",
            "0x0000000000000000000000000000000000000000000000000000000000001010",
            "0x000000000000000000000000a55e7e6dcebd02ea56d2f268fa22a50c807d759f",
            "0x0000000000000000000000007ee41d8a25641000661b1ef5e6ae8a00400466b0"
          ],
          "data": "0x0000000000000000000000000000000000000000000000000008866a8cc41000000000000000000000000000000000000000000000000002a52109a702328fb500000000000000000000000000000000000000000000217815e22233792ec3eb000000000000000000000000000000000000000000000002a518833c756e7fb500000000000000000000000000000000000000000000217815eaa89e05f2d3eb",
          "blockHash": "0x4a04c636ada7d22dfd902a382aaa4175038b0e061e529e7a0eaeeb6f04875c4a",
          "blockNumber": "0x204cdd3",
          "blockTimestamp": "0x6991a0d5",
          "transactionHash": "0x74a271ab0f56ffd96b59b2373b2fd2dc2520fc97fc34e00c674338654ee9fcef",
          "transactionIndex": "0x0",
          "logIndex": "0x1",
          "removed": false
        }
      ],
      "logsBloom": "0x00000000000000000000000000000000000000000000004000000001000000000000008000000000000000000000000000008000000000000000000000800000000000000000000000000000000000800000000000000000000100000000000000000000000000000000000002000000000000000000000084000000000000000000000000000000020000000400000000040000000000000000000000000000240000000000000000000000000000000080000000000000000000000000004000000000000000000001000000004000000000400000000000100000000000000000000000010000000001000000000000000000000000000000000000100000",
      "type": "0x2",
      "transactionHash": "0x74a271ab0f56ffd96b59b2373b2fd2dc2520fc97fc34e00c674338654ee9fcef",
      "transactionIndex": "0x0",
      "blockHash": "0x4a04c636ada7d22dfd902a382aaa4175038b0e061e529e7a0eaeeb6f04875c4a",
      "blockNumber": "0x204cdd3",
      "gasUsed": "0x782c",
      "effectiveGasPrice": "0x1229298c3f",
      "from": "0xa55e7e6dcebd02ea56d2f268fa22a50c807d759f",
      "to": "0xd384b9908baf9fd39cf75a51a45102b4c19d953c",
      "contractAddress": null
    },
    {
      "status": "0x1",
      "cumulativeGasUsed": "0x169f4",
      "logs": [
        {
          "address": "0xd384b9908baf9fd39cf75a51a45102b4c19d953c",
          "topics": [
            "0xf7b44c590ebdaf47d8d8765552f0c28b1d998703ab4d9e29aefbc1980d8ab8a4",
            "0x00000000000000000000000070b52c6cdda7c6b881de77196edfdf5a704b55f2"
          ],
          "data": "0x00000000000000000000000000000000000000000000000000000000000003e80000000000000000000000000000000000000000000000000de0b6b3a7640000",
          "blockHash": "0xffb3545bfabaafe1d9c0ed468fbbaeded48af84c034ba198a152273dff1e93e4",
          "blockNumber": "0x204cdd5",
          "blockTimestamp": "0x6991a0d7",
          "transactionHash": "0x833ebd3baf56cc53ef0e553950a6181433c823c376de85da33a7801d5c73619c",
          "transactionIndex": "0x0",
          "logIndex": "0x0",
          "removed": false
        },
        {
          "address": "0x0000000000000000000000000000000000001010",
          "topics": [
            "0x4dfe1bbbcf077ddc3e01291eea2d5c70c2b422b415d95645b9adcfd678cb1d63",
            "0x0000000000000000000000000000000000000000000000000000000000001010",
            "0x000000000000000000000000a55e7e6dcebd02ea56d2f268fa22a50c807d759f",
            "0x0000000000000000000000007ee41d8a25641000661b1ef5e6ae8a00400466b0"
          ],
          "data": "0x0000000000000000000000000000000000000000000000000019ad5ad2057000000000000000000000000000000000000000000000000002a518833c7550ece100000000000000000000000000000000000000000000217815eaa89e05f2d3eb000000000000000000000000000000000000000000000002a4fed5e1a34b7ce1000000000000000000000000000000000000000000002178160455f8d7f843eb",
          "blockHash": "0xffb3545bfabaafe1d9c0ed468fbbaeded48af84c034ba198a152273dff1e93e4",
          "blockNumber": "0x204cdd5",
          "blockTimestamp": "0x6991a0d7",
          "transactionHash": "0x833ebd3baf56cc53ef0e553950a6181433c823c376de85da33a7801d5c73619c",
          "transactionIndex": "0x0",
          "logIndex": "0x1",
          "removed": false
        }
      ],
      "logsBloom": "0x00000000000000000000000000000000000000000000004000000001000000000000000000000000080000000000000000008000000000000000000000800000000000000000000000000000000000800000000000000000000100000000000000000000000000000000000002000000010000000000000080000000000000000000000000000000020000000400000000040000000001000000000000000000240000000000000000000000000001000000000000000000000000004000004000000000000000000001000000000000000000400000000000100000000000000000000000000000000000000000000000000000000000040000000000100000",
      "type": "0x2",
      "transactionHash": "0x833ebd3baf56cc53ef0e553950a6181433c823c376de85da33a7801d5c73619c",
      "transactionIndex": "0x0",
      "blockHash": "0xffb3545bfabaafe1d9c0ed468fbbaeded48af84c034ba198a152273dff1e93e4",
      "blockNumber": "0x204cdd5",
      "gasUsed": "0x169f4",
      "effectiveGasPrice": "0x1229298c3f",
      "from": "0xa55e7e6dcebd02ea56d2f268fa22a50c807d759f",
      "to": "0xd384b9908baf9fd39cf75a51a45102b4c19d953c",
      "contractAddress": null
    },
    {
      "status": "0x1",
      "cumulativeGasUsed": "0xc3bc",
      "logs": [
        {
          "address": "0xd384b9908baf9fd39cf75a51a45102b4c19d953c",
          "topics": [
            "0x329bcb4e5cb7d1fa89c2b4f4d1b07d8d25cd7f6f93f5f27047755895b0dad462",
            "0x00000000000000000000000070b52c6cdda7c6b881de77196edfdf5a704b55f2"
          ],
          "data": "0x0000000000000000000000000000000000000000000000000000000005f5e100",
          "blockHash": "0x0a46131e84a2635294f4c9a34399cba27021eebf20477751fa8cef014cad8711",
          "blockNumber": "0x204cdd8",
          "blockTimestamp": "0x6991a0da",
          "transactionHash": "0xdc62cb52f86d0b8ec235c531244253dae9ab339bddc2cd92b0a23f041791454b",
          "transactionIndex": "0x0",
          "logIndex": "0x0",
          "removed": false
        },
        {
          "address": "0x0000000000000000000000000000000000001010",
          "topics": [
            "0x4dfe1bbbcf077ddc3e01291eea2d5c70c2b422b415d95645b9adcfd678cb1d63",
            "0x0000000000000000000000000000000000000000000000000000000000001010",
            "0x000000000000000000000000a55e7e6dcebd02ea56d2f268fa22a50c807d759f",
            "0x0000000000000000000000007ee41d8a25641000661b1ef5e6ae8a00400466b0"
          ],
          "data": "0x000000000000000000000000000000000000000000000000000de2b0e026d000000000000000000000000000000000000000000000000002a4fed5e1a2f269d5000000000000000000000000000000000000000000002178160455f8d7f843eb000000000000000000000000000000000000000000000002a4f0f330c2cb99d5000000000000000000000000000000000000000000002178161238a9b81f13eb",
          "blockHash": "0x0a46131e84a2635294f4c9a34399cba27021eebf20477751fa8cef014cad8711",
          "blockNumber": "0x204cdd8",
          "blockTimestamp": "0x6991a0da",
          "transactionHash": "0xdc62cb52f86d0b8ec235c531244253dae9ab339bddc2cd92b0a23f041791454b",
          "transactionIndex": "0x0",
          "logIndex": "0x1",
          "removed": false
        }
      ],
      "logsBloom": "0x00000000000000200000000000000000000000000000004000000001000000000000000000000000080000000000000000008000000000000000000000800000000000000000000000000000000000800000000000080000000100000000000080000000000000000000000002000000010000000000000080000000000000000000000000000000020000000400000000040000000000000000000000000000240000000000000000000000000000000000000000000000000000004000004000000000000000000001000000000000000000400000000000100000000000000000000000000000000000000000000000000000000000000000000000100000",
      "type": "0x2",
      "transactionHash": "0xdc62cb52f86d0b8ec235c531244253dae9ab339bddc2cd92b0a23f041791454b",
      "transactionIndex": "0x0",
      "blockHash": "0x0a46131e84a2635294f4c9a34399cba27021eebf20477751fa8cef014cad8711",
      "blockNumber": "0x204cdd8",
      "gasUsed": "0xc3bc",
      "effectiveGasPrice": "0x1229298c3f",
      "from": "0xa55e7e6dcebd02ea56d2f268fa22a50c807d759f",
      "to": "0xd384b9908baf9fd39cf75a51a45102b4c19d953c",
      "contractAddress": null
    },
    {
      "status": "0x1",
      "cumulativeGasUsed": "0xff0c",
      "logs": [
        {
          "address": "0xd384b9908baf9fd39cf75a51a45102b4c19d953c",
          "topics": [
            "0x8c1ec1ba18731ac19ff6089bc9470a71fb6b885ee0c64e8415e2599a41e55019",
            "0xfb6baa755e2066441b7ccc1927affcad67f35bc74df43ca450ef556c9eefa449",
            "0x000000000000000000000000a55e7e6dcebd02ea56d2f268fa22a50c807d759f",
            "0x00000000000000000000000070b52c6cdda7c6b881de77196edfdf5a704b55f2"
          ],
          "data": "0x000000000000000000000000000000000000000000000000000000000000002000000000000000000000000000000000000000000000000000000000000000687b2276657273696f6e223a312c226e616d65223a2243544d222c226465736372697074696f6e223a2243544d222c22656d61696c223a22636f6e74696e75756d64616f4070726f746f6e2e6d65222c2275726c223a22636f6e74696e75756d64616f2e6f7267227d000000000000000000000000000000000000000000000000",
          "blockHash": "0xb3262f60feb247181b7f55bcbef13e8934e422a156fedf000e38cd2fef599c9e",
          "blockNumber": "0x204cddb",
          "blockTimestamp": "0x6991a0dd",
          "transactionHash": "0x6aa143ba6a09b4b3107abcf7fde82da7435e4ea04393047f59a502952f6eb588",
          "transactionIndex": "0x0",
          "logIndex": "0x0",
          "removed": false
        },
        {
          "address": "0x0000000000000000000000000000000000001010",
          "topics": [
            "0x4dfe1bbbcf077ddc3e01291eea2d5c70c2b422b415d95645b9adcfd678cb1d63",
            "0x0000000000000000000000000000000000000000000000000000000000001010",
            "0x000000000000000000000000a55e7e6dcebd02ea56d2f268fa22a50c807d759f",
            "0x0000000000000000000000007ee41d8a25641000661b1ef5e6ae8a00400466b0"
          ],
          "data": "0x000000000000000000000000000000000000000000000000001217da50669000000000000000000000000000000000000000000000000002a4f0f330c29b6e91000000000000000000000000000000000000000000002178161bc963e0221beb000000000000000000000000000000000000000000000002a4dedb567234de91000000000000000000000000000000000000000000002178162de13e3088abeb",
          "blockHash": "0xb3262f60feb247181b7f55bcbef13e8934e422a156fedf000e38cd2fef599c9e",
          "blockNumber": "0x204cddb",
          "blockTimestamp": "0x6991a0dd",
          "transactionHash": "0x6aa143ba6a09b4b3107abcf7fde82da7435e4ea04393047f59a502952f6eb588",
          "transactionIndex": "0x0",
          "logIndex": "0x1",
          "removed": false
        }
      ],
      "logsBloom": "0x00000000000000000000800000000000000000000000004000000001000000000000000002000000080000000000000000008000000000000000000000800000000000000000000000000000000000800000000000000000000100000000000000100000000000000000000002000400010000000000000080000000000000000000000000000000020000000400000000040000000000000000000000000001240000000000000000000000000000000000000000000000000000004000004000000000000000000001000000000000000000400000000000100000000000000000040000000000000000000000000000000000000000000000000000100000",
      "type": "0x2",
      "transactionHash": "0x6aa143ba6a09b4b3107abcf7fde82da7435e4ea04393047f59a502952f6eb588",
      "transactionIndex": "0x0",
      "blockHash": "0xb3262f60feb247181b7f55bcbef13e8934e422a156fedf000e38cd2fef599c9e",
      "blockNumber": "0x204cddb",
      "gasUsed": "0xff0c",
      "effectiveGasPrice": "0x1229298c3f",
      "from": "0xa55e7e6dcebd02ea56d2f268fa22a50c807d759f",
      "to": "0xd384b9908baf9fd39cf75a51a45102b4c19d953c",
      "contractAddress": null
    },
    {
      "status": "0x1",
      "cumulativeGasUsed": "0xb361",
      "logs": [
        {
          "address": "0x70b52c6cdda7c6b881de77196edfdf5a704b55f2",
          "topics": [
            "0x8c5be1e5ebec7d5bd14f71427d1e84f3dd0314c0f7b2291e5b200ac8c7c3b925",
            "0x000000000000000000000000a55e7e6dcebd02ea56d2f268fa22a50c807d759f",
            "0x000000000000000000000000d384b9908baf9fd39cf75a51a45102b4c19d953c"
          ],
          "data": "0x000000000000000000000000000000000000000000000000000000003b9aca00",
          "blockHash": "0x7a5d86d32e6d9558c6d2fbfa81b4d3fe34ec14f86974a19ba48c17d2d04f18ae",
          "blockNumber": "0x204cddd",
          "blockTimestamp": "0x6991a0df",
          "transactionHash": "0xdc56f2c0ff6b18cfab595a2ba9d841d8e0d9b3c79b207a1a316ae1ce6e271ee0",
          "transactionIndex": "0x0",
          "logIndex": "0x0",
          "removed": false
        },
        {
          "address": "0x0000000000000000000000000000000000001010",
          "topics": [
            "0x4dfe1bbbcf077ddc3e01291eea2d5c70c2b422b415d95645b9adcfd678cb1d63",
            "0x0000000000000000000000000000000000000000000000000000000000001010",
            "0x000000000000000000000000a55e7e6dcebd02ea56d2f268fa22a50c807d759f",
            "0x0000000000000000000000007ee41d8a25641000661b1ef5e6ae8a00400466b0"
          ],
          "data": "0x000000000000000000000000000000000000000000000000000cb9a9a5a20c00000000000000000000000000000000000000000000000002a4dedb5671f61a9d000000000000000000000000000000000000000000002178164152b7df9f9beb000000000000000000000000000000000000000000000002a4d221accc540e9d000000000000000000000000000000000000000000002178164e0c618541a7eb",
          "blockHash": "0x7a5d86d32e6d9558c6d2fbfa81b4d3fe34ec14f86974a19ba48c17d2d04f18ae",
          "blockNumber": "0x204cddd",
          "blockTimestamp": "0x6991a0df",
          "transactionHash": "0xdc56f2c0ff6b18cfab595a2ba9d841d8e0d9b3c79b207a1a316ae1ce6e271ee0",
          "transactionIndex": "0x0",
          "logIndex": "0x1",
          "removed": false
        }
      ],
      "logsBloom": "0x00000000000000000000000000000000000000000000004000000001000000000000000000000000000000000000000000008000000020000000010000200000000000000000000000000000000000800000000000000000000100000000000000000000000000000000000002000000000000000000000080000000000000000000000000000000020000000400000000000000000400000000000000000040220000000000000000000000000000000000000000000000000000000000004000000000000000000001000000000000000000400000000000100000000000000010000000000000000000000000000000004000000000000000000000500000",
      "type": "0x2",
      "transactionHash": "0xdc56f2c0ff6b18cfab595a2ba9d841d8e0d9b3c79b207a1a316ae1ce6e271ee0",
      "transactionIndex": "0x0",
      "blockHash": "0x7a5d86d32e6d9558c6d2fbfa81b4d3fe34ec14f86974a19ba48c17d2d04f18ae",
      "blockNumber": "0x204cddd",
      "gasUsed": "0xb361",
      "effectiveGasPrice": "0x1229298c3f",
      "from": "0xa55e7e6dcebd02ea56d2f268fa22a50c807d759f",
      "to": "0x70b52c6cdda7c6b881de77196edfdf5a704b55f2",
      "contractAddress": null
    },
    {
      "status": "0x1",
      "cumulativeGasUsed": "0x1ffc5",
      "logs": [
        {
          "address": "0x70b52c6cdda7c6b881de77196edfdf5a704b55f2",
          "topics": [
            "0xddf252ad1be2c89b69c2b068fc378daa952ba7f163c4a11628f55a4df523b3ef",
            "0x000000000000000000000000a55e7e6dcebd02ea56d2f268fa22a50c807d759f",
            "0x000000000000000000000000d384b9908baf9fd39cf75a51a45102b4c19d953c"
          ],
          "data": "0x000000000000000000000000000000000000000000000000000000003b9aca00",
          "blockHash": "0x40d9710be3370c1d0e3842c8ed5f8748f7b6f80c34661eba2ab561201aa2a1d2",
          "blockNumber": "0x204cddf",
          "blockTimestamp": "0x6991a0e1",
          "transactionHash": "0x355f034a581c5878f38291165db9d5e8ab95aec6c208e07c8e2ebd05288abbd8",
          "transactionIndex": "0x1",
          "logIndex": "0x1",
          "removed": false
        },
        {
          "address": "0xd384b9908baf9fd39cf75a51a45102b4c19d953c",
          "topics": [
            "0xd36a2f67d06d285786f61a32b052b9ace6b0b7abef5177b54358abdc83a0b69b",
            "0xfb6baa755e2066441b7ccc1927affcad67f35bc74df43ca450ef556c9eefa449",
            "0x00000000000000000000000070b52c6cdda7c6b881de77196edfdf5a704b55f2"
          ],
          "data": "0x000000000000000000000000000000000000000000000000000000003b9aca00000000000000000000000000000000000000000000000000000000003b9aca00",
          "blockHash": "0x40d9710be3370c1d0e3842c8ed5f8748f7b6f80c34661eba2ab561201aa2a1d2",
          "blockNumber": "0x204cddf",
          "blockTimestamp": "0x6991a0e1",
          "transactionHash": "0x355f034a581c5878f38291165db9d5e8ab95aec6c208e07c8e2ebd05288abbd8",
          "transactionIndex": "0x1",
          "logIndex": "0x2",
          "removed": false
        },
        {
          "address": "0x0000000000000000000000000000000000001010",
          "topics": [
            "0x4dfe1bbbcf077ddc3e01291eea2d5c70c2b422b415d95645b9adcfd678cb1d63",
            "0x0000000000000000000000000000000000000000000000000000000000001010",
            "0x000000000000000000000000a55e7e6dcebd02ea56d2f268fa22a50c807d759f",
            "0x0000000000000000000000007ee41d8a25641000661b1ef5e6ae8a00400466b0"
          ],
          "data": "0x000000000000000000000000000000000000000000000000001ab5c015e2a400000000000000000000000000000000000000000000000002a4d221accc27e9be0000000000000000000000000000000000000000000021781657a4c50acbbfeb000000000000000000000000000000000000000000000002a4b76becb64545be00000000000000000000000000000000000000000000217816725a8520ae63eb",
          "blockHash": "0x40d9710be3370c1d0e3842c8ed5f8748f7b6f80c34661eba2ab561201aa2a1d2",
          "blockNumber": "0x204cddf",
          "blockTimestamp": "0x6991a0e1",
          "transactionHash": "0x355f034a581c5878f38291165db9d5e8ab95aec6c208e07c8e2ebd05288abbd8",
          "transactionIndex": "0x1",
          "logIndex": "0x3",
          "removed": false
        }
      ],
      "logsBloom": "0x00000000000000000000800000000000000000000000004000000001000000000000000000000000080000000000000000008000000020000000010000800000000000000000000000000008000000800000000000000000000100000000000000100000000000000000000002000400010000000000000080000010000000000000000000000000020000000400000000040000000400000000000000000040240000000000000000000000000000000000000000000000000000004000004000000002000000000001000000000000000008400000000100100000000000000000000000000000000000000000000000004000000000000000800000500000",
      "type": "0x2",
      "transactionHash": "0x355f034a581c5878f38291165db9d5e8ab95aec6c208e07c8e2ebd05288abbd8",
      "transactionIndex": "0x1",
      "blockHash": "0x40d9710be3370c1d0e3842c8ed5f8748f7b6f80c34661eba2ab561201aa2a1d2",
      "blockNumber": "0x204cddf",
      "gasUsed": "0x17883",
      "effectiveGasPrice": "0x1229298c3f",
      "from": "0xa55e7e6dcebd02ea56d2f268fa22a50c807d759f",
      "to": "0xd384b9908baf9fd39cf75a51a45102b4c19d953c",
      "contractAddress": null
    }
  ],
  "libraries": [],
  "pending": [],
  "returns": {},
  "timestamp": 1771151585257,
  "chain": 80002,
  "commit": "d786b9f"
}